:020000040800F2
:100000000050002021020008290200082D020008EB
:1000100045020008490200086102000800000000D3
:10002000000000000000000000000000790200084D
:100030007D02000800000000810200083D07000862
:100040009502000895020008950200089502000834
:100050009502000895020008950200089502000824
:100060009502000895020008950200089502000814
:100070009502000895020008950200089502000804
:10008000950200089502000895020008B90A0008C8
:10009000510A000895020008950200089502000820
:1000A00095020008950200089502000895020008D4
:1000B00095020008950200089502000895020008C4
:1000C00095020008950200089502000895020008B4
:1000D00095020008950200089502000895020008A4
:1000E0005908000895020008950200080000000069
:1000F0000000000000000000000000000000000000
:1001000000000000000000005FF808F100B583B0B7
:1001100000F0FAF9304B314A1360314A1360314B29
:10012000314A03E011681960043304322F498B42CD
:10013000F8D32A4B1A682E4B9A4204D1284B1A68DE
:100140002C4B9A4200D0FEE7234B2B4A13602B4ADC
:1001500013602B4B02E000221A600433294A9342B9
:10016000F9D3254B1B6813B9244B1B6803B1FEE779
:1001700000F0D6F9694601A800F0BAF9224C234BE9
:100180001C1BA410002504E01F4B53F82530984792
:100190000135AC42F8DC1E4C1E4B1C1BA410002584
:1001A00004E01B4B53F8253098470135AC42F8DC8E
:1001B0000099019800F022FB0546174C174B1C1BB9
:1001C000A41004E0013C144B53F824309847002C51
:1001D000F8DC284600F064F9BABADECA0000002054
:1001E000F80100200000002090350008FC010020EC
:1001F0007856341232547698FC01002044030020D3
:10020000FC01002048030020C0020008C0020008D2
:10021000C0020008C0020008C0020008C0020008B6
:1002200008B5FFF773FF00BF00BEFEE71EF0040F26
:100230000CBFEFF30880EFF309807146124A1047B4
:1002400000BEFEE700BEFEE71EF0040F0CBFEFF39A
:100250000880EFF3098071460C4A104700BEFEE7A4
:100260001EF0040F0CBFEFF30880EFF30980714616
:10027000074A104700BEFEE700BEFEE700BEFEE7ED
:1002800000BEFEE770470000410200085D02000862
:080290007502000800BEFEE744
:100298009035000800000020FC010020903500087F
:1002A8000000000000000000FC01002048030020BE
:0802B80000000000000000003E
:1002C000F8B505460C46464B98421BD003F58063B3
:1002D000984217D003F58063984213D003F58063EA
:1002E00098420FD003F5806398420BD003F58063EA
:1002F000984207D003F58063984203D0B221394871
:1003000000F0FEF8E3788BB1042B0FD0282B0DD032
:10031000482B0BD0142B09D0102B07D01C2B05D049
:10032000182B03D0B3212F4800F0EAF823881BB91B
:10033000B4212C4800F0E4F8E37803F00F063046CF
:1003400013F0100F0AD0A378013BDBB2022B03D9C4
:10035000BB21244800F0D4F8A07830432378E3B1DF
:100360002E68002316E001229A40218832EA01011A
:100370000FD199000F278F4026EA070600FA01F1F6
:100380000E43E178282901D16A6102E0482900D1B1
:100390002A610133072BE6D92E602388FF2B1ED953
:1003A0006E68002318E003F1080101228A402188C9
:1003B00032EA01010FD199000F278F4026EA070684
:1003C00000FA01F10E43E178282900D16A61E17851
:1003D000482900D12A610133072BE4D96E60F8BDAA
:1003E00000080140C832000810B50446012804D9AD
:1003F00040F2DB21024800F083F8024B1C6010BD84
:10040000FC320008D800424238B504460D460E4B77
:10041000034003B920B940F24A410C4800F070F89B
:10042000012D04D940F24B41084800F069F825B18C
:10043000074A93691C43946138BD054A936923EACE
:100440000404946138BD00BF0200C0FFFC32000804
:100450000010024038B504460D460E4B184200D13C
:1004600020B940F269410C4800F04AF8012D04D946
:1004700040F26A41084800F043F825B1074AD369C1
:100480001C43D46138BD054AD36923EA0404D4610E
:1004900038BD00BF00360181FC3200080010024068
:1004A000FEE700BF08B50120FFF7FAFF08B50D4BC6
:1004B0001B6813B90C4A0B4B1A600A4B1A68C31C11
:1004C00023F00303134409498B4206D900F050FD81
:1004D0000C2303604FF0FF3008BD02490B6010464B
:1004E00008BD00BF0002002048030020004C00208F
:1004F00001230360014B0B60704700BF0400002024
:1005000008B5FFF7CFFF00BF08B500F073F8024B46
:10051000024A9A6008BD00BF00ED00E0000000083C
:1005200008B500F08FF808BD82B000230193009356
:100530002C4A136843F4803313602A4B1B6803F47E
:1005400000330093019B01330193009B1BB9019B76
:10055000B3F5A06FF1D1234B1B6813F4003F02D019
:100560000123009301E000230093009B012B36D16F
:100570001D4B1A6842F010021A601A6822F003023A
:100580001A601A6842F002021A60A3F580535A6892
:100590005A605A685A605A6842F480625A605A68CF
:1005A00022F47C125A605A6842F4E8125A601A68BF
:1005B00042F080721A600B4B1B6813F0007FFAD078
:1005C000084B5A6822F003025A605A6842F002024D
:1005D0005A60044B5B6803F00C03082BF9D102B09E
:1005E000704700BF001002400020024008B5FFF72E
:1005F0009BFF08BD08B5104B1A6842F001021A6053
:1006000059680E4A0A405A601A6822F0847222F42D
:1006100080321A601A6822F480221A605A6822F422
:10062000FE025A604FF41F029A60FFF7DFFF4FF09F
:100630000062034B9A6008BD001002400000FFF802
:1006400000ED00E01F4B5B6803F00C03042B06D0A9
:10065000082B08D03BBB1C4A1C4B1A6026E01A4AE8
:100660001A4B1A6022E0174A53685268C3F3834357
:10067000023312F4803F05D1154A02FB03F3134AFB
:10068000136013E00F4A526812F4003F05D0104A7D
:1006900002FB03F30D4A136008E00B4A02FB03F36D
:1006A0000A4A136002E0084A084B1A60054B5B686F
:1006B000C3F30313074AD35CDAB204490B68D3408F
:1006C0000B6070470010024000127A001C000020EE
:1006D00000093D000C00002000230C4A13600C4A66
:1006E00013600C4B1B680C4AA2FB03239B09013BC4
:1006F000B3F1807F09D2094A5360F021084B83F897
:100700002310002393600723136070470802002022
:100710000C0200201C000020D34D621010E000E00D
:1007200000ED00E0034B1860024B1B68002BFBD16F
:10073000704700BF0C020020704700BF08B50E4B89
:100740001B681BB10C4A1368013B13600B4B1B78F1
:1007500013F0FF0F04D0094A1378013BDBB213708A
:10076000074B1B683BB1064B1A68013A1A601B68BD
:100770000BB9FFF7E1FF08BD0C02002028020020A2
:100780000802002000B583B001210420FFF73CFEE1
:1007900001211020FFF738FE154A936943F0080342
:1007A000936101210846FFF72FFE0020FFF71CFE92
:1007B00001214FF40000FFF74DFE18238DF807309C
:1007C0004FF4C053ADF8043003238DF8063001A96F
:1007D0000848FFF775FD084B5A6842F011025A604D
:1007E000DA6842F44072DA6003B05DF804FB00BFDF
:1007F0000010024000080140000C014008B5FFF75E
:100800006BFFFFF7BFFF124C236943F08073236136
:1008100040F6B830FFF786FF236943F48073236105
:1008200000F038F80B4B9B6813F4006F05D0084AB2
:10083000136943F08073136104E0054A136943F4BC
:10084000807313614FF47A70FFF76CFFEAE700BF23
:10085000000C0140001001400B4B5B6913F4006F6A
:1008600004D0094A536943F400635361074B9B6802
:1008700013F4006F03D02022054B1A6170474FF428
:100880000012034B1A617047000401400010014040
:100890000008014000220C4B1A800C4B4FF48011D1
:1008A00019604FF400211960094B1A65DA644FF49E
:1008B000806119645A6402F1804202F5883213683B
:1008C00043F00053136070472A02002000E100E06B
:1008D000005C004010B40001034B1C6821521B68EF
:1008E0001844828010BC704720000020024B1B6817
:1008F00003EB001081807047200000200001024BB4
:100900001B68185A704700BF20000020034B1B686B
:1009100003EB001001818281704700BF200000209E
:10092000024B1B6803EB0010008970472000002079
:10093000034B1B6803EB00108089C0F3090070476C
:1009400020000020064A52F8203003F01F0319430C
:1009500041F4004141F0800142F82010704700BF8F
:10096000005C0040084A52F8203023F0C0035B05C9
:100970005B0D83EA011189B241F4004141F080012D
:1009800042F82010704700BF005C0040084A52F84F
:10099000203023F40F639B049B0C83EA013109B2DE
:1009A00089B241F4004141F0800142F820107047C3
:1009B000005C0040044A52F8203023F070035B05CD
:1009C0005B0D1360704700BF005C004008B510224B
:1009D00018210020FFF77EFF4FF4805228210020CD
:1009E000FFF794FF102230210120FFF773FF4FF42F
:1009F000005240210220FFF789FF08BD38B5FFF7FC
:100A0000E5FF00230DE0114931F8232022F478623C
:100A100022F00F025204520C1A4341F823200133F2
:100A2000DBB2072BEFD9094C00256564236C43F436
:100A3000064323644FF400712846FFF783FF032128
:100A40002846FFF7A3FF8023E36438BD005C004025
:100A500008B5184B5B6C13F4004F02D000F060FA3D
:100A600008BD13F4804F06D06FF48042114B5A64D6
:100A700000F086F808BD13F4806F06D06FF4806232
:100A80000C4B5A6400F086F808BD13F4007F06D0C2
:100A90006FF40072074B5A6400F09CF808BD13F421
:100AA000807F05D06FF48072024B5A6400F09CF88E
:100AB00008BD00BF005C0040074B5B6C9AB213F4AA
:100AC000004F08D002F00F02034951F8223003F022
:100AD0003F0341F822307047005C004070B5054686
:100AE0000E460846FFF71CFFC0F34F043046FFF7E1
:100AF0001FFFC0F34F002A4608E0611C064800684B
:100B000030F82400108018468CB20232431E9BB28B
:100B10000028F2D1284670BD2400002030B44908D6
:100B200002F0FE020CE0447810F8023B43EA042392
:100B30004C1C054D2D6825F82130023A92B2A1B225
:100B4000002AF0D130BC70472400002030B449089E
:100B500002F0FE020DE04D1C084B1B6833F82130FB
:100B6000044604F8023B1B0A4370023A92B2A9B24F
:100B70002046002AEFD130BC704700BF240000207F
:100B8000024BB3F84420024B1A807047005C0040CF
:100B90004003002008B5FFF731FF0023084A138007
:100BA000084A1380084A1380084A13889BB2591CCC
:100BB00089B21180128892B2054921F8132008BD2C
:100BC000120200203403002010020020180200202E
:100BD0002C020020024BB3F84420024B1A807047CD
:100BE000005C004040030020024BB3F84420024B5D
:100BF0001A807047005C00404003002038B504466E
:100C0000C388082B18D90020FFF778FE154D08225D
:100C100001462846FFF782FF134A08355560E388EE
:100C2000083B13810324114B1C8008210020FFF78F
:100C30005DFE0F4B1C8038BD0020FFF75FFEE28891
:100C400001460848FFF76AFF0325084B1D80002076
:100C5000054B1881E188FFF749FE054B1D80054BC8
:100C60001D8038BD503300083403002010020020DE
:100C7000160200201402002010B50020FFF73EFEEF
:100C80000A4C082201462046FFF748FF084B08346B
:100C90005C6018221A810324064B1C800821002066
:100CA000FFF724FE044B1C8010BD00BF303300084A
:100CB00034030020100200201602002038B5184B23
:100CC0001C78082C17D90020FFF718FE144D0822B5
:100CD00001462846FFF722FF124B08355D60083CAD
:100CE0001C810324104B1C8008210020FFF7FEFD0F
:100CF0000E4B1C8038BD0020FFF700FEA4B2224638
:100D000001460748FFF70AFF0222074B1A802146D7
:100D10000020FFF7EBFD0322044B1A8038BD00BF13
:100D20002C3300083403002010020020160200209B
:100D300010B582B00020FFF7F3FD04460020FFF756
:100D4000F7FD024621466846FFF700FFBDF8023076
:100D50001B0A022B07D0032B08D0012B08D16846B1
:100D6000FFF74CFF04E0FFF787FF01E0FFF7A6FF66
:100D700002B010BD70B5634B5B6C13F0100F77D0F1
:100D80000020FFF717FE5F4B1B6813F4006F5BD06A
:100D90005D4C00212046FFF7A1FE6378092B00F28D
:100DA000AF80DFE803F0050FAD19AD23373F454BAA
:100DB000564A138843F00103138000215248FFF77D
:100DC0008DFE70BD514A138843F002031380002149
:100DD0004D48FFF783FE70BD4C4A138843F004036F
:100DE000138000214848FFF779FE70BD474A1388F9
:100DF00043F008031380444B5A88454B1A80012264
:100E0000444B1A8000210846FFF770FD0322424B35
:100E10001A8070BD3D4A138843F010031380FFF71A
:100E200087FF70BD394A138843F02003138070BDDB
:100E3000364A138843F04003138070BD334A138849
:100E400043F08003138070BD0020FFF771FD18B1DF
:100E50000322324B1A8007E00322304B1A802C4BBE
:100E60001B890BB12C4B1A800020FFF7A3FD70BD2E
:100E7000264A138843F480731380264B1B88022B69
:100E80000DD0032B13D0012B3AD1214B1B8843F0FB
:100E900080031C4AD3640322204B1A8070BD0021BA
:100EA0000846FFF723FD03221C4B1A8070BD184B28
:100EB0001C891CB90322194B1A8070BD072C00D95C
:100EC0000824134D6E680020FFF718FD22460146E6
:100ED0003046FFF723FE03220F4B1A8021460020E5
:100EE000FFF704FD2B891B1B9BB22B816A681444FE
:100EF0006C6013B90222074B1A800020FFF75AFDDD
:100F000070BD00BF005C00402C03002012020020D6
:100F100034030020100200201602002014020020DA
:100F200038B50F4BB3F844200E4B1A801B8813F0D2
:100F30000F0F14D10A4A13680B4DC3F301332B80F2
:100F400013680A4CC3F301132380FFF713FF2988AA
:100F50000020FFF71BFD21880020FFF703FD38BDAF
:100F6000005C004040030020140200201602002014
:100F7000014B1868704700BF880000202DE9F0473A
:100F800088B0149F002B1E461299B8BF03F100438E
:100F900027F02007B6BF1E4600232D23462F1446F8
:100FA000109DDDF84CA00B7003D0452F03D1013507
:100FB00001E0032300E0022307AA049206AA039299
:100FC0008DE828042246334600F0BAFB472F8046BE
:100FD00002D1119BDB0728D5462F08EB050911D15B
:100FE00098F80030302B0AD10022002320463146E9
:100FF00002F0FAF818B9C5F10105CAF80050DAF89C
:1010000000309944002200232046314602F0ECF8DB
:1010100008B9302202E0CDF81C9006E0079B994504
:1010200003D9591C07911A70F8E74046079B159A97
:10103000C8EB0303136008B0BDE8F087034673B53F
:101040000029B8BF494203F8022BB4BF2D222B223E
:10105000092942701ADD0DF1070216460A2591FB97
:10106000F5F405FB1411092C01F1300102F8011D02
:101070002146F4DC3031541E02F8011CB4421A46F9
:101080000AD214F8012B03F8012BF7E71A46302493
:10109000214402F8024B5970101A02B070BD0000D2
:1010A0002DE9F04F91B00C46DDF8688016461F46DA
:1010B000054601F0DDF803681846099300F0AAFA26
:1010C00000230E93D8F800300A90073323F007036B
:1010D00003F1080294F81890D4F800B0C8F8002082
:1010E000D3E90023C4E91223D4F84CA0D4F84880F3
:1010F0002AF000430B934FF0FF32A74B40460B9969
:1011000002F0A4F8A0B94FF0FF32A34B40460B9970
:1011100002F07EF860B9002200234046514602F0FA
:101120006DF810B12D2384F843309C4B9C4A0AE0A3
:10113000424653464046514602F088F8002800F0E7
:101140009281984B984AB9F1470F8CBF90469846C8
:10115000032323612BF0040323604FF0000A3DE0DA
:10116000B9F1670F00F08A81B9F1470F00F086816D
:1011700023600193636800210DF133020590029210
:101180000093424653460691CDF81090CDF80CE0FE
:101190002846FFF7F3FE09F0DF03472B804600F0F7
:1011A0008481B9F1650F0D9900F28D8101394A46AC
:1011B00004F150000D91FFF741FF0E9A824683180B
:1011C000012A236100F37C812268D10700F1788134
:1011D0009DF8333013B12D2384F843300097334604
:1011E0000FAA2146284600F09FF9013002D14FF0A6
:1011F000FF3096E123685A0501D4236965E0B9F10F
:10120000650F40F2D580D4E912010022002301F0DD
:10121000EBFF78B30123654A31462846B8470130D1
:10122000E5D00E9B0D9A9A420BDB2368D80708D4B1
:1012300023689B0740F111814FF0000804F1190960
:1012400006E10A9B099A31462846B8470130CED0BC
:101250004FF0000804F11A090E9B013B9845E7DAAC
:1012600001234A4631462846B8470130BFD008F12D
:101270000108F1E70D9B002B29DC01234B4A314685
:101280002846B8470130B2D00D9B23B90E9B13B945
:101290002368D907CCD50A9B099A31462846B84716
:1012A0000130A4D04FF0000904F11A0A0D9B5B42F3
:1012B000994509DA0123524631462846B84701309C
:1012C00095D009F10109F1E70E9B4246A7E00E9A7D
:1012D000A36D9A42A8BF1A46002A914606DC4FF039
:1012E000000A29EAE97904F11A0B11E013463146A4
:1012F00042462846B8470130F1D178E701235A46E3
:1013000031462846B84701303FF471AF0AF1010A6F
:10131000A36DC9EB03029245F0DB08EB03090D9ABC
:101320000E9B9A420FDB2368DA070CD40E9B0D9AB2
:101330009844C9EB08089B1A9845A8BF9846B8F18D
:10134000000F08DC0FE00A9B099A31462846B8478F
:101350000130EBD14BE743464A4631462846B84771
:1013600001303FF444AF4FF0000928EAE87804F177
:101370001A0A09E00123524631462846B84701308F
:101380003FF435AF09F101090D9A0E9B9B1AC8EB8A
:1013900003039945EEDB4BE7FFFFEF7F6233000865
:1013A000663300086A3300086E33000872330008A1
:1013B0000E9A012A01DCDB0738D50123424631466B
:1013C0002846B84701303FF412AF0A9B099A3146CC
:1013D0002846B84701303FF40AAFD4E91201002291
:1013E000002301F001FF20B14FF0000804F11A09B9
:1013F0000EE00E9B08F10102013B19E001234A4671
:1014000031462846B84701303FF4F1AE08F10108F3
:101410000E9B013B9845F1DB534604F150023146E7
:101420002846B84701307FF403AFE0E64246012387
:1014300031462846B8470130EED1D8E601234A4666
:1014400031462846B84701303FF4D1AE08F10108D3
:10145000E3680F9A9B1A9845F0DBE0680F9B98426F
:10146000B8BF18465DE062680EA8531C0DF1340E3B
:101470004BF480637FF474AE062201E012B90122BE
:10148000626075E6002106910DF133018DE80C00D4
:10149000236005904246CDF81090CDF80CE0029103
:1014A00053462846FFF76AFD80460D9BD81C02DB99
:1014B000626893421DDDA9F102095FFA89F970E6BD
:1014C0000133236184E6B9F1660F14D10029636802
:1014D00007DD216113B92268D2071DD501330B4402
:1014E00019E013B92268D00701D5023313E00123B4
:1014F00011E04FF067090D9B0E9A934205DB2268BD
:101500002361D10708D5013305E0002BD4BFC3F117
:1015100002030123134423610D9B4FF0000AA365CE
:1015200056E611B0BDE8F08F2DE9F04791461F4611
:101530000A698B6806469342B8BF1346C9F8003063
:1015400091F843200C46DDF8208012B10133C9F830
:1015500000302368990642BFD9F800300233C9F839
:101560000030256815F0060510D104F1190A07E0CE
:101570000123524639463046C04701301AD0013562
:10158000E368D9F800209B1A9D42F1DB94F84330C0
:101590002268003318BF012392060FD5E1183020CE
:1015A00081F843005A1C94F845102244023382F813
:1015B000431003E04FF0FF30BDE8F08704F1430231
:1015C00039463046C0470130F4D02268D9F800507F
:1015D000E36802F00602042A08BF5D1B2269A368C3
:1015E0000CBF25EAE57500259342C4BF9B1AED1890
:1015F0004FF000091A344D4509D0012322463946DF
:101600003046C0470130D5D009F10109F3E7002089
:10161000BDE8F087034613F8012B002AFBD1181A06
:10162000013870472DE9F74F03690C6980469C42E9
:101630007FDC013C01F114074FEA840E00F114062F
:1016400006EB0E0357F82450019356F82430013569
:10165000B3FBF5F507EB0E09C5B34FF0000A3846AA
:10166000B446D34650F8043B9AB205FB02A21B0CC9
:101670004FEA124A05FB03A392B2C2EB0B0BBCF874
:1016800000204FEA134A5A441FFA83FBDCF800306B
:101690008145CBEB134303EB224392B242EA034270
:1016A0004FEA234B4CF8042BDCD256F80E306BB9C2
:1016B000019B043B9E421A4602D3C8F8104005E045
:1016C0001268043B002AF8D1013CF3E7404600F0E1
:1016D000FCFF00282BDB304601354FF0000E57F899
:1016E000042B036891B2C1EB0E0E120C99B2714437
:1016F000C2EB134303EB214389B24FEA234EB945B2
:1017000041EA034340F8043BE9D256F8242006EBB3
:10171000840362B9043B9E421A4602D3C8F81040C3
:1017200005E01268043B002AF8D1013CF3E72846A3
:1017300000E0002003B0BDE8F08F000000000000D2
:101740002DE9F04F456A95B08246219CCDE90223F0
:1017500045B9102000F09AFDCAF824004560856064
:101760000560C560DAF82430196859B15A68012358
:1017700093404A608B60504600F0D0FDDAF8243088
:1017800000221A60039BA04A002BBDBF01232360E7
:10179000039B0023BCBF23F000430393DDF80C80C0
:1017A000A8BF236028F000431B0D1B0593421DD1E9
:1017B00042F20F73209A1360029B43B9934A944BF1
:1017C000C8F31300002814BF1846104600E09048E4
:1017D000229B002B00F04685C37813B100F108036B
:1017E00000E0C31C229A136000F03CBDDDE9024515
:1017F000002200232046294601F0F6FC074658B196
:10180000209A01231360229B002B00F01E85814843
:101810001860013800F026BD12AB019313AB0093A2
:1018200022462B46504600F0CBFFC8F30A560490E0
:1018300056B1C5F3130343F07F51204641F44011E4
:10184000A6F2FF3611971DE0139B129E1E4406F26E
:101850003243202B0ADD029A06F21240C3F1400304
:1018600022FA00F008FA03F3184304E0C3F1200061
:10187000029B03FA00F001F0D9F90123A1F1F871FC
:10188000013E11930022644B01F092F858A3D3E972
:10189000002301F041FA58A3D3E9002301F08AF8AC
:1018A000044630460D4601F0D1F955A3D3E9002393
:1018B00001F032FA02460B462046294601F07AF83A
:1018C00004460D4601F0D8FC002283460023204642
:1018D000294601F093FC58B1584601F0B7F9024689
:1018E0000B462046294601F07FFC08B90BF1FF3B6F
:1018F000BBF1160F0DD8DDE90223484901EBCB01FE
:10190000D1E9000101F098FC30B10BF1FF3B00235D
:1019100000E00123109300E01090129B9E1B731EA9
:10192000079343BFC3F10008002307934FF000085B
:10193000BBF1000F06DB079BCDF82CB05B4407938F
:10194000002705E00023CBEB0808CBF100070B9341
:101950001E9B092B28D8052BC4BF043B1E931E9B3E
:10196000C8BF0025A3F10203D8BF0125032B20D84F
:10197000DFE803F0060E0204012302E0012308E081
:1019800000230A931F9B002B1DDD9946059321E040
:1019900000230A931F9B0BEB030909F10103012BA1
:1019A0000593B8BF012315E0012500231E930A9576
:1019B00001E001230A934FF0FF390022CDF8149083
:1019C00012231F9206E04FF001094B46CDF8149008
:1019D000CDF87C90DAF8244000226260042101F105
:1019E00014029A421CD86268490001326260F6E72C
:1019F00061436F63A787D23FB3C8608B288AC63F15
:101A0000FB799F501344D33F0000F07F74330008EC
:101A10007D330008733300080000F83F8833000866
:101A20006168504600F045FCDAF8243020601B68FD
:101A30000693059B0E2B00F25B81002D00F0588170
:101A4000DDE90234BBF1000FCDE90E3430DD9F4AF1
:101A50000BF00F034FEA2B1502EBC303E80618CB7C
:101A6000CDE908340CD5DDE90E01994B05F00F05E1
:101A7000D3E9082301F07AFA0324CDE9020100E05A
:101A80000224934E6DB1E90708D5DDE90801D6E9D6
:101A9000002301F041F9CDE9080101346D10083649
:101AA000F0E7DDE90823DDE9020101F05FFA20E05B
:101AB000CBF1000505B3DDE90E01844B05F00F0203
:101AC00003EBC203D3E9002301F026F9CDE90201BB
:101AD0007F4E2D110023022455B1EA0705D5D6E922
:101AE000002301F019F9013401236D100836F3E7E2
:101AF0001BB1CDE9020100E00224109BE3B1DDE956
:101B000002560022734B2846314601F077FB98B10C
:101B1000059B8BB1B9F1000F40F3E6800BF1FF3369
:101B20000893314600226C4B284601F0F5F8013449
:101B3000CDE902014E4602E0059ECDF820B02046D8
:101B400001F084F8DDE9022301F0E6F8634B00229E
:101B500000F030FFA1F1507304460C931D46D6B936
:101B6000DDE9020100225E4B00F022FF22460C9BC1
:101B7000CDE9020101F060FB002840F03F820C99A2
:101B8000224601F10043DDE9020101F037FB0028A4
:101B900040F02B82A8E00A9A4C4B711E002A49D0D3
:101BA00003EBC103D3E9002300204E4901F0DEF925
:101BB00022462B4600F0FCFECDE90C01069CDDE937
:101BC000020101F059FB054601F040F802460B46C0
:101BD000DDE9020100F0ECFEDDE90C23303504F80C
:101BE000015BCDE9020101F009FB002840F01D83F3
:101BF000DDE902230020374900F0DAFEDDE90C239D
:101C000001F0FCFA002840F0D180069BE31AB342B1
:101C10006ADADDE90C0100222F4B01F07DF8002289
:101C2000CDE90C01DDE902012B4B01F075F8CDE99E
:101C30000201C4E703EBC1012246D1E900012B46B2
:101C400001F06AF8069BCDE90C011D469C19DDE9FF
:101C5000020101F011FB064600F0F8FF02460B46B8
:101C6000DDE9020100F0A4FE303605F8016BAC425C
:101C7000CDE902014FF0000222D11A4BDDE90C013F
:101C800000F098FE02460B46DDE9020101F0D4FAAD
:101C9000002840F08B80DDE90C230020114900F082
:101CA00087FE02460B46DDE9020101F0A7FAD8B132
:101CB00014F8013C621E302B40F0B7821446F7E75F
:101CC000054B01F029F8CDE90201C0E7883300088F
:101CD000503400080000F03F0000244000001C4089
:101CE000000014400000E03FDDE90E34CDE902348D
:101CF000139B002B7CDBBBF10E0F79DCAB4B03EBB2
:101D0000CB03D3E900671F9B002B14DA059B002B44
:101D100011DC40F06C810022A54B3046394600F0C2
:101D2000FBFFDDE9022301F07DFA059D2E46002828
:101D300040F05F8165E1069CDDE9028932463B4661
:101D40004046494601F012F901F096FA054600F0C6
:101D50007DFF32463B4600F0DFFF0B460246494618
:101D6000404600F025FE05F1300E069B04F801EB1D
:101D7000C3EB040E059B73452DD102460B4600F0C4
:101D800019FE8046894602460B463046394601F028
:101D900035FA78B942464B463046394601F024FAC6
:101DA000002800F04482EB0704D440E2DDF820B0C4
:101DB00000E01C4614F8012C631E392A07D1069A4C
:101DC0009A42F6D1069930220BF1010B0A701A786B
:101DD00001321A702BE20022764B00F09DFF0022A8
:101DE00000238046894601F0FFF90028A6D01EE2B4
:101DF0000A9A002A2BD01E9A012A0ADC119A12B1E3
:101E000003F2334302E0129BC3F136033D464446DE
:101E100013E0059B5D1EAF42BFBF0B9BEA1B9B18E7
:101E20000B93059BB6BF2F467D1B0025002BA7BF3C
:101E30004446059BC3EB08040023079A01211A447A
:101E400050469844079200F008FB064602E03D46E3
:101E500044460A9E5CB1079B002B08DDA342A8BF45
:101E60002346079AC3EB0808E41AD31A0793002FF6
:101E70001DDD0A9BABB18DB131462A46504600F0BC
:101E800085FB049A01460646504600F0EFFA049995
:101E90000890504600F042FA089B04937A1B06D043
:101EA00000E03A460499504600F070FB049001218E
:101EB000504600F0D2FA0B9B05465BB31A4601462A
:101EC000504600F063FB1E9B0546012B18DC029B6D
:101ED00083B9039BC3F3130373B9039B23F0004738
:101EE0003F0D3F054FB1079B08F1010801330793F0
:101EF000012702E0002700E0029F0B9B73B100E086
:101F000000272B6905EB8303186900F059FAC0F12B
:101F1000200004E01E9B012BD9DD0B9F0120079BB5
:101F2000184410F01F0008D0C0F12003042B02DD7C
:101F3000C0F11C0002E006D018461C30079B80440C
:101F4000034404440793B8F1000F05DD42460499A9
:101F5000504600F069FB0490079B002B05DD2946E5
:101F60001A46504600F060FB0546109B23B32946F5
:101F7000049800F0AAFB00281EDA00230A22049924
:101F8000504600F0E2F90A9B0BF1FF3B0490002B56
:101F900000F05F81314600230A22504600F0D5F957
:101FA000B9F1000F06463FDC3BE000BF8833000874
:101FB0000000144000002440059B002B2BDC1E9BDE
:101FC000022B28DDDDF81490B9F1000F11D129465C
:101FD0004B460522504600F0B8F9014605460498E4
:101FE00000F073FB00280CDC03E0354600E0002520
:101FF0002E461F9B069C6FEA030B09E03546DDF871
:1020000020B0069B069A5C1C312313700BF1010B68
:1020100005960026F7E00A9BDDF8149023B9069C8C
:10202000B2E01E9B022BCFDC002C05DD31462246A0
:10203000504600F0F9FA06469FB17168504600F02C
:1020400038F90446326906F10C01023292000C3074
:1020500000F024F901222146504600F0E5FA0590EF
:1020600000E00596029B069F03F0010307932946B3
:102070000498FFF7D7FA3146044600F13008049877
:1020800000F023FB059A02902946504600F039FBE8
:10209000C36802463BB901460A90049800F015FB5C
:1020A0000A9A034600E00123114650460A9300F0C5
:1020B00035F90A9B53B91E9A42B9079A32B9B8F159
:1020C000390F2AD0029B002B1CDC1DE0029A002A4B
:1020D00004DB1BD11E9ACAB9079ABAB9002B13DDCB
:1020E00001220499504600F09FFA2946049000F01E
:1020F000ECFA002803DC07D118F0010F04D0B8F186
:10210000390F0AD004F131087C1C0CE0002B07F1D8
:1021100001040BDDB8F1390F03D139233B700137CE
:1021200056E008F1010887F800806CE0069B27461E
:10213000E31A4B4504F8018C3BD000230A22049992
:10214000504600F002F9059B04909E424FF00A02AF
:102150004FF000033146504604D100F0F6F8064631
:10216000059084E700F0F1F8002306460A2205995D
:10217000504600F0EAF8059079E700230A22049916
:10218000504600F0E2F8049029460498FFF74AFA16
:10219000069B00F1300804F8018BE31A4B45ECDB99
:1021A000069B0596B9F1010FACBF4B4401331F46A6
:1021B000002601220499504600F036FA2946049080
:1021C00000F083FA002803DC15D118F0010F12D0BB
:1021D0003C4614F8013C621E392B09D1069B934200
:1021E00004D10BF1010B3123069A02E01446F0E70B
:1021F0000133137007E03C4614F8013C621E302B9B
:1022000001D11446F8E72946504600F087F8059BAF
:102210006BB12EB19E4203D03146504600F07EF89D
:102220000599504600F07AF801E0DDF820B00499F5
:10223000504600F073F80023209A23700BF101033D
:102240001360229B1BB11C6001E008480AE006985D
:1022500008E0B9F1000F3FF7E2AE1E9B022B7FF7BB
:10226000DEAEB1E615B0BDE8F08F00BF72330008F6
:10227000044B1B68186A044B002808BF1846F0304E
:10228000704700BF880000208C000020024B0146F0
:10229000186800F0F1BA00BF8800002010B5431E96
:1022A0000A44914204D011F8014B03F8014FF8E7BA
:1022B00010BD70B5456A04460E463DB91020FFF7C3
:1022C000E5FF6062456085600560C560656AEB6832
:1022D00043B1636ADB6853F8260078B1026843F8BB
:1022E000262017E021220421204600F0B7FA636A75
:1022F000E860DB68002BECD1002070BD012101FA01
:1023000006F56A1D9200204600F0A8FA0028F3D0D6
:102310004660856000230361C36070BD70B5446A88
:1023200006460D463CB91020FFF7B0FF70624460CE
:1023300084600460C4603DB1736A6A68DB6853F806
:102340002210296043F8225070BD2DE9F041064665
:102350000C460D691F4601F1140E0023DEF8000043
:10236000013381B202FB0171000C0F0C02FB007003
:1023700089B201EB00419D424FEA10474EF8041B21
:10238000ECDCD7B1A3689D4212DB616830460131B5
:10239000FFF78FFF8046226904F10C0102329200A0
:1023A0000C30FFF77BFF21463046FFF7B7FF44466E
:1023B00004EB850301355F6125612046BDE8F081AE
:1023C000030C1B0413B90004102300E0002310F0D9
:1023D0007F4F04BF0002083310F0704F04BF0001AC
:1023E000043310F0404F04BF80000233002803DBA9
:1023F000420003D5581C704718467047202070478C
:10240000036813F007020BD0D90722D49A074BBFF9
:102410005B089B08036003604CBF012002207047EB
:1024200099B209B91B0C102213F0FF0F04BF1B0A4D
:102430000832190704BF1B090432990704BF9B081F
:102440000232D90702D45B0805D00132036010467E
:102450007047002070472020704710B50C460121BE
:10246000FFF727FF01224461026110BD2DE9F74FFC
:1024700014460A69236988469A42BEBF0B46A046A5
:102480001C46D8F81070D4F81090D8F80830D8F856
:10249000041007EB09069E42C8BF0131FFF709FF90
:1024A00000F114052B4605EB860C0022634502D291
:1024B00043F8042BFAE704F1140208F1140102EBCB
:1024C000890301EB87070093009B0192934257D940
:1024D000B2F800B0BBF1000F23D08946AE464FF0F2
:1024E000000859F8044BBEF800A0A3B20BFB03A3ED
:1024F0004FEA144ADEF8004043444FEA14480BFB0D
:102500000A84F24604EB13449BB243EA04434F456A
:102510004FEA14484AF8043B01D9D646E1E7CEF821
:102520000480019B0432B3F802A0BAF1000F21D05D
:102530002C4689462B684FF00008B9F800E0B4F843
:1025400002B09BB20AFB0EBEA346F04443EA084326
:102550004BF8043B59F8043BB4F804E01B0C0AFBAD
:1025600003E34F4503EB18434FEA134801D95C4698
:10257000E3E763600435A7E75CF8043D13B9013E67
:10258000002EF9DC066103B0BDE8F08F2DE9F843B9
:10259000154612F0030206460F4607D0214C013AB9
:1025A000002354F82220FFF7D0FE0746AD1036D0A6
:1025B000746A3CB91020FFF769FE70624460846061
:1025C0000460C460D6F82480D8F808404CB940F2C2
:1025D00071213046FFF741FF04460023C8F8080088
:1025E00003604FF00008EB070AD539462246304613
:1025F000FFF73CFF814639463046FFF78FFE4F46D6
:102600006D100CD0206808B10446ECE72246214644
:102610003046FFF72BFF2060C0F80080F4E7384613
:10262000BDE8F883783400082DE9F0470C460746EA
:10263000914626694FEA621A56444968A368751C98
:10264000AB4202DA01315B00FAE73846FFF731FEB0
:10265000002380461A4600F11401534503DA41F87D
:1026600023200133F9E72AEAEA73206901EB8303A7
:1026700019F01F0904F1140101EB800E14D0C9F107
:10268000200C002208689A4600FA09F0024343F839
:10269000042B51F8042B8E4522FA0CF2F2D8CAF81A
:1026A000042042B1B51C06E0043B51F8042B8E45D2
:1026B00043F8042FF9D8013D3846C8F81050214698
:1026C000FFF72CFE4046BDE8F08703690A6910B5A4
:1026D0009B1A11D192001430143183180A4453F814
:1026E000044D52F8041D8C4202D007D3012010BDC6
:1026F0009842F4D3002010BD184610BD4FF0FF30B3
:1027000010BD2DE9F8430C460746114620461546F4
:10271000FFF7DBFF061E08D131463846FFF7C9FD3B
:10272000012303614661BDE8F883BCBF23462C4604
:1027300038466168BABF1D4601260026FFF7B9FD7D
:102740002B69C660266905F1140904F1140101EB37
:10275000860709EB830800F114054FF0000C51F8CF
:10276000042B59F8044B93B29C44A3B2240CC3EB42
:102770000C03C4EB124202EB23429BB24FEA224C01
:10278000C84543EA02428E4645F8042BE7D8BE45C9
:102790000ED25EF8041B8AB26244131403EB114399
:1027A00092B242EA03424FEA234C45F8042BEEE78B
:1027B00055F8043D0BB9013EFAE70661BDE8F88320
:1027C0002DE9F3411C4601219046089E099DFFF723
:1027D00070FDC4F31302C4F30A5407460CB142F46B
:1027E00080120192B8F1000F19D002A840F8088DAC
:1027F000FFF706FE009B48B1019AC0F1200102FAE2
:1028000001F10B43C2407B61019200E07B61019BBF
:10281000002B14BF02210121BB61396107E001A82F
:10282000FFF7EEFD019B01217B613961203034B15E
:10283000A4F2334404443460C0F1350009E0A0F24E
:10284000324007EB810330601869FFF7B9FDC0EB38
:1028500041102860384602B0BDE8F08138B502FB6F
:1028600001F4214600F008F8054618B1224600217F
:1028700000F082F8284638BD70B5CD1C25F0030560
:1028800008350C2D38BF0C25002D064601DBA9426A
:1028900002D90C23336046E000F076F8234B1C6825
:1028A0001A462146A1B10B685B1B0ED40B2B03D932
:1028B0000B60CC18CD501EE08C420BBF63684B6898
:1028C0001360636018BF0C4615E00C464968E9E7E1
:1028D000174C23681BB9304600F02CF820602946BD
:1028E000304600F027F8431C18D0C41C24F0030421
:1028F000A0420DD12560304600F047F804F10B00EE
:10290000231D20F00700C31A0ED05A42E25070BDBA
:10291000211A304600F00EF80130EBD10C23336061
:10292000304600F032F8002070BD00BF20020020C9
:102930001C02002038B5064C0023054608462360DB
:10294000FDF7B4FD431C02D1236803B12B6038BDF1
:102950002402002082B001B901A93AB143B1137831
:102960000B601278101C18BF012003E0104601E034
:102970006FF0010002B0704703460244934202D058
:1029800003F8011BFAE770477047704749B1FF2A07
:1029900085BF8A2303600A704FF0FF3098BF012083
:1029A000704708467047000081F0004102E000BF18
:1029B00083F0004330B54FEA41044FEA430594EAFF
:1029C000050F08BF90EA020F1FBF54EA000C55EA3A
:1029D000020C7FEA645C7FEA655C00F0E2804FEA0B
:1029E0005454D4EB5555B8BF6D420CDD2C4480EAED
:1029F000020281EA030382EA000083EA010180EA1D
:102A0000020281EA0303362D88BF30BD11F0004F6A
:102A10004FEA01314FF4801C4CEA113102D04042A0
:102A200061EB410113F0004F4FEA03334CEA1333DB
:102A300002D0524263EB430394EA050F00F0A780F3
:102A4000A4F10104D5F1200E0DDB02FA0EFC22FAEE
:102A500005F2801841F1000103FA0EF2801843FAE2
:102A600005F359410EE0A5F120050EF1200E012AD3
:102A700003FA0EFC28BF4CF0020C43FA05F3C01811
:102A800051EBE37101F0004507D54FF0000EDCF18A
:102A9000000C7EEB00006EEB0101B1F5801F1BD333
:102AA000B1F5001F0CD349085FEA30004FEA3C0C37
:102AB00004F101044FEA445212F5800F80F09A802D
:102AC000BCF1004F08BF5FEA500C50F1000041EB31
:102AD000045141EA050130BD5FEA4C0C404141EB35
:102AE000010111F4801FA4F10104E9D191F0000F5C
:102AF00004BF01460020B1FA81F308BF2033A3F1DF
:102B00000B03B3F120020CDA0C3208DD02F1140CD5
:102B1000C2F10C0201FA0CF021FA02F10CE002F110
:102B20001402D8BFC2F1200C01FA02F120FA0CFC09
:102B3000DCBF41EA0C019040E41AA2BF01EB045152
:102B4000294330BD6FEA04041F3C1CDA0C340EDC50
:102B500004F11404C4F1200220FA04F001FA02F393
:102B600040EA030021FA04F345EA030130BDC4F151
:102B70000C04C4F1200220FA02F001FA04F340EA46
:102B80000300294630BD21FA04F0294630BD94F0F7
:102B9000000F83F4801306BF81F480110134013DDE
:102BA0004EE77FEA645C18BF7FEA655C29D094EA4F
:102BB000050F08BF90EA020F05D054EA000C04BFCD
:102BC0001946104630BD91EA030F1EBF00210020B8
:102BD00030BD5FEA545C05D14000494128BF41F057
:102BE000004130BD14F580043CBF01F5801130BDBB
:102BF00001F0004545F0FE4141F470014FF0000046
:102C000030BD7FEA645C1ABF194610467FEA655CF6
:102C10001CBF0B46024650EA013406BF52EA033598
:102C200091EA030F41F4002130BD00BF90F0000F86
:102C300004BF0021704730B54FF4806404F13204C2
:102C40004FF000054FF0000150E700BF90F0000F7B
:102C500004BF0021704730B54FF4806404F13204A2
:102C600010F0004548BF40424FF000013EE700BF72
:102C700042004FEAE2014FEA31014FEA02701FBF02
:102C800012F07F4393F07F4F81F06051704792F0D4
:102C9000000F14BF93F07F4F704730B54FF460744E
:102CA00001F0004521F0004120E700BF50EA010299
:102CB00008BF704730B54FF000050AE050EA010246
:102CC00008BF704730B511F0004502D5404261EBB6
:102CD00041014FF4806404F132045FEA915C3FF4F7
:102CE000DCAE4FF003025FEADC0C18BF03325FEA90
:102CF000DC0C18BF033202EBDC02C2F1200300FA45
:102D000003FC20FA02F001FA03FE40EA0E0021FA69
:102D100002F11444C1E600BF70B54FF0FF0C4CF453
:102D2000E06C1CEA11541DBF1CEA135594EA0C0F09
:102D300095EA0C0F00F0DEF82C4481EA030621EA44
:102D40004C5123EA4C5350EA013518BF52EA03357F
:102D500041F4801143F4801338D0A0FB02CE4FF031
:102D60000005E1FB02E506F00042E0FB03E54FF061
:102D70000006E1FB03569CF0000F18BF4EF0010E59
:102D8000A4F1FF04B6F5007F64F5407404D25FEA55
:102D90004E0E6D4146EB060642EAC62141EA555108
:102DA0004FEAC52040EA5E504FEACE2EB4F1FD0C4A
:102DB00088BFBCF5E06F1ED8BEF1004F08BF5FEAC8
:102DC000500E50F1000041EB045170BD06F000467A
:102DD00046EA010140EA020081EA0301B4EB5C0427
:102DE000C2BFD4EB0C0541EA045170BD41F480111F
:102DF0004FF0000E013C00F3AB8014F1360FDEBF44
:102E0000002001F0004170BDC4F10004203C35DA1F
:102E10000C341BDC04F11404C4F1200500FA05F3A2
:102E200020FA04F001FA05F240EA020001F0004243
:102E300021F0004110EBD37021FA04F642EB0601B9
:102E40005EEA430E08BF20EAD37070BDC4F10C04E3
:102E5000C4F1200500FA04F320FA05F001FA04F2A7
:102E600040EA020001F0004110EBD37041F1000193
:102E70005EEA430E08BF20EAD37070BDC4F120059E
:102E800000FA05F24EEA020E20FA04F301FA05F206
:102E900043EA020321FA04F001F0004121FA04F2AE
:102EA00020EA020000EBD3705EEA430E08BF20EA7E
:102EB000D37070BD94F0000F0FD101F000464000B8
:102EC00041EB010111F4801F08BF013CF7D041EA3A
:102ED000060195F0000F18BF704703F0004652003E
:102EE00043EB030313F4801F08BF013DF7D043EA0F
:102EF0000603704794EA0C0F0CEA135518BF95EAC5
:102F00000C0F0CD050EA410618BF52EA4306D1D14B
:102F100081EA030101F000414FF0000070BD50EA6A
:102F2000410606BF1046194652EA430619D094EAF4
:102F30000C0F02D150EA013613D195EA0C0F05D1DE
:102F400052EA03361CBF104619460AD181EA030132
:102F500001F0004141F0FE4141F470014FF00000EA
:102F600070BD41F0FE4141F4780170BD70B54FF085
:102F7000FF0C4CF4E06C1CEA11541DBF1CEA135505
:102F800094EA0C0F95EA0C0F00F0A7F8A4EB0504E7
:102F900081EA030E52EA03354FEA013100F08880DE
:102FA0004FEA03334FF0805545EA131343EA1263A7
:102FB0004FEA022245EA111545EA10654FEA00265C
:102FC0000EF000419D4208BF964244F1FD0404F515
:102FD000407402D25B084FEA3202B61A65EB030571
:102FE0005B084FEA32024FF480104FF4002CB6EB2E
:102FF000020E75EB030E22BFB61A754640EA0C00AE
:103000005B084FEA3202B6EB020E75EB030E22BFED
:10301000B61A754640EA5C005B084FEA3202B6EB2E
:10302000020E75EB030E22BFB61A754640EA9C00ED
:103030005B084FEA3202B6EB020E75EB030E22BFBD
:10304000B61A754640EADC0055EA060E18D04FEA7B
:10305000051545EA16754FEA06164FEAC30343EA1B
:1030600052734FEAC2025FEA1C1CC0D111F4801FE8
:103070000BD141EA00014FF000004FF0004CB6E7E1
:1030800011F4801F04BF01430020B4F1FD0C88BF80
:10309000BCF5E06F3FF6AFAEB5EB030C04BFB6EB8B
:1030A000020C5FEA500C50F1000041EB045170BD7E
:1030B0000EF0004E4EEA113114EB5C04C2BFD4EBAB
:1030C0000C0541EA045170BD41F480114FF0000E2F
:1030D000013C90E645EA060E8DE60CEA135594EAAB
:1030E0000C0F08BF95EA0C0F3FF43BAF94EA0C0FAE
:1030F0000AD150EA01347FF434AF95EA0C0F7FF423
:1031000025AF104619462CE795EA0C0F06D152EA76
:1031100003353FF4FDAE1046194622E750EA41065A
:1031200018BF52EA43067FF4C5AE50EA41047FF46B
:103130000DAF52EA43057FF4EBAE12E74FF0FF3CD0
:1031400006E000BF4FF0010C02E000BF4FF0010CA1
:103150004DF804CD4FEA410C7FEA6C5C4FEA430C1A
:1031600018BF7FEA6C5C1BD001B050EA410C0CBF69
:1031700052EA430C91EA030F02BF90EA020F0020CB
:10318000704710F1000F91EA030F58BF994208BF32
:1031900090422CBFD8176FEAE37040F001007047EF
:1031A0004FEA410C7FEA6C5C02D150EA013C07D146
:1031B0004FEA430C7FEA6C5CD6D152EA033CD3D091
:1031C0005DF8040B704700BF8446104662468C468B
:1031D0001946634600E000BF01B5FFF7B7FF0028BE
:1031E00048BF10F1000F01BD4DF808EDFFF7F4FFE7
:1031F0000CBF012000205DF808FB00BF4DF808ED72
:10320000FFF7EAFF34BF012000205DF808FB00BF94
:103210004DF808EDFFF7E0FF94BF012000205DF8B6
:1032200008FB00BF4DF808EDFFF7CEFF94BF01206B
:1032300000205DF808FB00BF4DF808EDFFF7C4FF64
:1032400034BF012000205DF808FB00BF4FEA410CAD
:103250007FEA6C5C02D150EA013C0AD14FEA430C90
:103260007FEA6C5C02D152EA033C02D14FF00000CD
:1032700070474FF0010070474FEA410212F500120B
:1032800015D211D56FF47873B3EB625212D94FEAAD
:10329000C12343F0004343EA505311F0004F23FA97
:1032A00002F018BF404270474FF00000704750EAEC
:1032B000013005D111F0004008BF6FF000407047A9
:1032C0004FF00000704700BF2E2E2F737973746586
:1032D0006D2F7372632F73746D333266312D737477
:1032E000647065726970682F73746D333266313043
:1032F000785F6770696F2E63000000002E2E2F73B9
:10330000797374656D2F7372632F73746D333266C6
:10331000312D7374647065726970682F73746D33C6
:1033200032663130785F7263632E630004030904F0
:1033300009022000010100C032090400000202025B
:1033400001000705810210000007050202100000BD
:103350001201000202000010830440570002010223
:103360000301494E4600696E66004E414E006E6193
:103370006E003000496E66696E697479004E614E68
:103380000000000000000000000000000000F03F0E
:103390000000000000002440000000000000594030
:1033A0000000000000408F40000000000088C34083
:1033B00000000000006AF8400000000080842E41F8
:1033C00000000000D01263410000000084D7974144
:1033D0000000000065CDCD41000000205FA002424A
:1033E000000000E876483742000000A2941A6D42BF
:1033F000000040E59C30A2420000901EC4BCD642B2
:1034000000003426F56B0C430080E03779C341435C
:1034100000A0D8855734764300C84E676DC1AB43D2
:10342000003D9160E458E143408CB5781DAF1544F0
:1034300050EFE2D6E41A4B4492D54D06CFF08044CB
:10344000F64AE1C7022DB544B49DD9794378EA44E0
:103450000080E03779C34143176E05B5B5B8934690
:10346000F5F93FE9034F384D321D30F94877825A5C
:103470003CBF737FDD4F157505000000190000008B
:103480007D0000004300504F534958002E0000209B
:103490002020202020202020282828282820202004
:1034A00020202020202020202020202020202088B4
:1034B0001010101010101010101010101010100418
:1034C0000404040404040404041010101010101068
:1034D000414141414141010101010101010101015C
:1034E0000101010101010101010110101010101072
:1034F000424242424242020202020202020202022C
:103500000202020202020202020210101010200047
:1035100000000000000000000000000000000000AB
:10352000000000000000000000000000000000009B
:10353000000000000000000000000000000000008B
:10354000000000000000000000000000000000007B
:10355000000000000000000000000000000000006B
:10356000000000000000000000000000000000005B
:10357000000000000000000000000000000000004B
:0F3580000000000000000000000000000000003C
:1035900078563412040200200000000000000000F1
:1035A00000000000010203040607080900A24A0403
:1035B00000600040006000400000000000000000CB
:1035C00000000000000000000000000000000000FB
:1035D00000000000000000000000000000000000EB
:1035E00000000000000000000000000000000000DB
:1035F00000000000000000000000000000000000CB
:1036000000000000000000000000000000000000BA
:10361000000000000000000028000020430000001F
:10362000000000000000000000000000000000009A
:103630000000000000000000000000004300000047
:10364000000000000000000000000000000000007A
:103650000000000000000000000000004300000027
:10366000000000000000000000000000000000005A
:103670000000000000000000000000004300000007
:10368000000000000000000000000000000000003A
:1036900000000000000000000000000043000000E7
:1036A000000000000000000000000000000000001A
:1036B00000000000000000000000000043000000C7
:1036C00000000000000000000000000000000000FA
:1036D00000000000000000000000000043000000A7
:1036E00000000000000000000000000000000000DA
:1036F0000000000000000000000000008D2900080C
:1037000055290008000000008E3400088C340008A1
:103710008D3400088D3400088D3400088D34000885
:103720008D3400088D3400088D3400088D34000875
:103730008D340008FFFFFFFFFFFFFFFFFFFFFFFFCC
:10374000FFFF000001004153434949000000000011
:103750000000000000000000000000000000000069
:1037600000000000000041534349490000000000F0
:103770000000000000000000000000000000000049
:0C378000000000000000000032547698A9
:040000050800010DE1
:00000001FF
