:020000040800F2
:100000000050002021020008290200082D020008EB
:1000100045020008490200086102000800000000D3
:10002000000000000000000000000000790200084D
:100030007D0200080000000081020008850700081A
:100040009502000895020008950200089502000834
:100050009502000895020008790B00084D0B000876
:100060009502000895020008950200089502000814
:100070009502000895020008950200089502000804
:10008000950200089502000895020008310F00084B
:10009000B50E0008950200089502000895020008B8
:1000A00095020008950200089502000895020008D4
:1000B0009502000895020008390A00089502000818
:1000C00095020008950200089502000895020008B4
:1000D00095020008950200089502000895020008A4
:1000E000E90B0008950200089502000800000000D6
:1000F0000000000000000000000000000000000000
:1001000000000000000000005FF808F100B583B0B7
:1001100000F01AFA304B314A1360314A1360314B08
:10012000314A03E011681960043304322F498B42CD
:10013000F8D32A4B1A682E4B9A4204D1284B1A68DE
:100140002C4B9A4200D0FEE7234B2B4A13602B4ADC
:1001500013602B4B02E000221A600433294A9342B9
:10016000F9D3254B1B6813B9244B1B6803B1FEE779
:1001700000F0F6F9694601A800F0DAF9224C234BA9
:100180001C1BA410002504E01F4B53F82530984792
:100190000135AC42F8DC1E4C1E4B1C1BA410002584
:1001A00004E01B4B53F8253098470135AC42F8DC8E
:1001B0000099019800F0F6FC0546174C174B1C1BE4
:1001C000A41004E0013C144B53F824309847002C51
:1001D000F8DC284600F084F9BABADECA0000002034
:1001E0000802002000000020C83B00080C0200208C
:1001F00078563412325476980C02002020030020E6
:100200000C02002024030020C0020008C0020008E5
:10021000C0020008C0020008C0020008C0020008B6
:1002200008B5FFF773FF00BF00BEFEE71EF0040F26
:100230000CBFEFF30880EFF309807146124A1047B4
:1002400000BEFEE700BEFEE71EF0040F0CBFEFF39A
:100250000880EFF3098071460C4A104700BEFEE7A4
:100260001EF0040F0CBFEFF30880EFF30980714616
:10027000074A104700BEFEE700BEFEE700BEFEE7ED
:1002800000BEFEE770470000410200085D02000862
:080290007502000800BEFEE744
:10029800C83B0008000000200C020020C83B0008F2
:1002A80000000000000000000C02002024030020D1
:0802B80000000000000000003E
:1002C00010B50446B0F5E06F0FD0B0F5C06F0CD09C
:1002D000B0F5A06F09D0B0F5806F06D0B0F5407FC3
:1002E00003D06321044800F02BF944F0BF6444F4C8
:1002F0000034024BDC6010BDE837000800ED00E080
:10030000F8B505460C46464B98421BD003F5806372
:10031000984217D003F58063984213D003F58063A9
:1003200098420FD003F5806398420BD003F58063A9
:10033000984207D003F58063984203D0B221394830
:1003400000F0FEF8E3788BB1042B0FD0282B0DD0F2
:10035000482B0BD0142B09D0102B07D01C2B05D009
:10036000182B03D0B3212F4800F0EAF823881BB9DB
:10037000B4212C4800F0E4F8E37803F00F0630468F
:1003800013F0100F0AD0A378013BDBB2022B03D984
:10039000BB21244800F0D4F8A07830432378E3B19F
:1003A0002E68002316E001229A40218832EA0101DA
:1003B0000FD199000F278F4026EA070600FA01F1B6
:1003C0000E43E178282901D16A6102E0482900D171
:1003D0002A610133072BE6D92E602388FF2B1ED913
:1003E0006E68002318E003F1080101228A40218889
:1003F00032EA01010FD199000F278F4026EA070644
:1004000000FA01F10E43E178282900D16A61E17810
:10041000482900D12A610133072BE4D96E60F8BD69
:10042000000801401038000810B50446012804D91E
:1004300040F2DB21024800F083F8024B1C6010BD43
:1004400044380008D800424238B504460D460E4BE9
:10045000034003B920B940F24A410C4800F070F85B
:10046000012D04D940F24B41084800F069F825B14C
:10047000074A93691C43946138BD054A936923EA8E
:100480000404946138BD00BF0200C0FF4438000876
:100490000010024038B504460D460E4B184200D1FC
:1004A00020B940F269410C4800F04AF8012D04D906
:1004B00040F26A41084800F043F825B1074AD36981
:1004C0001C43D46138BD054AD36923EA0404D461CE
:1004D00038BD00BF003601814438000800100240DA
:1004E000FEE700BF08B50120FFF7FAFF08B50D4B86
:1004F0001B6813B90C4A0B4B1A600A4B1A68C31CD1
:1005000023F00303134409498B4206D900F0C0FFCE
:100510000C2303604FF0FF3008BD02490B6010460A
:1005200008BD00BF1002002024030020004C002062
:1005300001230360014B0B60704700BF04000020E3
:1005400008B5FFF7CFFF00BF08B500F073F8024B06
:10055000024A9A6008BD00BF00ED00E000000008FC
:1005600008B500F08FF808BD82B000230193009316
:100570002C4A136843F4803313602A4B1B6803F43E
:1005800000330093019B01330193009B1BB9019B36
:10059000B3F5A06FF1D1234B1B6813F4003F02D0D9
:1005A0000123009301E000230093009B012B36D12F
:1005B0001D4B1A6842F010021A601A6822F00302FA
:1005C0001A601A6842F002021A60A3F580535A6852
:1005D0005A605A685A605A6842F480625A605A688F
:1005E00022F47C125A605A6842F4E8125A601A687F
:1005F00042F080721A600B4B1B6813F0007FFAD038
:10060000084B5A6822F003025A605A6842F002020C
:100610005A60044B5B6803F00C03082BF9D102B05D
:10062000704700BF001002400020024008B5FFF7ED
:100630009BFF08BD08B5104B1A6842F001021A6012
:1006400059680E4A0A405A601A6822F0847222F4ED
:1006500080321A601A6822F480221A605A6822F4E2
:10066000FE025A604FF41F029A60FFF7DFFF4FF05F
:100670000062034B9A6008BD001002400000FFF8C2
:1006800000ED00E01F4B5B6803F00C03042B06D069
:10069000082B08D03BBB1C4A1C4B1A6026E01A4AA8
:1006A0001A4B1A6022E0174A53685268C3F3834317
:1006B000023312F4803F05D1154A02FB03F3134ABB
:1006C000136013E00F4A526812F4003F05D0104A3D
:1006D00002FB03F30D4A136008E00B4A02FB03F32D
:1006E0000A4A136002E0084A084B1A60054B5B682F
:1006F000C3F30313074AD35CDAB204490B68D3404F
:100700000B6070470010024000127A001C000020AD
:1007100000093D000C00002000230D4A13600D4A23
:1007200013600D4A13700D4B1B680D4AA2FB032387
:100730009B09013BB3F1807F09D20A4A5360F02143
:10074000094B83F82310002393600723136070473D
:10075000180200201C020020080300201C000020BA
:10076000D34D621010E000E000ED00E0034B186094
:10077000024B1B68002BFBD1704700BF1C020020FE
:10078000704700BF08B50E4B1B681BB10C4A1368BD
:10079000013B13600B4B1B7813F0FF0F04D0094A89
:1007A0001378013BDBB21370074B1B683BB1064B60
:1007B0001A68013A1A601B680BB9FFF7E1FF08BD20
:1007C0001C020020080300201802002010B411F0C1
:1007D000020F14D0C90001F00801C9B2134CA38B59
:1007E0009AB270238B4022EA0303A383A38B9BB2AC
:1007F0000431884043EA000189B2A18313E0C900B3
:1008000001F00801C9B2094C238B9AB270238B40C6
:1008100022EA03032383238B9BB2043100FA01F104
:10082000194389B2218310BC704700BF0008004003
:1008300010B578B10F4C0023A38402210620FFF7E6
:10084000C5FF23889BB243F00103238001220A4B9A
:100850001A7010BD02210420FFF7B8FF054A138863
:100860009BB223F001039BB213800022024B1A704B
:1008700010BD00BF00080040C502002050B10B4A67
:1008800013780133DBB21370502B0DD10022074BCC
:100890001A707047064A13780133DBB21370502B7D
:1008A00002D10022024B1A70704700BF20020020C4
:1008B000C402002010B5124B1C78124830F81420E6
:1008C000C2F30322104B33F81210104B998503F535
:1008D0008233D96801F47D41D960D96810F81400D9
:1008E0000143D960DB680AB1002201E04FF40072D5
:1008F0001343074AD3600020FFF7C0FF10BD00BFBD
:10090000C4020020240200204839000800080040EA
:10091000000C014008B5084B1A78084B23F8120068
:100920000120FFF7ABFF064B1B7823B9FFF7C2FF8F
:100930000120FFF77DFF08BD2002002024020020D7
:10094000C502002010B5044602E00134FFF7E2FFC3
:1009500094F900000028F8D110BD00BF08B5431E6F
:10096000022B01D8012300E00223094A127840EA51
:100970000320084B23F812000120FFF77FFF064BEE
:100980001B7823B9FFF796FF0120FFF751FF08BD41
:100990002002002024020020C502002038B51E4B92
:1009A0004FF011321A605A6822F0FF025A605A68FA
:1009B00042F019025A60194AD36943F00403D36123
:1009C000174D0024AC840123AB8111232B85122306
:1009D000AB850A23AB8702210420FFF7F7FE2B8C9F
:1009E0009BB243F480732B840E4B1C700E4B1C7017
:1009F0000E4B1C704FF080420D4B1A6009E00D4BFE
:100A000033F8145068B2FFF7A9FF280AFFF7AEFECB
:100A10000134072CF3DD38BD000C0140001002400A
:100A200000080040C5020020C4020020200200206F
:100A300000E100E03839000808B50C4B1B8A13F0C0
:100A4000010F12D0094A138A9BB223F001039BB213
:100A50001382074B1A78074B1B789A4202D0FFF794
:100A600029FF08BD0020FFF7E3FE08BD0008004095
:100A700020020020C40200202DE9F04182B0284A63
:100A8000936943F01C03936101210846FFF7DCFCE6
:100A90000020FFF7C9FC01214FF40000FFF7FAFC2A
:100AA000204E736843F0007373604FF4A060FFF74B
:100AB00007FC1D4CC02384F80633D02384F8073389
:100AC000802784F814734FF0400884F81383902330
:100AD00084F81E3318238DF807304FF4C053ADF857
:100AE000043003258DF8065001A91048FFF708FCD3
:100AF0000F4B1A6822F0FF021A601A6842F088024F
:100B00001A60DD602223B3600A4B1D60DD60C4F80B
:100B1000008027600022084B1A7002B0BDE8F08107
:100B2000001002400000014000E100E00008014028
:100B3000001001400004014009030020024B187816
:100B400000221A70704700BF09030020074A53694A
:100B500043F002035361064B1B782BB93122054B3E
:100B60001A706422024B1A70704700BF00040140E3
:100B70000803002009030020074A536943F00103DA
:100B80005361064B1B782BB93022054B1A70642237
:100B9000024B1A70704700BF000401400803002098
:100BA0000903002008B5FFF7B7FDFFF765FF4FF415
:100BB000FA60FFF7DBFD00F035F8FFF7EFFE0848BD
:100BC000FFF7C0FEFFF7BAFF30B14820FFF7A2FEE3
:100BD0001021044800F0BEF96420FFF7C7FDF1E7DB
:100BE00050390008903900080B4B5B6913F4006F13
:100BF00004D0094A536943F400635361074B9B686F
:100C000013F4006F03D02022054B1A6170474FF494
:100C10000012034B1A6170470004014000100140AC
:100C20000008014000220B4B1A804FF480110A4B40
:100C300019600A4B1A65DA644FF4806119645A64CA
:100C400002F1804202F58832136843F000531360CA
:100C5000704700BF0C03002000E100E0005C004092
:100C600010B40001034B1C6821521B681844828099
:100C700010BC704720000020024B1B6803EB0010E3
:100C800081807047200000200001024B1B68185A29
:100C9000704700BF20000020034B1B6803EB0010CF
:100CA00001818281704700BF20000020024B1B6839
:100CB00003EB00100089704720000020034B1B68E5
:100CC00003EB00108089C0F309007047200000206A
:100CD000074A52F8203023F0F003DB05DB0D1943FF
:100CE00041F4004141F0800142F82010704700BFFC
:100CF000005C0040064A52F8203023F0F0035B0508
:100D00005B0D43F4004343F0C00342F820307047CA
:100D1000005C0040084A52F8203023F0C0035B0515
:100D20005B0D83EA011189B241F4004141F0800179
:100D300042F82010704700BF005C0040084A52F89B
:100D4000203023F40F639B049B0C83EA013109B22A
:100D500089B241F4004141F0800142F8201070470F
:100D6000005C0040044A52F8203023F070035B0519
:100D70005B0D42F820307047005C0040054A52F895
:100D8000203023F4F14323F070031B041B0C42F8C2
:100D900020307047005C004070B41AE011F0010F81
:100DA0000DD006784D080E4A146834F8252042EA22
:100DB000062224F82520013189B2013008E04C08D0
:100DC000074A1268057822F82450013189B20130AF
:100DD0001A46531E9BB2002AE0D170BC704700BF78
:100DE0002400002030B414E0451C11F0010F06D09F
:100DF0004B080B4A126832F823301B0A04E04B08F8
:100E0000074A126812F823300370013189B2224672
:100E10002846531E9CB2002AE6D130BC704700BF62
:100E20002400002008B5102220210020FFF718FF21
:100E30004FF4805230210020FFF72EFF402238214E
:100E40000120FFF70DFF082278210220FFF708FF9D
:100E50004FF4805280210320FFF71EFF08BD00BF22
:100E600038B5FFF7DFFF00230DE0114931F82320EB
:100E700022F4786222F00F025204520C1A4341F815
:100E800023200133DBB2072BEFD9094C0025656421
:100E9000236C43F4064323644FF400712846FFF7A4
:100EA00017FF03212846FFF749FF8023E36438BD7D
:100EB000005C004008B51D4B5B6C13F4004F02D082
:100EC00000F098FA08BD13F4804F06D06FF480420A
:100ED000164B5A6400F054F808BD13F4005F06D0B6
:100EE00000F050F86FF40052104B5A6408BD13F430
:100EF000806F06D06FF480620C4B5A6400F044F8A7
:100F000008BD13F4007F06D06FF40072074B5A64DB
:100F100000F054F808BD13F4807F05D06FF48072A0
:100F2000024B5A6400F04CF808BD00BF005C004062
:100F3000074B5B6C9AB213F4004F08D002F00F021B
:100F4000034951F8223003F03F0341F82230704743
:100F5000005C004038B505460C460120FFF794FEC2
:100F6000A4B2224601462846FFF716FF214601207B
:100F7000FFF782FE03210120FFF7CCFE38BD00BF42
:100F8000704700BF704700BF08B5FFF769FF002337
:100F9000054A1380054A1380054A1370054A1381D8
:100FA000054A138108BD00BFF2020020F0020020B4
:100FB000F8020020C8020020D4020020704700BFC1
:100FC000704700BF08B500210846FFF755FE074BE4
:100FD0001B6813F0400F02D10020FFF78BFE0323A4
:100FE000034A1380034A138008BD00BF005C004021
:100FF000F6020020F402002070B506460D4BDD8895
:101000002C46082D28BF08240020FFF73DFE22466D
:1010100001463046FFF7C0FE2644074B5E602D1B9D
:101020001D8121460020FFF727FE0322034B1A8073
:1010300070BD00BF18030020D4020020F60200207B
:1010400008B50020044B18810146FFF715FE032266
:10105000024B1A8008BD00BFD4020020F602002017
:1010600008B50D4B5B88180A022807D0032809D061
:1010700001280ED10948FFF7BFFF08BD0848FFF758
:10108000BBFF08BDDBB2074A52F82300FFF7B4FFED
:1010900008BDFFF7D5FF08BD18030020243900085C
:1010A000C83800082800002030B583B0012402AD04
:1010B00005F8014D0020FFF7E7FD224601462846CE
:1010C000FFF76AFE21460020FFF7D6FD0022034B02
:1010D0001A810322024B1A8003B030BDD4020020D3
:1010E000F602002010B582B002AC012324F8023DC4
:1010F0000020FFF7C9FD022201462046FFF74CFE03
:1011000002210020FFF7B8FD0022034B1A810322C1
:10111000024B1A8002B010BDD4020020F60200205B
:1011200008B50020044B18810146FFF7A5FD0322F6
:10113000024B1A8008BD00BFD4020020F602002036
:1011400010B5604B5B78222B00F2AF80DFE803F034
:10115000121AADADAD4672AD7A82ADADADADADADED
:10116000ADADADADADADADADADADADADADADADADAF
:101170008A96AA00544A138843F001031380FFF7AC
:10118000B1FF10BD4F4B9888002800F09A8082284C
:1011900007D14FF4C0610220FFF79AFDFFF712FF5D
:1011A00010BD002100F00F00FFF792FD454B9B881A
:1011B00003F080039BB253B100210120FFF75CFDD7
:1011C00002210120FFF7A6FDFFF7FCFE10BD032161
:1011D0000846FFF7B3FDFFF7F5FE10BD3A4A138846
:1011E00043F008031380374B5A88384B1A8000218C
:1011F0000846FFF741FD00210120FFF769FD4FF48C
:10120000C0610220FFF764FD00210320FFF760FDAD
:1012100002210120FFF77EFD00210220FFF77AFD69
:1012200003210846FFF78AFD0323294A1380294A30
:10123000138010BD244A138843F010031380FFF776
:101240000FFF10BD204A138843F040031380FFF7BF
:101250002BFF10BD1C4A138843F080031380FFF757
:101260005FFF10BD1C4B20221A701C4A5A60154AA1
:10127000D2881A810322174B1A8010BD0020FFF775
:1012800003FD104CE28801461448FFF785FD144B1E
:10129000002058601881E188FFF7EEFC03220C4B18
:1012A0001A8010BDFFF78EFE10BD064BDB8843B9D8
:1012B00000200B4B18810146FFF7DEFC0322044B94
:1012C0001A8010BD18030020F2020020F002002056
:1012D000F6020020F4020020C802002010030020C3
:1012E000D4020020F8B53B4B5B6C13F0100F35D0E7
:1012F0000020FFF737FD374B1B6813F4006F0ED04B
:101300000020FFF7D3FC04460020FFF7D7FC02467D
:1013100021463148FFF766FDFFF712FFF8BD0020B8
:10132000FFF7CCFC38B903222C4B1A802C4B00223F
:101330005A601A81F8BD2A4B1B78202B0BD1002054
:10134000FFF7B4FC264C228901462648FFF74AFDE8
:10135000002323702381FFF735FEF8BD0020FFF73F
:101360000DFD214B1B89EBB1082B01D8DCB200E04D
:1013700008241D4D6F680020FFF786FCA6B2324698
:1013800001463846FFF708FD6B6823446B602B89E4
:101390009B1B2B8131460020FFF76EFC0322134B71
:1013A0001A80F8BD124B1B8843B10A4AD26C12F066
:1013B0007F0F03D143F08003064AD364002108461F
:1013C000FFF75AFC0222094B1A800322034B1A80B2
:1013D000F8BD00BF005C004018030020F4020020AC
:1013E000C802002010030020D4020020F6020020D2
:1013F000F002002038B5214BB3F8443003F00F035E
:10140000012B19D013B1032B1AD032E01B4A1368F9
:101410001B4DC3F301332B8013681A4CC3F3011324
:101420002380FFF75FFF29880020FFF787FC2188D2
:101430000020FFF76FFC38BD0120FFF79FFC38BD8F
:101440000320FFF78FFC0320FFF730FC0446032046
:10145000FFF734FC024621460B48FFF7C3FC03208C
:10146000FFF72CFC094B187003210846FFF766FCB8
:1014700038BD0320FFF776FC38BD00BF005C00409C
:10148000F4020020F6020020E0020020F802002012
:10149000014B1868704700BF980000202DE9F04705
:1014A00088B0149F002B1E461299B8BF03F1004369
:1014B00027F02007B6BF1E4600232D23462F1446D3
:1014C000109DDDF84CA00B7003D0452F03D10135E2
:1014D00001E0032300E0022307AA049206AA039274
:1014E0008DE828042246334600F0BAFB472F804699
:1014F00002D1119BDB0728D5462F08EB050911D136
:1015000098F80030302B0AD10022002320463146C3
:1015100002F0FAF818B9C5F10105CAF80050DAF876
:1015200000309944002200232046314602F0ECF8B6
:1015300008B9302202E0CDF81C9006E0079B9945DF
:1015400003D9591C07911A70F8E74046079B159A72
:10155000C8EB0303136008B0BDE8F087034673B51A
:101560000029B8BF494203F8022BB4BF2D222B2219
:10157000092942701ADD0DF1070216460A2591FB72
:10158000F5F405FB1411092C01F1300102F8011DDD
:101590002146F4DC3031541E02F8011CB4421A46D4
:1015A0000AD214F8012B03F8012BF7E71A4630246E
:1015B000214402F8024B5970101A02B070BD0000AD
:1015C0002DE9F04F91B00C46DDF8688016461F46B5
:1015D000054601F0DDF803681846099300F0AAFA01
:1015E00000230E93D8F800300A90073323F0070346
:1015F00003F1080294F81890D4F800B0C8F800205D
:10160000D3E90023C4E91223D4F84CA0D4F84880CD
:101610002AF000430B934FF0FF32A74B40460B9943
:1016200002F0A4F8A0B94FF0FF32A34B40460B994B
:1016300002F07EF860B9002200234046514602F0D5
:101640006DF810B12D2384F843309C4B9C4A0AE07E
:10165000424653464046514602F088F8002800F0C2
:101660009281984B984AB9F1470F8CBF90469846A3
:10167000032323612BF0040323604FF0000A3DE0B5
:10168000B9F1670F00F08A81B9F1470F00F0868148
:1016900023600193636800210DF1330205900292EB
:1016A0000093424653460691CDF81090CDF80CE0D9
:1016B0002846FFF7F3FE09F0DF03472B804600F0D2
:1016C0008481B9F1650F0D9900F28D8101394A4687
:1016D00004F150000D91FFF741FF0E9A82468318E6
:1016E000012A236100F37C812268D10700F178810F
:1016F0009DF8333013B12D2384F8433000973346DF
:101700000FAA2146284600F09FF9013002D14FF080
:10171000FF3096E123685A0501D4236965E0B9F1E9
:10172000650F40F2D580D4E912010022002301F0B8
:10173000EBFF78B30123654A31462846B8470130AC
:10174000E5D00E9B0D9A9A420BDB2368D80708D48C
:1017500023689B0740F111814FF0000804F119093B
:1017600006E10A9B099A31462846B8470130CED097
:101770004FF0000804F11A090E9B013B9845E7DA87
:1017800001234A4631462846B8470130BFD008F108
:101790000108F1E70D9B002B29DC01234B4A314660
:1017A0002846B8470130B2D00D9B23B90E9B13B920
:1017B0002368D907CCD50A9B099A31462846B847F1
:1017C0000130A4D04FF0000904F11A0A0D9B5B42CE
:1017D000994509DA0123524631462846B847013077
:1017E00095D009F10109F1E70E9B4246A7E00E9A58
:1017F000A36D9A42A8BF1A46002A914606DC4FF014
:10180000000A29EAE97904F11A0B11E0134631467E
:1018100042462846B8470130F1D178E701235A46BD
:1018200031462846B84701303FF471AF0AF1010A4A
:10183000A36DC9EB03029245F0DB08EB03090D9A97
:101840000E9B9A420FDB2368DA070CD40E9B0D9A8D
:101850009844C9EB08089B1A9845A8BF9846B8F168
:10186000000F08DC0FE00A9B099A31462846B8476A
:101870000130EBD14BE743464A4631462846B8474C
:1018800001303FF444AF4FF0000928EAE87804F152
:101890001A0A09E00123524631462846B84701306A
:1018A0003FF435AF09F101090D9A0E9B9B1AC8EB65
:1018B00003039945EEDB4BE7FFFFEF7FA0390008FC
:1018C000A4390008A8390008AC390008B03900086C
:1018D0000E9A012A01DCDB0738D501234246314646
:1018E0002846B84701303FF412AF0A9B099A3146A7
:1018F0002846B84701303FF40AAFD4E9120100226C
:10190000002301F001FF20B14FF0000804F11A0993
:101910000EE00E9B08F10102013B19E001234A464B
:1019200031462846B84701303FF4F1AE08F10108CE
:101930000E9B013B9845F1DB534604F150023146C2
:101940002846B84701307FF403AFE0E64246012362
:1019500031462846B8470130EED1D8E601234A4641
:1019600031462846B84701303FF4D1AE08F10108AE
:10197000E3680F9A9B1A9845F0DBE0680F9B98424A
:10198000B8BF18465DE062680EA8531C0DF1340E16
:101990004BF480637FF474AE062201E012B9012299
:1019A000626075E6002106910DF133018DE80C00AF
:1019B000236005904246CDF81090CDF80CE00291DE
:1019C00053462846FFF76AFD80460D9BD81C02DB74
:1019D000626893421DDDA9F102095FFA89F970E698
:1019E0000133236184E6B9F1660F14D100296368DD
:1019F00007DD216113B92268D2071DD501330B44DD
:101A000019E013B92268D00701D5023313E001238E
:101A100011E04FF067090D9B0E9A934205DB226897
:101A20002361D10708D5013305E0002BD4BFC3F1F2
:101A300002030123134423610D9B4FF0000AA365A9
:101A400056E611B0BDE8F08F2DE9F04791461F46EC
:101A50000A698B6806469342B8BF1346C9F800303E
:101A600091F843200C46DDF8208012B10133C9F80B
:101A700000302368990642BFD9F800300233C9F814
:101A80000030256815F0060510D104F1190A07E0A9
:101A90000123524639463046C04701301AD001353D
:101AA000E368D9F800209B1A9D42F1DB94F843309B
:101AB0002268003318BF012392060FD5E1183020A9
:101AC00081F843005A1C94F845102244023382F8EE
:101AD000431003E04FF0FF30BDE8F08704F143020C
:101AE00039463046C0470130F4D02268D9F800505A
:101AF000E36802F00602042A08BF5D1B2269A3689E
:101B00000CBF25EAE57500259342C4BF9B1AED186A
:101B10004FF000091A344D4509D0012322463946B9
:101B20003046C0470130D5D009F10109F3E7002064
:101B3000BDE8F087034613F8012B002AFBD1181AE1
:101B4000013870472DE9F74F03690C6980469C42C4
:101B50007FDC013C01F114074FEA840E00F114060A
:101B600006EB0E0357F82450019356F82430013544
:101B7000B3FBF5F507EB0E09C5B34FF0000A384685
:101B8000B446D34650F8043B9AB205FB02A21B0CA4
:101B90004FEA124A05FB03A392B2C2EB0B0BBCF84F
:101BA00000204FEA134A5A441FFA83FBDCF8003046
:101BB0008145CBEB134303EB224392B242EA03424B
:101BC0004FEA234B4CF8042BDCD256F80E306BB99D
:101BD000019B043B9E421A4602D3C8F8104005E020
:101BE0001268043B002AF8D1013CF3E7404600F0BC
:101BF000FCFF00282BDB304601354FF0000E57F874
:101C0000042B036891B2C1EB0E0E120C99B2714411
:101C1000C2EB134303EB214389B24FEA234EB9458C
:101C200041EA034340F8043BE9D256F8242006EB8E
:101C3000840362B9043B9E421A4602D3C8F810409E
:101C400005E01268043B002AF8D1013CF3E728467E
:101C500000E0002003B0BDE8F08F000000000000AD
:101C60002DE9F04F456A95B08246219CCDE90223CB
:101C700045B9102000F09AFDCAF82400456085603F
:101C80000560C560DAF82430196859B15A68012333
:101C900093404A608B60504600F0D0FDDAF8243063
:101CA00000221A60039BA04A002BBDBF01232360C2
:101CB000039B0023BCBF23F000430393DDF80C809B
:101CC000A8BF236028F000431B0D1B0593421DD1C4
:101CD00042F20F73209A1360029B43B9934A944BCC
:101CE000C8F31300002814BF1846104600E09048BF
:101CF000229B002B00F04685C37813B100F1080346
:101D000000E0C31C229A136000F03CBDDDE90245EF
:101D1000002200232046294601F0F6FC074658B170
:101D2000209A01231360229B002B00F01E8581481E
:101D30001860013800F026BD12AB019313AB00937D
:101D400022462B46504600F0CBFFC8F30A560490BB
:101D500056B1C5F3130343F07F51204641F44011BF
:101D6000A6F2FF3611971DE0139B129E1E4406F249
:101D70003243202B0ADD029A06F21240C3F14003DF
:101D800022FA00F008FA03F3184304E0C3F120003C
:101D9000029B03FA00F001F0D9F90123A1F1F871D7
:101DA000013E11930022644B01F092F858A3D3E94D
:101DB000002301F041FA58A3D3E9002301F08AF887
:101DC000044630460D4601F0D1F955A3D3E900236E
:101DD00001F032FA02460B462046294601F07AF815
:101DE00004460D4601F0D8FC00228346002320461D
:101DF000294601F093FC58B1584601F0B7F9024664
:101E00000B462046294601F07FFC08B90BF1FF3B49
:101E1000BBF1160F0DD8DDE90223484901EBCB01D8
:101E2000D1E9000101F098FC30B10BF1FF3B002338
:101E300000E00123109300E01090129B9E1B731E84
:101E4000079343BFC3F10008002307934FF0000836
:101E5000BBF1000F06DB079BCDF82CB05B4407936A
:101E6000002705E00023CBEB0808CBF100070B931C
:101E70001E9B092B28D8052BC4BF043B1E931E9B19
:101E8000C8BF0025A3F10203D8BF0125032B20D82A
:101E9000DFE803F0060E0204012302E0012308E05C
:101EA00000230A931F9B002B1DDD9946059321E01B
:101EB00000230A931F9B0BEB030909F10103012B7C
:101EC0000593B8BF012315E0012500231E930A9551
:101ED00001E001230A934FF0FF390022CDF814905E
:101EE00012231F9206E04FF001094B46CDF81490E3
:101EF000CDF87C90DAF8244000226260042101F1E0
:101F000014029A421CD86268490001326260F6E706
:101F100061436F63A787D23FB3C8608B288AC63FEF
:101F2000FB799F501344D33F0000F07FB239000883
:101F3000BB390008B13900080000F83FC03900087B
:101F40006168504600F045FCDAF8243020601B68D8
:101F50000693059B0E2B00F25B81002D00F058814B
:101F6000DDE90234BBF1000FCDE90E3430DD9F4ACC
:101F70000BF00F034FEA2B1502EBC303E80618CB57
:101F8000CDE908340CD5DDE90E01994B05F00F05BC
:101F9000D3E9082301F07AFA0324CDE9020100E035
:101FA0000224934E6DB1E90708D5DDE90801D6E9B1
:101FB000002301F041F9CDE9080101346D10083624
:101FC000F0E7DDE90823DDE9020101F05FFA20E036
:101FD000CBF1000505B3DDE90E01844B05F00F02DE
:101FE00003EBC203D3E9002301F026F9CDE9020196
:101FF0007F4E2D110023022455B1EA0705D5D6E9FD
:10200000002301F019F9013401236D100836F3E7BC
:102010001BB1CDE9020100E00224109BE3B1DDE930
:1020200002560022734B2846314601F077FB98B1E7
:10203000059B8BB1B9F1000F40F3E6800BF1FF3344
:102040000893314600226C4B284601F0F5F8013424
:10205000CDE902014E4602E0059ECDF820B02046B3
:1020600001F084F8DDE9022301F0E6F8634B002279
:1020700000F030FFA1F1507304460C931D46D6B911
:10208000DDE9020100225E4B00F022FF22460C9B9C
:10209000CDE9020101F060FB002840F03F820C997D
:1020A000224601F10043DDE9020101F037FB00287F
:1020B00040F02B82A8E00A9A4C4B711E002A49D0AE
:1020C00003EBC103D3E9002300204E4901F0DEF900
:1020D00022462B4600F0FCFECDE90C01069CDDE912
:1020E000020101F059FB054601F040F802460B469B
:1020F000DDE9020100F0ECFEDDE90C23303504F8E7
:10210000015BCDE9020101F009FB002840F01D83CD
:10211000DDE902230020374900F0DAFEDDE90C2377
:1021200001F0FCFA002840F0D180069BE31AB3428C
:102130006ADADDE90C0100222F4B01F07DF8002264
:10214000CDE90C01DDE902012B4B01F075F8CDE979
:102150000201C4E703EBC1012246D1E900012B468D
:1021600001F06AF8069BCDE90C011D469C19DDE9DA
:10217000020101F011FB064600F0F8FF02460B4693
:10218000DDE9020100F0A4FE303605F8016BAC4237
:10219000CDE902014FF0000222D11A4BDDE90C011A
:1021A00000F098FE02460B46DDE9020101F0D4FA88
:1021B000002840F08B80DDE90C230020114900F05D
:1021C00087FE02460B46DDE9020101F0A7FAD8B10D
:1021D00014F8013C621E302B40F0B7821446F7E73A
:1021E000054B01F029F8CDE90201C0E7C03900082C
:1021F000883A00080000F03F0000244000001C4026
:10220000000014400000E03FDDE90E34CDE9023467
:10221000139B002B7CDBBBF10E0F79DCAB4B03EB8C
:10222000CB03D3E900671F9B002B14DA059B002B1F
:1022300011DC40F06C810022A54B3046394600F09D
:10224000FBFFDDE9022301F07DFA059D2E46002803
:1022500040F05F8165E1069CDDE9028932463B463C
:102260004046494601F012F901F096FA054600F0A1
:102270007DFF32463B4600F0DFFF0B4602464946F3
:10228000404600F025FE05F1300E069B04F801EBF8
:10229000C3EB040E059B73452DD102460B4600F09F
:1022A00019FE8046894602460B463046394601F003
:1022B00035FA78B942464B463046394601F024FAA1
:1022C000002800F04482EB0704D440E2DDF820B09F
:1022D00000E01C4614F8012C631E392A07D1069A27
:1022E0009A42F6D1069930220BF1010B0A701A7846
:1022F00001321A702BE20022764B00F09DFF002283
:1023000000238046894601F0FFF90028A6D01EE28E
:102310000A9A002A2BD01E9A012A0ADC119A12B1BD
:1023200003F2334302E0129BC3F136033D464446B9
:1023300013E0059B5D1EAF42BFBF0B9BEA1B9B18C2
:102340000B93059BB6BF2F467D1B0025002BA7BF17
:102350004446059BC3EB08040023079A01211A4455
:1023600050469844079200F008FB064602E03D46BE
:1023700044460A9E5CB1079B002B08DDA342A8BF20
:102380002346079AC3EB0808E41AD31A0793002FD1
:102390001DDD0A9BABB18DB131462A46504600F097
:1023A00085FB049A01460646504600F0EFFA049970
:1023B0000890504600F042FA089B04937A1B06D01E
:1023C00000E03A460499504600F070FB0490012169
:1023D000504600F0D2FA0B9B05465BB31A46014605
:1023E000504600F063FB1E9B0546012B18DC029B48
:1023F00083B9039BC3F3130373B9039B23F0004713
:102400003F0D3F054FB1079B08F1010801330793CA
:10241000012702E0002700E0029F0B9B73B100E060
:1024200000272B6905EB8303186900F059FAC0F106
:10243000200004E01E9B012BD9DD0B9F0120079B90
:10244000184410F01F0008D0C0F12003042B02DD57
:10245000C0F11C0002E006D018461C30079B8044E7
:10246000034404440793B8F1000F05DD4246049984
:10247000504600F069FB0490079B002B05DD2946C0
:102480001A46504600F060FB0546109B23B32946D0
:10249000049800F0AAFB00281EDA00230A220499FF
:1024A000504600F0E2F90A9B0BF1FF3B0490002B31
:1024B00000F05F81314600230A22504600F0D5F932
:1024C000B9F1000F06463FDC3BE000BFC039000811
:1024D0000000144000002440059B002B2BDC1E9BB9
:1024E000022B28DDDDF81490B9F1000F11D1294637
:1024F0004B460522504600F0B8F9014605460498BF
:1025000000F073FB00280CDC03E0354600E00025FA
:102510002E461F9B069C6FEA030B09E03546DDF84B
:1025200020B0069B069A5C1C312313700BF1010B43
:1025300005960026F7E00A9BDDF8149023B9069C67
:10254000B2E01E9B022BCFDC002C05DD314622467B
:10255000504600F0F9FA06469FB17168504600F007
:1025600038F90446326906F10C01023292000C304F
:1025700000F024F901222146504600F0E5FA0590CA
:1025800000E00596029B069F03F00103079329468E
:102590000498FFF7D7FA3146044600F13008049852
:1025A00000F023FB059A02902946504600F039FBC3
:1025B000C36802463BB901460A90049800F015FB37
:1025C0000A9A034600E00123114650460A9300F0A0
:1025D00035F90A9B53B91E9A42B9079A32B9B8F134
:1025E000390F2AD0029B002B1CDC1DE0029A002A26
:1025F00004DB1BD11E9ACAB9079ABAB9002B13DDA6
:1026000001220499504600F09FFA2946049000F0F8
:10261000ECFA002803DC07D118F0010F04D0B8F160
:10262000390F0AD004F131087C1C0CE0002B07F1B3
:1026300001040BDDB8F1390F03D139233B700137A9
:1026400056E008F1010887F800806CE0069B2746F9
:10265000E31A4B4504F8018C3BD000230A2204996D
:10266000504600F002F9059B04909E424FF00A028A
:102670004FF000033146504604D100F0F6F806460C
:10268000059084E700F0F1F8002306460A22059938
:10269000504600F0EAF8059079E700230A220499F1
:1026A000504600F0E2F8049029460498FFF74AFAF1
:1026B000069B00F1300804F8018BE31A4B45ECDB74
:1026C000069B0596B9F1010FACBF4B4401331F4681
:1026D000002601220499504600F036FA294604905B
:1026E00000F083FA002803DC15D118F0010F12D096
:1026F0003C4614F8013C621E392B09D1069B9342DB
:1027000004D10BF1010B3123069A02E01446F0E7E5
:102710000133137007E03C4614F8013C621E302B75
:1027200001D11446F8E72946504600F087F8059B8A
:102730006BB12EB19E4203D03146504600F07EF878
:102740000599504600F07AF801E0DDF820B00499D0
:10275000504600F073F80023209A23700BF1010318
:102760001360229B1BB11C6001E008480AE0069838
:1027700008E0B9F1000F3FF7E2AE1E9B022B7FF796
:10278000DEAEB1E615B0BDE8F08F00BFB03900088D
:10279000044B1B68186A044B002808BF1846F03029
:1027A000704700BF980000209C000020024B0146AB
:1027B000186800F0F1BA00BF9800002010B5431E61
:1027C0000A44914204D011F8014B03F8014FF8E795
:1027D00010BD70B5456A04460E463DB91020FFF79E
:1027E000E5FF6062456085600560C560656AEB680D
:1027F00043B1636ADB6853F8260078B1026843F896
:10280000262017E021220421204600F0B7FA636A4F
:10281000E860DB68002BECD1002070BD012101FADB
:1028200006F56A1D9200204600F0A8FA0028F3D0B1
:102830004660856000230361C36070BD70B5446A63
:1028400006460D463CB91020FFF7B0FF70624460A9
:1028500084600460C4603DB1736A6A68DB6853F8E1
:102860002210296043F8225070BD2DE9F041064640
:102870000C460D691F4601F1140E0023DEF800001E
:10288000013381B202FB0171000C0F0C02FB0070DE
:1028900089B201EB00419D424FEA10474EF8041BFC
:1028A000ECDCD7B1A3689D4212DB61683046013190
:1028B000FFF78FFF8046226904F10C01023292007B
:1028C0000C30FFF77BFF21463046FFF7B7FF444649
:1028D00004EB850301355F6125612046BDE8F08189
:1028E000030C1B0413B90004102300E0002310F0B4
:1028F0007F4F04BF0002083310F0704F04BF000187
:10290000043310F0404F04BF80000233002803DB83
:10291000420003D5581C7047184670472020704766
:10292000036813F007020BD0D90722D49A074BBFD4
:102930005B089B08036003604CBF012002207047C6
:1029400099B209B91B0C102213F0FF0F04BF1B0A28
:102950000832190704BF1B090432990704BF9B08FA
:102960000232D90702D45B0805D001320360104659
:102970007047002070472020704710B50C46012199
:10298000FFF727FF01224461026110BD2DE9F74FD7
:1029900014460A69236988469A42BEBF0B46A04680
:1029A0001C46D8F81070D4F81090D8F80830D8F831
:1029B000041007EB09069E42C8BF0131FFF709FF6B
:1029C00000F114052B4605EB860C0022634502D26C
:1029D00043F8042BFAE704F1140208F1140102EBA6
:1029E000890301EB87070093009B0192934257D91B
:1029F000B2F800B0BBF1000F23D08946AE464FF0CD
:102A0000000859F8044BBEF800A0A3B20BFB03A3C7
:102A10004FEA144ADEF8004043444FEA14480BFBE7
:102A20000A84F24604EB13449BB243EA04434F4545
:102A30004FEA14484AF8043B01D9D646E1E7CEF8FC
:102A40000480019B0432B3F802A0BAF1000F21D038
:102A50002C4689462B684FF00008B9F800E0B4F81E
:102A600002B09BB20AFB0EBEA346F04443EA084301
:102A70004BF8043B59F8043BB4F804E01B0C0AFB88
:102A800003E34F4503EB18434FEA134801D95C4673
:102A9000E3E763600435A7E75CF8043D13B9013E42
:102AA000002EF9DC066103B0BDE8F08F2DE9F84394
:102AB000154612F0030206460F4607D0214C013A94
:102AC000002354F82220FFF7D0FE0746AD1036D081
:102AD000746A3CB91020FFF769FE7062446084603C
:102AE0000460C460D6F82480D8F808404CB940F29D
:102AF00071213046FFF741FF04460023C8F8080063
:102B000003604FF00008EB070AD5394622463046ED
:102B1000FFF73CFF814639463046FFF78FFE4F46B0
:102B20006D100CD0206808B10446ECE7224621461F
:102B30003046FFF72BFF2060C0F80080F4E73846EE
:102B4000BDE8F883B03A00082DE9F0470C46074687
:102B5000914626694FEA621A56444968A368751C73
:102B6000AB4202DA01315B00FAE73846FFF731FE8B
:102B7000002380461A4600F11401534503DA41F858
:102B800023200133F9E72AEAEA73206901EB830382
:102B900019F01F0904F1140101EB800E14D0C9F1E2
:102BA000200C002208689A4600FA09F0024343F814
:102BB000042B51F8042B8E4522FA0CF2F2D8CAF8F5
:102BC000042042B1B51C06E0043B51F8042B8E45AD
:102BD00043F8042FF9D8013D3846C8F81050214673
:102BE000FFF72CFE4046BDE8F08703690A6910B57F
:102BF0009B1A11D192001430143183180A4453F8EF
:102C0000044D52F8041D8C4202D007D3012010BDA0
:102C10009842F4D3002010BD184610BD4FF0FF308D
:102C200010BD2DE9F8430C460746114620461546CF
:102C3000FFF7DBFF061E08D131463846FFF7C9FD16
:102C4000012303614661BDE8F883BCBF23462C46DF
:102C500038466168BABF1D4601260026FFF7B9FD58
:102C60002B69C660266905F1140904F1140101EB12
:102C7000860709EB830800F114054FF0000C51F8AA
:102C8000042B59F8044B93B29C44A3B2240CC3EB1D
:102C90000C03C4EB124202EB23429BB24FEA224CDC
:102CA000C84543EA02428E4645F8042BE7D8BE45A4
:102CB0000ED25EF8041B8AB26244131403EB114374
:102CC00092B242EA03424FEA234C45F8042BEEE766
:102CD00055F8043D0BB9013EFAE70661BDE8F883FB
:102CE0002DE9F3411C4601219046089E099DFFF7FE
:102CF00070FDC4F31302C4F30A5407460CB142F446
:102D000080120192B8F1000F19D002A840F8088D86
:102D1000FFF706FE009B48B1019AC0F1200102FABC
:102D200001F10B43C2407B61019200E07B61019B9A
:102D3000002B14BF02210121BB61396107E001A80A
:102D4000FFF7EEFD019B01217B613961203034B139
:102D5000A4F2334404443460C0F1350009E0A0F229
:102D6000324007EB810330601869FFF7B9FDC0EB13
:102D700041102860384602B0BDE8F08138B502FB4A
:102D800001F4214600F008F8054618B1224600215A
:102D900000F082F8284638BD70B5CD1C25F003053B
:102DA00008350C2D38BF0C25002D064601DBA94245
:102DB00002D90C23336046E000F076F8234B1C6800
:102DC0001A462146A1B10B685B1B0ED40B2B03D90D
:102DD0000B60CC18CD501EE08C420BBF63684B6873
:102DE0001360636018BF0C4615E00C464968E9E7BC
:102DF000174C23681BB9304600F02CF82060294698
:102E0000304600F027F8431C18D0C41C24F00304FB
:102E1000A0420DD12560304600F047F804F10B00C8
:102E2000231D20F00700C31A0ED05A42E25070BD95
:102E3000211A304600F00EF80130EBD10C2333603C
:102E4000304600F032F8002070BD00BF00030020C3
:102E5000FC02002038B5064C0023054608462360D6
:102E6000FDF744FB431C02D1236803B12B6038BD3E
:102E70000403002082B001B901A93AB143B113782B
:102E80000B601278101C18BF012003E0104601E00F
:102E90006FF0010002B0704703460244934202D033
:102EA00003F8011BFAE770477047704749B1FF2AE2
:102EB00085BF8A2303600A704FF0FF3098BF01205E
:102EC000704708467047000081F0004102E000BFF3
:102ED00083F0004330B54FEA41044FEA430594EADA
:102EE000050F08BF90EA020F1FBF54EA000C55EA15
:102EF000020C7FEA645C7FEA655C00F0E2804FEAE6
:102F00005454D4EB5555B8BF6D420CDD2C4480EAC7
:102F1000020281EA030382EA000083EA010180EAF7
:102F2000020281EA0303362D88BF30BD11F0004F45
:102F30004FEA01314FF4801C4CEA113102D040427B
:102F400061EB410113F0004F4FEA03334CEA1333B6
:102F500002D0524263EB430394EA050F00F0A780CE
:102F6000A4F10104D5F1200E0DDB02FA0EFC22FAC9
:102F700005F2801841F1000103FA0EF2801843FABD
:102F800005F359410EE0A5F120050EF1200E012AAE
:102F900003FA0EFC28BF4CF0020C43FA05F3C018EC
:102FA00051EBE37101F0004507D54FF0000EDCF165
:102FB000000C7EEB00006EEB0101B1F5801F1BD30E
:102FC000B1F5001F0CD349085FEA30004FEA3C0C12
:102FD00004F101044FEA445212F5800F80F09A8008
:102FE000BCF1004F08BF5FEA500C50F1000041EB0C
:102FF000045141EA050130BD5FEA4C0C404141EB10
:10300000010111F4801FA4F10104E9D191F0000F36
:1030100004BF01460020B1FA81F308BF2033A3F1B9
:103020000B03B3F120020CDA0C3208DD02F1140CB0
:10303000C2F10C0201FA0CF021FA02F10CE002F1EB
:103040001402D8BFC2F1200C01FA02F120FA0CFCE4
:10305000DCBF41EA0C019040E41AA2BF01EB04512D
:10306000294330BD6FEA04041F3C1CDA0C340EDC2B
:1030700004F11404C4F1200220FA04F001FA02F36E
:1030800040EA030021FA04F345EA030130BDC4F12C
:103090000C04C4F1200220FA02F001FA04F340EA21
:1030A0000300294630BD21FA04F0294630BD94F0D2
:1030B000000F83F4801306BF81F480110134013DB9
:1030C0004EE77FEA645C18BF7FEA655C29D094EA2A
:1030D000050F08BF90EA020F05D054EA000C04BFA8
:1030E0001946104630BD91EA030F1EBF0021002093
:1030F00030BD5FEA545C05D14000494128BF41F032
:10310000004130BD14F580043CBF01F5801130BD95
:1031100001F0004545F0FE4141F470014FF0000020
:1031200030BD7FEA645C1ABF194610467FEA655CD1
:103130001CBF0B46024650EA013406BF52EA033573
:1031400091EA030F41F4002130BD00BF90F0000F61
:1031500004BF0021704730B54FF4806404F132049D
:103160004FF000054FF0000150E700BF90F0000F56
:1031700004BF0021704730B54FF4806404F132047D
:1031800010F0004548BF40424FF000013EE700BF4D
:1031900042004FEAE2014FEA31014FEA02701FBFDD
:1031A00012F07F4393F07F4F81F06051704792F0AF
:1031B000000F14BF93F07F4F704730B54FF4607429
:1031C00001F0004521F0004120E700BF50EA010274
:1031D00008BF704730B54FF000050AE050EA010221
:1031E00008BF704730B511F0004502D5404261EB91
:1031F00041014FF4806404F132045FEA915C3FF4D2
:10320000DCAE4FF003025FEADC0C18BF03325FEA6A
:10321000DC0C18BF033202EBDC02C2F1200300FA1F
:1032200003FC20FA02F001FA03FE40EA0E0021FA44
:1032300002F11444C1E600BF70B54FF0FF0C4CF42E
:10324000E06C1CEA11541DBF1CEA135594EA0C0FE4
:1032500095EA0C0F00F0DEF82C4481EA030621EA1F
:103260004C5123EA4C5350EA013518BF52EA03355A
:1032700041F4801143F4801338D0A0FB02CE4FF00C
:103280000005E1FB02E506F00042E0FB03E54FF03C
:103290000006E1FB03569CF0000F18BF4EF0010E34
:1032A000A4F1FF04B6F5007F64F5407404D25FEA30
:1032B0004E0E6D4146EB060642EAC62141EA5551E3
:1032C0004FEAC52040EA5E504FEACE2EB4F1FD0C25
:1032D00088BFBCF5E06F1ED8BEF1004F08BF5FEAA3
:1032E000500E50F1000041EB045170BD06F0004655
:1032F00046EA010140EA020081EA0301B4EB5C0402
:10330000C2BFD4EB0C0541EA045170BD41F48011F9
:103310004FF0000E013C00F3AB8014F1360FDEBF1E
:10332000002001F0004170BDC4F10004203C35DAFA
:103330000C341BDC04F11404C4F1200500FA05F37D
:1033400020FA04F001FA05F240EA020001F000421E
:1033500021F0004110EBD37021FA04F642EB060194
:103360005EEA430E08BF20EAD37070BDC4F10C04BE
:10337000C4F1200500FA04F320FA05F001FA04F282
:1033800040EA020001F0004110EBD37041F100016E
:103390005EEA430E08BF20EAD37070BDC4F1200579
:1033A00000FA05F24EEA020E20FA04F301FA05F2E1
:1033B00043EA020321FA04F001F0004121FA04F289
:1033C00020EA020000EBD3705EEA430E08BF20EA59
:1033D000D37070BD94F0000F0FD101F00046400093
:1033E00041EB010111F4801F08BF013CF7D041EA15
:1033F000060195F0000F18BF704703F00046520019
:1034000043EB030313F4801F08BF013DF7D043EAE9
:103410000603704794EA0C0F0CEA135518BF95EA9F
:103420000C0F0CD050EA410618BF52EA4306D1D126
:1034300081EA030101F000414FF0000070BD50EA45
:10344000410606BF1046194652EA430619D094EACF
:103450000C0F02D150EA013613D195EA0C0F05D1B9
:1034600052EA03361CBF104619460AD181EA03010D
:1034700001F0004141F0FE4141F470014FF00000C5
:1034800070BD41F0FE4141F4780170BD70B54FF060
:10349000FF0C4CF4E06C1CEA11541DBF1CEA1355E0
:1034A00094EA0C0F95EA0C0F00F0A7F8A4EB0504C2
:1034B00081EA030E52EA03354FEA013100F08880B9
:1034C0004FEA03334FF0805545EA131343EA126382
:1034D0004FEA022245EA111545EA10654FEA002637
:1034E0000EF000419D4208BF964244F1FD0404F5F0
:1034F000407402D25B084FEA3202B61A65EB03054C
:103500005B084FEA32024FF480104FF4002CB6EB08
:10351000020E75EB030E22BFB61A754640EA0C0088
:103520005B084FEA3202B6EB020E75EB030E22BFC8
:10353000B61A754640EA5C005B084FEA3202B6EB09
:10354000020E75EB030E22BFB61A754640EA9C00C8
:103550005B084FEA3202B6EB020E75EB030E22BF98
:10356000B61A754640EADC0055EA060E18D04FEA56
:10357000051545EA16754FEA06164FEAC30343EAF6
:1035800052734FEAC2025FEA1C1CC0D111F4801FC3
:103590000BD141EA00014FF000004FF0004CB6E7BC
:1035A00011F4801F04BF01430020B4F1FD0C88BF5B
:1035B000BCF5E06F3FF6AFAEB5EB030C04BFB6EB66
:1035C000020C5FEA500C50F1000041EB045170BD59
:1035D0000EF0004E4EEA113114EB5C04C2BFD4EB86
:1035E0000C0541EA045170BD41F480114FF0000E0A
:1035F000013C90E645EA060E8DE60CEA135594EA86
:103600000C0F08BF95EA0C0F3FF43BAF94EA0C0F88
:103610000AD150EA01347FF434AF95EA0C0F7FF4FD
:1036200025AF104619462CE795EA0C0F06D152EA51
:1036300003353FF4FDAE1046194622E750EA410635
:1036400018BF52EA43067FF4C5AE50EA41047FF446
:103650000DAF52EA43057FF4EBAE12E74FF0FF3CAB
:1036600006E000BF4FF0010C02E000BF4FF0010C7C
:103670004DF804CD4FEA410C7FEA6C5C4FEA430CF5
:1036800018BF7FEA6C5C1BD001B050EA410C0CBF44
:1036900052EA430C91EA030F02BF90EA020F0020A6
:1036A000704710F1000F91EA030F58BF994208BF0D
:1036B00090422CBFD8176FEAE37040F001007047CA
:1036C0004FEA410C7FEA6C5C02D150EA013C07D121
:1036D0004FEA430C7FEA6C5CD6D152EA033CD3D06C
:1036E0005DF8040B704700BF8446104662468C4666
:1036F0001946634600E000BF01B5FFF7B7FF002899
:1037000048BF10F1000F01BD4DF808EDFFF7F4FFC1
:103710000CBF012000205DF808FB00BF4DF808ED4C
:10372000FFF7EAFF34BF012000205DF808FB00BF6F
:103730004DF808EDFFF7E0FF94BF012000205DF891
:1037400008FB00BF4DF808EDFFF7CEFF94BF012046
:1037500000205DF808FB00BF4DF808EDFFF7C4FF3F
:1037600034BF012000205DF808FB00BF4FEA410C88
:103770007FEA6C5C02D150EA013C0AD14FEA430C6B
:103780007FEA6C5C02D152EA033C02D14FF00000A8
:1037900070474FF0010070474FEA410212F50012E6
:1037A00015D211D56FF47873B3EB625212D94FEA88
:1037B000C12343F0004343EA505311F0004F23FA72
:1037C00002F018BF404270474FF00000704750EAC7
:1037D000013005D111F0004008BF6FF00040704784
:1037E0004FF00000704700BF2E2E2F737973746561
:1037F0006D2F7372632F73746D333266312D737452
:10380000647065726970682F6D6973632E63000060
:103810002E2E2F73797374656D2F7372632F7374EB
:103820006D333266312D7374647065726970682F00
:1038300073746D3332663130785F6770696F2E63F1
:10384000000000002E2E2F73797374656D2F737234
:10385000632F73746D333266312D737464706572C7
:103860006970682F73746D3332663130785F7263BC
:10387000632E6300340355006E0069007600650016
:103880007200730061006C0020005400650073003A
:10389000740069006E00670020004D006100630045
:1038A000680069006E0065001A035300560041006D
:1038B000540053004D003000300030003000310023
:1038C000300000000403090409024300020100C0A3
:1038D0003209040000010202010005240010010564
:1038E00024010001042402020524060001070582C8
:1038F000030800FF09040100020A02000007058115
:1039000002400000070503021000000018035300E6
:1039100056004100480061007200640077006100B9
:10392000720065001201000202000008A0040001FC
:1039300000020102030100003034303430343C0016
:103940000800011406140E14A0006419B40000004D
:1039500048656C6C6F20576F726C64202121212D9B
:1039600048656C6C6F20574F524C44202121212D0B
:1039700048454C4C4F20776F726C64202121212DDB
:1039800048654C6C6F20576F526C442021212100F8
:1039900048656C6C6F20776F726C642121210A007E
:1039A000494E4600696E66004E414E006E616E00E3
:1039B0003000496E66696E697479004E614E000090
:1039C000000000000000F03F000000000000244064
:1039D00000000000000059400000000000408F403F
:1039E000000000000088C34000000000006AF840AA
:1039F0000000000080842E4100000000D0126341CE
:103A00000000000084D797410000000065CDCD4143
:103A1000000000205FA00242000000E87648374224
:103A2000000000A2941A6D42000040E59C30A242C2
:103A30000000901EC4BCD64200003426F56B0C4337
:103A40000080E03779C3414300A0D88557347643DE
:103A500000C84E676DC1AB43003D9160E458E1433F
:103A6000408CB5781DAF154450EFE2D6E41A4B44B4
:103A700092D54D06CFF08044F64AE1C7022DB544F9
:103A8000B49DD9794378EA440080E03779C3414353
:103A9000176E05B5B5B89346F5F93FE9034F384DB4
:103AA000321D30F94877825A3CBF737FDD4F157560
:103AB00005000000190000007D0000004300504F89
:103AC000534958002E0000202020202020202020B4
:103AD00028282828282020202020202020202020BE
:103AE00020202020202020881010101010101010EE
:103AF0001010101010101004040404040404040432
:103B000004101010101010104141414141410101B9
:103B10000101010101010101010101010101010195
:103B200001011010101010104242424242420202A3
:103B30000202020202020202020202020202020265
:103B40000202101010102000000000000000000011
:103B50000000000000000000000000000000000065
:103B60000000000000000000000000000000000055
:103B70000000000000000000000000000000000045
:103B80000000000000000000000000000000000035
:103B90000000000000000000000000000000000025
:103BA0000000000000000000000000000000000015
:103BB0000000000000000000000000000000000005
:073BC00000000000000000FE
:103BC80078563412140200200000000000000000A3
:103BD80000000000010203040607080900A24A04C5
:103BE8000060004000600040C43800080C3900083C
:103BF80074380008A8380008000000000000000021
:103C080000000000000000000000000000000000AC
:103C1800000000000000000000000000000000009C
:103C2800000000000000000000000000000000008C
:103C3800000000000000000000000000000000007C
:103C4800000000000000000000000000000000006C
:103C580000000000000000003800002043000000C1
:103C6800000000000000000000000000000000004C
:103C780000000000000000000000000043000000F9
:103C8800000000000000000000000000000000002C
:103C980000000000000000000000000043000000D9
:103CA800000000000000000000000000000000000C
:103CB80000000000000000000000000043000000B9
:103CC80000000000000000000000000000000000EC
:103CD8000000000000000000000000004300000099
:103CE80000000000000000000000000000000000CC
:103CF8000000000000000000000000004300000079
:103D080000000000000000000000000000000000AB
:103D18000000000000000000000000004300000058
:103D2800000000000000000000000000000000008B
:103D3800000000000000000000000000AD2E000898
:103D4800752E000800000000C63A0008C43A0008B2
:103D5800C53A0008C53A0008C53A0008C53A00083F
:103D6800C53A0008C53A0008C53A0008C53A00082F
:103D7800C53A0008FFFFFFFFFFFFFFFFFFFFFFFF40
:103D8800FFFF0000010041534349490000000000C3
:103D9800000000000000000000000000000000001B
:103DA80000000000000041534349490000000000A2
:103DB80000000000000000000000000000000000FB
:0C3DC8000000000000000000325476985B
:040000050800010DE1
:00000001FF
