:020000040800F2
:1000000000500020CD010008D1010008D3010008F4
:10001000E9010008EB0100080102000800000000EF
:1000200000000000000000000000000017020008AF
:1000300019020008000000001B020008410500082A
:1000400031020008310200083102000831020008C4
:1000500031020008310200083102000831020008B4
:1000600031020008310200083102000831020008A4
:100070003102000831020008310200083102000894
:100080003102000831020008310200081509000899
:10009000A5080008310200083102000831020008FA
:1000A0003102000831020008310200083102000864
:1000B0003102000831020008310200083102000854
:1000C0003102000831020008310200083102000844
:1000D0003102000831020008310200083102000834
:1000E0002506000831020008310200080000000067
:1000F0000000000000000000000000000000000000
:1001000000000000000000005FF808F107B500F0F3
:1001100021F9234A234B24498B4204D252F8040F7D
:1001200043F8040BF8E7214B214A0021934202D205
:1001300043F8041BFAE700F019F901A9684600F03A
:1001400001F91C4B1C4C1E46E41AA4100025AC42BD
:1001500004DD56F8253098470135F8E7174B184C61
:100160001E46E41AA4100025AC4204DD56F82530E2
:1001700098470135F8E79DE8030000F03BFA114B82
:1001800006461D46104CE41AA410002C04DD013C68
:1001900055F824309847F8E7304600F0CFF800BF14
:1001A000300E000800000020340000203400002041
:1001B000740000205C0200085C0200085C02000879
:1001C0005C0200085C0200085C020008144800475A
:1001D000FEE71EF0040F0CBFEFF30880EFF3098079
:1001E0007146104A1047FEE7FEE71EF0040F0CBFF1
:1001F000EFF30880EFF3098071460B4A1047FEE7E2
:100200001EF0040F0CBFEFF30880EFF30980714676
:10021000064A1047FEE7FEE7FEE7FEE770470000EC
:100220000D010008E7010008FF01000815020008A1
:02023000FEE7E7
:10023400340E00080000002034000020340E0008B2
:1002440000000000000000003400002074000020C2
:080254000000000000000000A2
:10025C00CA782DE9F041D40648BF8C780E8802F09C
:10026C000F0348BF234316F0FF0F1ED00168002474
:10027C004FF0010E4FF00F0C0EFA04F737EA06059B
:10028C000FD1A5000CFA05F821EA080103FA05F5CF
:10029C00282A41EA050101D1476102E0482A08BF3A
:1002AC0007610134082CE7D10160FF2E20D9416889
:1002BC0000244FF0010E4FF00F0C04F108050EFA5C
:1002CC0005F535EA06070FD1A7000CFA07F821EA65
:1002DC00080103FA07F7282A41EA070101D1456111
:1002EC0002E0482A08BF05610134082CE5D14160C1
:1002FC00BDE8F081014B1860704700BFD800424246
:10030C00044B9A6909B1104301E022EA000098619C
:10031C00704700BF00100240044BDA6909B110436A
:10032C0001E022EA0000D861704700BF00100240D3
:10033C0008B500F017F8000001230360014B0B60B7
:10034C00704700BF0000002008B500F01DF8024BFC
:10035C00024A9A6008BD00BF00ED00E000000008F2
:10036C0000F08CB8BFF34F8F0549064BCA6802F4F6
:10037C00E0621343CB60BFF34F8F00BFFDE700BFBC
:10038C0000ED00E00400FA05384B82B01A6842F028
:10039C0001021A605968364A0A405A601A6822F0FB
:1003AC00847222F480321A601A6822F480221A6055
:1003BC005A6822F4FE025A604FF41F029A6000221F
:1003CC00009201921A6842F480321A601A6802F4A0
:1003DC0000320192009A01320092019A1AB9009AE5
:1003EC00B2F5A06FF2D11A6812F4003218BF0122D4
:1003FC000192019A012A05D01E4B4FF000629A60BF
:10040C0002B070471C4A116841F01001116011686C
:10041C0021F003011160116841F0020111605A686A
:10042C005A605A685A605A6842F480625A605A6834
:10043C0022F47C125A605A6842F4E8125A601A6824
:10044C0042F080721A601968084A8901FBD551681C
:10045C0021F003015160516841F0020151605A686A
:10046C0002F00C02082AFAD1C6E700BF00100240C5
:10047C000000FFF800ED00E000200240114A124B92
:10048C00516801F00C01042901D0082901D00F4951
:10049C000EE051685068C1F38341C00301F10201C1
:1004AC0002D55068800301D5094800E00748414354
:1004BC00196052680749C2F30312895C1A68CA4072
:1004CC001A607047001002401800002000127A00D9
:1004DC0000093D00080000200C4B002119600C4B5A
:1004EC004FF47A7219600B4B1B68B3FBF2F3013BB0
:1004FC00B3F1807F08D2084AF0205360074B83F891
:10050C002300072391601360704700BF3800002060
:10051C003C0000201800002010E000E000ED00E09E
:10052C00024B18601A68002AFCD170473C0000206E
:10053C007047000008B50C4B1A6812B11A68013AE2
:10054C001A600A4A13781BB11378013BDBB21370A3
:10055C00074B1A6832B11A68013A1A601B680BB95A
:10056C00FFF7E6FF08BD00BF3C0000205E00002046
:10057C003800002007B501210420FFF7C1FE01213E
:10058C001020FFF7BDFE154A01219369084643F080
:10059C0008039361FFF7B4FE0020FFF7ABFE0121C7
:1005AC004FF40000FFF7B8FE18238DF807304FF416
:1005BC00C053ADF8043001A9032309488DF8063067
:1005CC00FFF746FE074B5A6842F011025A60DA6890
:1005DC0042F44072DA6003B05DF804FB0010024094
:1005EC0000080140000C01400A4C08B5FFF774FFED
:1005FC00FFF7C0FF23694FF4FA6043F08073236167
:10060C00FFF78EFF236943F48073236100F01EF81B
:10061C00FEE700BF000C0140094B5A69120542BFAE
:10062C005A6942F400625A61064B9B6813F4006FDE
:10063C00054B14BF20224FF400121A61704700BF03
:10064C000004014000100140000801400B4B002247
:10065C001A800B4B4FF4801119600A4B4FF48061D8
:10066C001A65DA645A6402F18042196402F5883220
:10067C00136843F000531360704700BF6000002004
:10068C0000E100E0005C0040024B1B6803EB001033
:10069C00818070471C000020024B00011B68185A17
:1006AC00704700BF1C000020024B1B6803EB0010BE
:1006BC00008970471C000020034B1B6803EB0010E3
:1006CC008089C0F3090070471C000020800000F1F5
:1006DC00804000F5B840036841F4004123F0F0037A
:1006EC00DB05DB0D41F08001194301607047800090
:1006FC0000F1804000F5B840036823F0F0035B057F
:10070C005B0D43F4004343F0C0030360704780006B
:10071C0000F1804000F5B840036823F0C0035B058E
:10072C005B0D83EA011109B241F4004141F08001F3
:10073C0089B201607047800000F1804000F5B8403C
:10074C00036823F40F639B049B0C83EA013109B209
:10075C0041F4004141F0800189B201607047800092
:10076C0000F1804000F5B840036823F070035B058E
:10077C005B0D03607047800000F1804000F5B840CD
:10078C00036823F4F14323F070031B041B0C036078
:10079C0070470000114B013270B50A444C1C1D68A7
:1007AC000130A4B292B2631E94429BB214D013F0E7
:1007BC00010F4FEA53031DBF9BB210F8016C35F8C3
:1007CC00231010F8011C18BF41EA0621013425F84A
:1007DC0023100130A4B2E6E770BD00BF200000205A
:1007EC0030B50A440A4C013892B291420ED02568B9
:1007FC004B0811F0010F16BF35F8233015F82330D4
:10080C001B0A013100F8013F89B2EEE730BD00BF91
:10081C00200000200B4B20221B6830211A80102254
:10082C009A809A8248221A84082219819A844FF459
:10083C008051502299811A8738214FF4084219822D
:10084C009A8770471C00002010B5FFF7E3FF104992
:10085C00002247F2700351F8040F03401343013296
:10086C009BB2082A0B60F4D10A4A0024136C54641E
:10087C0043F4064313644FF400712046FFF726FF40
:10088C0003212046FFF757FF8023D36410BD00BF20
:10089C00FC5B0040005C004010B51A4C636C190402
:1008AC0003D5BDE8104000F029BA5A0406D56FF400
:1008BC0080436364BDE8104000F04DB8980405D542
:1008CC0000F048F86FF40053636410BD590506D569
:1008DC006FF480636364BDE8104000F027B89A059C
:1008EC0006D56FF400736364BDE8104000F031B8B6
:1008FC00DB0506D56FF480736364BDE8104000F02F
:10090C0027B810BD005C0040074B5B6C1A040AD57D
:10091C0003F00F039B0003F1804303F5B8431A68FF
:10092C0002F03F021A607047005C004008B5FFF708
:10093C008BFF064B002103201980FFF7C7FEBDE893
:10094C00084003210846FFF7F6BE00BF5800002000
:10095C007047704770477047002108B50846FFF78D
:10096C0093FE064B186810F0400001D1FFF7BFFE54
:10097C00034A03231380034A138008BD005C004024
:10098C005C0000205A00002070B50E4B0646DD8836
:10099C000020082D2C4628BF0824FFF77DFE224698
:1009AC0001463046FFF7F6FE074B26442D1B214629
:1009BC0000205E601D81FFF767FE044B03221A8046
:1009CC0070BD00BF6A0000204C0000205C000020BD
:1009DC0008B50021044B08461981FFF755FE034B5F
:1009EC0003221A8008BD00BF4C0000205C000020D0
:1009FC000A4B5B88180A022805D0032806D0012868
:100A0C0009D1074800E00748FFF7BEBF064ADBB232
:100A1C0052F82300F8E7FFF7DBBF00BF6A000020A5
:100A2C00210E0008B80D00082400002037B5012461
:100A3C0002AD002005F8014DFFF72EFE22460146BF
:100A4C002846FFF7A7FE21460020FFF71DFE044BAA
:100A5C0000221A81034B03221A8003B030BD00BF61
:100A6C004C0000205C00002013B5012302AC0020D8
:100A7C0024F8023DFFF710FE022201462046FFF744
:100A8C0089FE02210020FFF7FFFD044B00221A8192
:100A9C00034B03221A8002B010BD00BF4C00002093
:100AAC005C00002008B50021044B08461981FFF7B3
:100ABC00EBFD034B03221A8008BD00BF4C00002045
:100ACC005C00002038B5494D6C782B46082C59D069
:100ADC000FD8012C29D01FD3052C47D0062C78D148
:100AEC00434A138843F010031380BDE83840FFF7E6
:100AFC007FBF202C4FD00AD8092C6AD13C4A1388CE
:100B0C0043F080031380BDE83840FFF7CBBF212CA6
:100B1C004DD0222C59D05CE0354A138843F00103A8
:100B2C001380BDE83840FFF79FBFA88800285BD032
:100B3C00822805D14FF4C0610220FFF7C7FD44E0C5
:100B4C00002100F00F00FFF7C1FDAB881B0608D594
:100B5C0020460021FFF798FD02212046FFF7D7FD24
:100B6C0033E003210846FFF7E6FD2EE0204A002182
:100B7C00138843F0080313806B881E4A43F08003EC
:100B8C00D3642BE01A4A138843F040031380BDE86A
:100B9C003840FFF74BBF184B184A1C705A60AA79A3
:100BAC00E97942EA01221A810322154B1BE000204D
:100BBC00FFF772FDEA8801461048FFF7EBFD114B79
:100BCC00002058601881E98809E0BDE83840FFF73B
:100BDC00C3BEDB8819463BB90A4A13810846FFF7A6
:100BEC0053FD094B03221A8038BD00BF6A00002058
:100BFC0058000020005C00404000002062000020F3
:100C0C005A0000204C0000205C0000202DE9F0412F
:100C1C00334C606C10F0100033D00020FFF79FFDB8
:100C2C00246814F400640FD00020FFF73DFD044647
:100C3C000020FFF741FD214602462A48FFF7D0FD70
:100C4C00BDE8F041FFF73EBF2046FFF735FD264DCE
:100C5C0030B9264B03221A8068602881BDE8F081E8
:100C6C002B78202B09D12046FFF71EFD2A8901463F
:100C7C001F48FFF7B5FD2C702C81BDE8F041FFF744
:100C8C006BBE1C4DFFF777FD29891B4FE9B1082975
:100C9C004FF0000094BFCCB20824D5F80480FFF7C5
:100CAC00FBFCA6B2014632464046FFF773FD69686D
:100CBC002B8921449B1B6960002031462B81FFF757
:100CCC00E3FC03233B80BDE8F0810846FFF7DCFC26
:100CDC0002233B80054B03221A80BDE8F08100BF44
:100CEC00005C00406A000020400000205A000020F8
:100CFC00620000204C0000205C00002038B5144B32
:100D0C00586C00F00F00012819D003D303281AD017
:100D1C00032018E01B680F4D0F4CC3F30132C3F3D3
:100D2C0001132A802380FFF771FF29880020FFF729
:100D3C0002FD21880020BDE83840FFF7E8BCBDE883
:100D4C003840FFF718BDBDE83840FFF708BD00BFBD
:100D5C00005C00405A0000205C0000202E03530071
:100D6C0054004D0033003200200056006900720020
:100D7C007400750061006C00200043004F004D00B2
:100D8C00200050006F0072007400000000001A0375
:100D9C00530054004D003300320053005600410004
:100DAC0048004100520044000403090409024300B6
:100DBC00020100C0320904000001020201000524F6
:100DCC000010010524010001042402020524060080
:100DDC0001070582030800FF09040100020A020052
:100DEC0000070581021000000705030240000026E1
:100DFC0003530054004D006900630072006F0065DE
:100E0C00006C0065006300740072006F006E006976
:100E1C00006300730012010002020000088304400A
:070E2C00570002010203015F
:100E3400340000200000000000000000000000005A
:100E4400010203040607080900A24A0400600040E6
:100E540000600040B40D0008FB0D0008680D000898
:040E64009A0D0008DB
:040000050800010DE1
:00000001FF
