:020000040800F2
:1000000000500020CD010008D1010008D3010008F4
:10001000E9010008EB0100080102000800000000EF
:1000200000000000000000000000000017020008AF
:1000300019020008000000001B020008410500082A
:1000400031020008310200083102000831020008C4
:1000500031020008310200083102000831020008B4
:1000600031020008310200083102000831020008A4
:100070003102000831020008310200083102000894
:100080003102000831020008310200086909000845
:10009000F9080008310200083102000831020008A6
:1000A0003102000831020008310200083102000864
:1000B0003102000831020008310200083102000854
:1000C0003102000831020008310200083102000844
:1000D0003102000831020008310200083102000834
:1000E0008906000831020008310200080000000003
:1000F0000000000000000000000000000000000000
:1001000000000000000000005FF808F107B500F0F3
:1001100021F9234A234B24498B4204D252F8040F7D
:1001200043F8040BF8E7214B214A0021934202D205
:1001300043F8041BFAE700F019F901A9684600F03A
:1001400001F91C4B1C4C1E46E41AA4100025AC42BD
:1001500004DD56F8253098470135F8E7174B184C61
:100160001E46E41AA4100025AC4204DD56F82530E2
:1001700098470135F8E79DE8030000F03BFA114B82
:1001800006461D46104CE41AA410002C04DD013C68
:1001900055F824309847F8E7304600F0CFF800BF14
:1001A0008C0F0008000000203400002034000020E4
:1001B000840000205C0200085C0200085C02000869
:1001C0005C0200085C0200085C020008144800475A
:1001D000FEE71EF0040F0CBFEFF30880EFF3098079
:1001E0007146104A1047FEE7FEE71EF0040F0CBFF1
:1001F000EFF30880EFF3098071460B4A1047FEE7E2
:100200001EF0040F0CBFEFF30880EFF30980714676
:10021000064A1047FEE7FEE7FEE7FEE770470000EC
:100220000D010008E7010008FF01000815020008A1
:02023000FEE7E7
:10023400900F00080000002034000020900F0008F8
:1002440000000000000000003400002084000020B2
:080254000000000000000000A2
:10025C00CA782DE9F041D40648BF8C780E8802F09C
:10026C000F0348BF234316F0FF0F1ED00168002474
:10027C004FF0010E4FF00F0C0EFA04F737EA06059B
:10028C000FD1A5000CFA05F821EA080103FA05F5CF
:10029C00282A41EA050101D1476102E0482A08BF3A
:1002AC0007610134082CE7D10160FF2E20D9416889
:1002BC0000244FF0010E4FF00F0C04F108050EFA5C
:1002CC0005F535EA06070FD1A7000CFA07F821EA65
:1002DC00080103FA07F7282A41EA070101D1456111
:1002EC0002E0482A08BF05610134082CE5D14160C1
:1002FC00BDE8F081014B1860704700BFD800424246
:10030C00044B9A6909B1104301E022EA000098619C
:10031C00704700BF00100240044BDA6909B110436A
:10032C0001E022EA0000D861704700BF00100240D3
:10033C0008B500F017F8000001230360014B0B60B7
:10034C00704700BF0000002008B500F01DF8024BFC
:10035C00024A9A6008BD00BF00ED00E000000008F2
:10036C0000F08CB8BFF34F8F0549064BCA6802F4F6
:10037C00E0621343CB60BFF34F8F00BFFDE700BFBC
:10038C0000ED00E00400FA05384B82B01A6842F028
:10039C0001021A605968364A0A405A601A6822F0FB
:1003AC00847222F480321A601A6822F480221A6055
:1003BC005A6822F4FE025A604FF41F029A6000221F
:1003CC00009201921A6842F480321A601A6802F4A0
:1003DC0000320192009A01320092019A1AB9009AE5
:1003EC00B2F5A06FF2D11A6812F4003218BF0122D4
:1003FC000192019A012A05D01E4B4FF000629A60BF
:10040C0002B070471C4A116841F01001116011686C
:10041C0021F003011160116841F0020111605A686A
:10042C005A605A685A605A6842F480625A605A6834
:10043C0022F47C125A605A6842F4E8125A601A6824
:10044C0042F080721A601968084A8901FBD551681C
:10045C0021F003015160516841F0020151605A686A
:10046C0002F00C02082AFAD1C6E700BF00100240C5
:10047C000000FFF800ED00E000200240114A124B92
:10048C00516801F00C01042901D0082901D00F4951
:10049C000EE051685068C1F38341C00301F10201C1
:1004AC0002D55068800301D5094800E00748414354
:1004BC00196052680749C2F30312895C1A68CA4072
:1004CC001A607047001002401800002000127A00D9
:1004DC0000093D00080000200C4B002119600C4B5A
:1004EC004FF47A7219600B4B1B68B3FBF2F3013BB0
:1004FC00B3F1807F08D2084AF0205360074B83F891
:10050C002300072391601360704700BF3800002060
:10051C003C0000201800002010E000E000ED00E09E
:10052C00024B18601A68002AFCD170473C0000206E
:10053C007047000008B50C4B1A6812B11A68013AE2
:10054C001A600A4A13781BB11378013BDBB21370A3
:10055C00074B1A6832B11A68013A1A601B680BB95A
:10056C00FFF7E6FF08BD00BF3C0000207100002033
:10057C003800002007B501210420FFF7C1FE01213E
:10058C001020FFF7BDFE154A01219369084643F080
:10059C0008039361FFF7B4FE0020FFF7ABFE0121C7
:1005AC004FF40000FFF7B8FE18238DF807304FF416
:1005BC00C053ADF8043001A9032309488DF8063067
:1005CC00FFF746FE074B5A6842F011025A60DA6890
:1005DC0042F44072DA6003B05DF804FB0010024094
:1005EC0000080140000C01401FB5FFF775FFFFF735
:1005FC00C1FF00F05DF800F0D9F900282FD0684653
:10060C0000F0BEF904AB1844002300F8103C164966
:10061C00684600F03FFC20B9144A136943F000739C
:10062C0013611349684600F035FC20B90F4A136971
:10063C0043F4007313610F49684600F02BFC20B99A
:10064C000A4A136943F0807313610B49684600F042
:10065C0021FC20B9054A136943F4807313616420AB
:10066C00FFF75EFFC7E700BF7F0F0008000C0140DB
:10067C00830F0008870F00088B0F0008094B5A697D
:10068C00120542BF5A6942F400625A61064B9B68DC
:10069C0013F4006F054B14BF20224FF400121A61A3
:1006AC00704700BF000401400010014000080140E9
:1006BC00074B00221A80074B4FF480111960064B30
:1006CC004FF480611A65DA6419645A64704700BF8C
:1006DC007200002000E100E0005C0040024B1B684F
:1006EC0003EB0010818070471C000020024B0001BE
:1006FC001B68185A704700BF1C000020024B1B6877
:10070C0003EB0010008970471C000020034B1B6892
:10071C0003EB00108089C0F3090070471C00002017
:10072C00800000F1804000F5B840036841F40041BE
:10073C0023F0F003DB05DB0D41F080011943016070
:10074C007047800000F1804000F5B840036823F04A
:10075C00F0035B055B0D43F4004343F0C0030360FF
:10076C007047800000F1804000F5B840036823F02A
:10077C00C0035B055B0D83EA011109B241F4004132
:10078C0041F0800189B201607047800000F1804027
:10079C0000F5B840036823F40F639B049B0C83EAB9
:1007AC00013109B241F4004141F0800189B201608C
:1007BC007047800000F1804000F5B840036823F0DA
:1007CC0070035B055B0D03607047800000F1804097
:1007DC0000F5B840036823F4F14323F070031B04C5
:1007EC001B0C036070470000114B013270B50A44BA
:1007FC004C1C1D680130A4B292B2631E94429BB291
:10080C0014D013F0010F4FEA53031DBF9BB210F825
:10081C00016C35F8231010F8011C18BF41EA0621B1
:10082C00013425F823100130A4B2E6E770BD00BFF7
:10083C002000002030B50A440A4C013892B2914293
:10084C000ED025684B0811F0010F16BF35F8233078
:10085C0015F823301B0A013100F8013F89B2EEE78D
:10086C0030BD00BF200000200B4B38211B6820221C
:10087C00198240211A809982102278219A80198439
:10088C00302208211A8199844FF4805280219A8158
:10089C0019879A87704700BF1C00002010B5FFF71E
:1008AC00E3FF1049002247F2700351F8040F034094
:1008BC00134301329BB2082A0B60F4D10A4A00247C
:1008CC00136C546443F4064313644FF400712046D4
:1008DC00FFF726FF03212046FFF757FF8023D36441
:1008EC0010BD00BFFC5B0040005C004010B51A4C12
:1008FC00636C190403D5BDE8104000F07DBA5A04AE
:10090C0006D56FF480436364BDE8104000F071B805
:10091C00980405D500F06CF86FF40053636410BDB7
:10092C00590506D56FF480636364BDE8104000F090
:10093C0043B89A0506D56FF400736364BDE81040A4
:10094C0000F055B8DB0506D56FF480736364BDE821
:10095C00104000F04BB810BD005C0040074B5B6CC6
:10096C001A040AD503F00F039B0003F1804303F52F
:10097C00B8431A6802F03F021A607047005C0040EE
:10098C0030B5084B084D1C78411E621E0244914242
:10099C0004D015F8010F01F8010FF8E700221A70C6
:1009AC00204630BD7000002057000020014B187805
:1009BC00704700BF7000002008B5FFF76FFF064AB4
:1009CC0000231380054A1380054A1370054A1381CE
:1009DC00054A138108BD00BF6A0000206800002092
:1009EC0070000020400000204C0000207047704731
:1009FC0070477047002108B50846FFF76FFE064B9D
:100A0C00186810F0400001D1FFF79BFE034A032346
:100A1C001380034A138008BD005C00406E00002068
:100A2C006C00002070B50E4B0646DD880020082DAA
:100A3C002C4628BF0824FFF759FE224601463046B3
:100A4C00FFF7D2FE074B26442D1B214600205E608B
:100A5C001D81FFF743FE044B03221A8070BD00BFBB
:100A6C007C0000204C0000206E00002008B5002106
:100A7C00044B08461981FFF731FE034B03221A8001
:100A8C0008BD00BF4C0000206E0000200A4B5B88A4
:100A9C00180A022805D0032806D0012809D10748D6
:100AAC0000E00748FFF7BEBF064ADBB252F823004E
:100ABC00F8E7FFF7DBBF00BF7C0000206D0F0008DC
:100ACC00040F00082400002037B5012402AD0020DB
:100ADC0005F8014DFFF70AFE224601462846FFF7AE
:100AEC0083FE21460020FFF7F9FD044B00221A81FA
:100AFC00034B03221A8003B030BD00BF4C00002012
:100B0C006E00002013B5012302AC002024F8023D36
:100B1C00FFF7ECFD022201462046FFF765FE02219D
:100B2C000020FFF7DBFD044B00221A81034B03224C
:100B3C001A8002B010BD00BF4C0000206E000020D7
:100B4C0008B50021044B08461981FFF7C7FD034B7C
:100B5C0003221A8008BD00BF4C0000206E0000204C
:100B6C0038B55B4D6C782B46082C7DD010D8012CF9
:100B7C002BD021D3052C49D0062C40F09C80554A13
:100B8C00138843F010031380BDE83840FFF77EBF95
:100B9C00202C72D00BD8092C40F08D804D4A138834
:100BAC0043F080031380BDE83840FFF7C9BF212C08
:100BBC006FD0222C7BD07EE0464A138843F0010391
:100BCC001380BDE83840FFF79DBFA88800287DD072
:100BDC00822805D14FF4C0610220FFF7A1FD66E029
:100BEC00002100F00F00FFF79BFDAB881B0608D51A
:100BFC0020460021FFF772FD02212046FFF7B1FDD0
:100C0C0055E003210846FFF7C0FD50E0314A0021B2
:100C1C001388084643F008031380EA78AB7843EA5C
:100C2C0002232D4A1380FFF759FD00210120FFF705
:100C3C0077FD4FF4C0610220FFF772FD0021032005
:100C4C00FFF76EFD02210120FFF78BFD0021022032
:100C5C00FFF787FD03210846FFF797FD1F4A032383
:100C6C0013801F4A138038BD1A4A138843F040037F
:100C7C001380BDE83840FFF727BF1A4B1A4A1C7087
:100C8C005A60AA79E97942EA01221A810322144BAB
:100C9C001BE00020FFF72AFDEA8801461248FFF707
:100CAC00A3FD124B002058601881E98809E0BDE8CB
:100CBC003840FFF79FBEDB8819463BB918460B4AF4
:100CCC001381FFF70BFD054B03221A8038BD00BFC3
:100CDC007C0000206A000020680000206E000020CC
:100CEC006C00002040000020740000204C0000200C
:100CFC002DE9F041384E706C10F0100033D000200C
:100D0C00FFF757FD346814F400640FD00020FFF790
:100D1C00F5FC04460020FFF7F9FC214602462F485B
:100D2C00FFF788FDBDE8F041FFF71ABF2046FFF73B
:100D3C00EDFC2B4D30B92B4B03221A8068602881B7
:100D4C00BDE8F0812B78202B09D12046FFF7D6FC8B
:100D5C002A8901462448FFF76DFD2C702C81BDE8D3
:100D6C00F041FFF747BE214DFFF72FFD2C89204F97
:100D7C00ECB1082C4FF0000094BFE4B20824D5F875
:100D8C000480FFF7B3FCA6B2014632464046FFF79B
:100D9C002BFD6B6831461C442B8900209B1B2B813F
:100DAC006C60FFF79BFC03233B80BDE8F081114B8B
:100DBC001B882BB1F26C520604BF43F08003F36422
:100DCC0000210846FFF78AFC02233B80054B0322D7
:100DDC001A80BDE8F08100BF005C00407C00002060
:100DEC00400000206C000020740000204C0000200B
:100DFC006E0000206800002038B5214B5C6C04F0BC
:100E0C000F04012C31D01BD3032C33D12046FFF718
:100E1C00D0FC2046FFF772FC05462046FFF776FC17
:100E2C00294602461748FFF705FD2046FFF76EFCE2
:100E3C00154B214618702046BDE83840FFF7A5BC7D
:100E4C001B68124D124CC3F30132C3F301132A80F9
:100E5C002380FFF74DFF29880020FFF796FC21889F
:100E6C000020BDE83840FFF77CBC2046BDE8384088
:100E7C00FFF7ABBC0320BDE83840FFF79ABC00BFBE
:100E8C00005C004058000020700000206C00002026
:100E9C006E00002010F8012B11F8013B012A28BF2D
:100EAC009A42F7D0D01A70472E03530054004D00CD
:100EBC003300320020005600690072007400750087
:100ECC0061006C00200043004F004D0020005000DA
:100EDC006F0072007400000000001A0353005400ED
:100EEC004D003300320053005600410048004100D1
:100EFC00520044000403090409024300020100C02B
:100F0C003209040000010202010005240010010551
:100F1C0024010001042402020524060001070582B5
:100F2C00030800FF09040100020A02000007058102
:100F3C000240000007050302100000260353005472
:100F4C00004D006900630072006F0065006C006565
:100F5C00006300740072006F006E00690063007320
:100F6C000012010002020000088304405700020135
:100F7C0002030171310A0071300A0077310A0077DF
:030F8C00300A0028
:100F900034000020000000000000000000000000FD
:100FA000010203040607080900A24A040060004089
:100FB00000600040000F0008470F0008B40E000852
:040FC000E60E000831
:040000050800010DE1
:00000001FF
