:020000040800F2
:1000000000500020CD010008D1010008D3010008F4
:10001000E9010008EB0100080102000800000000EF
:1000200000000000000000000000000017020008AF
:1000300019020008000000001B02000895050008D6
:1000400031020008310200083102000831020008C4
:100050003102000831020008BD09000895090008B6
:1000600031020008310200083102000831020008A4
:100070003102000831020008310200083102000894
:10008000310200083102000831020008B50D0008F5
:10009000350D000831020008310200083102000865
:1000A0003102000831020008310200083102000864
:1000B00031020008310200086D0800083102000812
:1000C0003102000831020008310200083102000844
:1000D0003102000831020008310200083102000834
:1000E0009D0A0008310200083102000800000000EB
:1000F0000000000000000000000000000000000000
:1001000000000000000000005FF808F107B500F0F3
:100110002BF9234A234B24498B4204D252F8040F73
:1001200043F8040BF8E7214B214A0021934202D205
:1001300043F8041BFAE700F023F901A9684600F030
:100140000BF91C4B1C4C1E46E41AA4100025AC42B3
:1001500004DD56F8253098470135F8E7174B184C61
:100160001E46E41AA4100025AC4204DD56F82530E2
:1001700098470135F8E79DE8030000F051FC114B6A
:1001800006461D46104CE41AA410002C04DD013C68
:1001900055F824309847F8E7304600F0D9F800BF0A
:1001A00080150008000000203400002034000020EA
:1001B000300100205C0200085C0200085C020008BC
:1001C0005C0200085C0200085C020008144800475A
:1001D000FEE71EF0040F0CBFEFF30880EFF3098079
:1001E0007146104A1047FEE7FEE71EF0040F0CBFF1
:1001F000EFF30880EFF3098071460B4A1047FEE7E2
:100200001EF0040F0CBFEFF30880EFF30980714676
:10021000064A1047FEE7FEE7FEE7FEE770470000EC
:100220000D010008E7010008FF01000815020008A1
:02023000FEE7E7
:100234008415000800000020340000208415000804
:100244000000000000000000340000203001002005
:080254000000000000000000A2
:10025C0040F0BF60024B40F40030D860704700BFE4
:10026C0000ED00E0CA782DE9F041D40648BF8C7847
:10027C000E8802F00F0348BF234316F0FF0F1ED069
:10028C00016800244FF0010E4FF00F0C0EFA04F72A
:10029C0037EA06050FD1A5000CFA05F821EA08018A
:1002AC0003FA05F5282A41EA050101D1476102E06C
:1002BC00482A08BF07610134082CE7D10160FF2EE2
:1002CC0020D9416800244FF0010E4FF00F0C04F1BF
:1002DC0008050EFA05F535EA06070FD1A7000CFA4A
:1002EC0007F821EA080103FA07F7282A41EA07016F
:1002FC0001D1456102E0482A08BF05610134082C90
:10030C00E5D14160BDE8F081014B1860704700BF3A
:10031C00D8004242044B9A6909B1104301E022EA29
:10032C0000009861704700BF00100240044BDA696E
:10033C0009B1104301E022EA0000D861704700BF08
:10034C000010024008B500F017F80000012303600C
:10035C00014B0B60704700BF0000002008B500F097
:10036C001DF8024B024A9A6008BD00BF00ED00E088
:10037C000000000800F08CB8BFF34F8F0549064B06
:10038C00CA6802F4E0621343CB60BFF34F8F00BF27
:10039C00FDE700BF00ED00E00400FA05384B82B029
:1003AC001A6842F001021A605968364A0A405A60CB
:1003BC001A6822F0847222F480321A601A6822F4CD
:1003CC0080221A605A6822F4FE025A604FF41F020F
:1003DC009A600022009201921A6842F480321A60EC
:1003EC001A6802F400320192009A01320092019ACA
:1003FC001AB9009AB2F5A06FF2D11A6812F4003251
:10040C0018BF01220192019A012A05D01E4B4FF010
:10041C0000629A6002B070471C4A116841F01001EA
:10042C001160116821F003011160116841F00201A3
:10043C0011605A685A605A685A605A6842F480626D
:10044C005A605A6822F47C125A605A6842F4E812D4
:10045C005A601A6842F080721A601968084A890159
:10046C00FBD5516821F003015160516841F0020144
:10047C0051605A6802F00C02082AFAD1C6E700BF94
:10048C00001002400000FFF800ED00E000200240E8
:10049C00114A124B516801F00C01042901D00829B2
:1004AC0001D00F490EE051685068C1F38341C0037D
:1004BC0001F1020102D55068800301D5094800E022
:1004CC0007484143196052680749C2F30312895C1B
:1004DC001A68CA401A6070470010024018000020C9
:1004EC0000127A0000093D0008000020154B002284
:1004FC001A60154B4FF47A711A60144B1A70144B26
:10050C001B68B3FBF1F3013BB3F1807F08D21149B7
:10051C00F0204B60104B83F8230007238A600B609C
:10052C000E4A936943F0100393610D4B1A6822F441
:10053C0070021A601A6842F480121A60094B002289
:10054C001A7070473800002040000020170100206E
:10055C001800002010E000E000ED00E00010024068
:10056C00001001403C000020014B01221A70704722
:10057C003C000020024B18601A68002AFCD170471E
:10058C00400000207047000008B5174B1A78022A6B
:10059C0006D1002215491A700A6942F400120A6148
:1005AC001B78012B07D1104B02221A700F4A1369CA
:1005BC0043F0200313610E4B1A6812B11A68013A0A
:1005CC001A600C4A13781BB11378013BDBB2137021
:1005DC00094B1A6832B11A68013A1A601B680BB9D8
:1005EC00FFF7D0FF08BD00BF3C0000200010014009
:1005FC00400000201701002038000020054A137825
:10060C000133DBB213701378502B04BF002313702B
:10061C00704700BF4400002008B1FFF7EFBF054A48
:10062C0013780133DBB213701378502B08BF1070A2
:10063C00704700BFE600002038B5234C23492378CF
:10064C00234830F813208B8BC2F3032223F078035A
:10065C001B041B0C8B838B8B002A9BB243F0400337
:10066C008B831C4B33F8123018BF00228B854FF054
:10067C000A038B878B8B08BF4FF4007223F078032F
:10068C001B041B0C8B838B8B9BB243F068038B83FB
:10069C000B889BB243F009030B800F4BDD6805F40C
:1006AC007D45DD602578DC6810F815002043D860A6
:1006BC00D8680243DA600020FFF7AEFF00238B8777
:1006CC00064B01221A7038BDE600002000080040DD
:1006DC004600002050150008000C0140E7000020E7
:1006EC0008B5074B1A78074B23F81200FFF786FF63
:1006FC00054B1B781BB9BDE80840FFF79DBF08BD33
:10070C004400002046000020E700002010B5441EE5
:10071C0014F9010F10B1FFF7E3FFF9E710BD00006A
:10072C0008B5431E022B8CBF4FF400734FF480733B
:10073C00074A18431278074B23F81200FFF75EFFA5
:10074C00054B1B781BB9BDE80840FFF775BF08BD0A
:10075C004400002046000020E70000202DE9F0476F
:10076C0080460F46124A1378114E03F0FF04002BFB
:10077C00F9D14020FFF7D4FFDFF83890A7420ED014
:10078C0000255FFA84FA18F80A3009EBC3035857AE
:10079C000135FFF7A5FF082DF5D10134EEE7012057
:1007AC00FFF7BEFF3378002BFCD1BDE8F08700BF0C
:1007BC00E70000200F140008224B4FF0113270B5E7
:1007CC001A605A68012122F0FF025A605A681E4EC4
:1007DC0042F019025A601D4AD36943F00403D361F5
:1007EC0000231C46A2F502329384918111211185BC
:1007FC00122191859387918B21F078010904090CC2
:10080C009183918B89B241F040019183118C89B213
:10081C0041F4807111840E4A4FF0804113700D4ADF
:10082C0013700D4A13700D4A116036F814500134D0
:10083C0068B2FFF775FF280AFFF79CFE082CF4D16D
:10084C0070BD00BF000C01404015000800100240B4
:10085C00E7000020E60000204400002000E100E05A
:10086C00104B1A8AD2071BD51A8A22F001021204E5
:10087C00120C1A820C4A11780C4A1278914201D04F
:10088C00FFF7DABE9A8B22F078021204120C9A83CC
:10089C009A8B92B242F040029A83054B00221A7056
:1008AC00704700BF0008004044000020E600002014
:1008BC00E7000020294A2DE9F3419369012143F017
:1008CC001C0393610846FFF725FD254E0020FFF71A
:1008DC001BFD01214FF40000FFF728FD7368214C2C
:1008EC0043F0007373604FF4A060FFF7B1FCC023BA
:1008FC0084F80633D02384F8073380274FF0400860
:10090C00902384F8147384F8138384F81E3318230B
:10091C0003258DF8073001A94FF4C0531248ADF8E8
:10092C0004308DF80650FFF79DFC104B1A6822F02E
:10093C00FF021A601A6842F088021A60DD602223F6
:10094C00B3600B4B00221D60DD600A4BC4F80080C5
:10095C0027601A7002B0BDE8F08100BF00100240A1
:10096C000000014000E100E00008014000100140DF
:10097C000004014018010020024B002218781A7064
:10098C00704700BF18010020064A536943F0020368
:10099C005361054B1A7822B9044A31211170642233
:1009AC001A70704700040140170100201801002044
:1009BC00064A536943F001035361054B1A7822B977
:1009CC00044A3021117064221A70704700040140EF
:1009DC00170100201801002008B56FF07F00FFF709
:1009EC009FFE0948FFF792FE6FF03F00FFF798FE5D
:1009FC000648FFF78BFE6FF06B00FFF791FEBDE82A
:100A0C0008400348FFF782BE56150008651500081C
:100A1C00711500081FB5FFF769FDFFF74BFF00F0DC
:100A2C0051F8FFF7C9FE07211848FFF797FEFFF7AB
:100A3C00D3FFFFF7A1FF58B1302803D10120FFF7F6
:100A4C006FFE03E0312801D1FFF7C6FFFFF78CFDE5
:100A5C006FF06F00FFF764FE00F0CEF988B16846C6
:100A6C0000F0B4F9044604AB03440022684603F8D2
:100A7C00102CFFF74BFE2146684600F0C3F9FFF738
:100A8C0073FD6420FFF776FDD3E700BF7D150008EA
:100A9C00094B5A69120542BF5A6942F400625A6105
:100AAC00064B9B6813F4006F054B14BF20224FF4C8
:100ABC0000121A61704700BF000401400010014091
:100ACC00000801400A4B4FF480121A60094B0022B7
:100ADC001A65DA645A644FF4806102F18042196439
:100AEC0002F58832136843F000531360704700BF5F
:100AFC0000E100E0005C0040024B1B6803EB0010BF
:100B0C00818070471C000020024B00011B68185AA2
:100B1C00704700BF1C000020024B1B6803EB001049
:100B2C00008970471C000020034B1B6803EB00106E
:100B3C008089C0F3090070471C000020800000F180
:100B4C00804000F5B840036841F4004123F0F00305
:100B5C00DB05DB0D41F0800119430160704780001B
:100B6C0000F1804000F5B840036823F0F0035B050A
:100B7C005B0D43F4004343F0C003036070478000F7
:100B8C0000F1804000F5B840036823F0C0035B051A
:100B9C005B0D83EA011109B241F4004141F080017F
:100BAC0089B201607047800000F1804000F5B840C8
:100BBC00036823F40F639B049B0C83EA013109B295
:100BCC0041F4004141F0800189B20160704780001E
:100BDC0000F1804000F5B840036823F070035B051A
:100BEC005B0D03607047800000F1804000F5B84059
:100BFC00036823F4F14323F070031B041B0C036004
:100C0C0070470000114B013270B50A444C1C1D6832
:100C1C000130A4B292B2631E94429BB214D013F072
:100C2C00010F4FEA53031DBF9BB210F8016C35F84E
:100C3C00231010F8011C18BF41EA0621013425F8D5
:100C4C0023100130A4B2E6E770BD00BF20000020E5
:100C5C0030B50A440A4C013892B291420ED0256844
:100C6C004B0811F0010F16BF35F8233015F823305F
:100C7C001B0A013100F8013F89B2EEE730BD00BF1D
:100C8C00200000200C4B20221B681A8010229A8016
:100C9C0030221A814FF480529A8138221A824022D3
:100CAC009A8278221A8408229A8480221A874FF416
:100CBC0000529A87704700BF1C00002010B5FFF748
:100CCC00E1FF1049002247F2700351F8040F034072
:100CDC00134301329BB2082A0B60F4D10A4A002458
:100CEC00136C546443F4064313644FF400712046B0
:100CFC00FFF724FF03212046FFF755FF8023D36421
:100D0C0010BD00BFFC5B0040005C0040054BDA6C82
:100D1C00520605D00022DA641A6C22F400621A64BE
:100D2C00704700BF005C004010B51E4C636C18048B
:100D3C0003D5BDE8104000F0B3BA590406D56FF4E2
:100D4C0080436364BDE8104000F09EB89A0404D55B
:100D5C0000F098F86FF4005305E0180505D5FFF77F
:100D6C00D5FF6FF40063636410BD590506D56FF4AD
:100D7C0080636364BDE8104000F05AB89A0506D54C
:100D8C006FF400736364BDE8104000F079B8DB05C4
:100D9C0006D56FF480736364BDE8104000F066B84C
:100DAC0010BD00BF005C0040074B5B6C1A040AD5F9
:100DBC0003F00F039B0003F1804303F5B8431A685B
:100DCC0002F03F021A607047005C004030B5084BDF
:100DDC00084D1C78411E621E0244914204D015F845
:100DEC00010F01F8010FF8E700221A70204630BD00
:100DFC0016010020FF000020014B1878704700BF3F
:100E0C001601002038B505460C460120FFF77CFE84
:100E1C00A4B2224601462846FFF7F4FE21460120E3
:100E2C00FFF76AFEBDE8384003210120FFF7A7BE9B
:100E3C0008B5FFF743FF074A00231380064A1380C7
:100E4C00064A1380064A1370064A1381064A138118
:100E5C0008BD00BF2E0100202A0100201001002037
:100E6C0016010020E8000020F4000020024B5A6C10
:100E7C00024B1A80704700BF005C00402C01002020
:100E8C00FFF7F4BFFFF7F2BFFFF7F0BF002108B583
:100E9C000846FFF731FE064B186810F0400001D1F0
:100EAC00FFF75DFE034A03231380034A138008BD3A
:100EBC00005C0040140100201201002070B50E4BA4
:100ECC000646DD880020082D2C4628BF0824FFF795
:100EDC001BFE224601463046FFF794FE074B264484
:100EEC002D1B214600205E601D81FFF705FE044B83
:100EFC0003221A8070BD00BF22010020F4000020E4
:100F0C001401002008B5064B00211880054B08463B
:100F1C001981FFF7F1FD044B03221A8008BD00BFB5
:100F2C002A010020F4000020140100200A4B5B88E9
:100F3C00180A022805D0032806D0012809D1074831
:100F4C0000E00748FFF7BABF064ADBB252F82300AD
:100F5C00F8E7FFF7D7BF00BF22010020FD13000800
:100F6C00A21300082400002037B5012402AD002094
:100F7C0005F8014DFFF7C8FD224601462846FFF74C
:100F8C0041FE21460020FFF7B7FD044B00221A81D9
:100F9C00034B03221A8003B030BD00BFF4000020C5
:100FAC001401002013B5012302AC002024F8023DEB
:100FBC00FFF7AAFD022201462046FFF723FE02217D
:100FCC000020FFF799FD044B00221A81034B0322EA
:100FDC001A8002B010BD00BFF400002014010020E4
:100FEC0008B50021044B08461981FFF785FD034B1A
:100FFC0003221A8008BD00BFF40000201401002059
:10100C0038B55B4D6C782B46082C7DD010D8012C54
:10101C002BD021D3052C49D0062C40F09C80554A6E
:10102C00138843F010031380BDE83840FFF77EBFF0
:10103C00202C72D00BD8092C40F08D804D4A13888F
:10104C0043F080031380BDE83840FFF7C9BF212C63
:10105C006FD0222C7BD07EE0464A138843F00103EC
:10106C001380BDE83840FFF79DBFA88800287DD0CD
:10107C00822805D14FF4C0610220FFF75FFD66E0C6
:10108C00002100F00F00FFF759FDAB881B0608D5B7
:10109C0020460021FFF730FD02212046FFF76FFDAF
:1010AC0055E003210846FFF77EFD50E0314A002150
:1010BC001388084643F008031380EA78AB7843EAB8
:1010CC0002232D4A1380FFF717FD00210120FFF7A3
:1010DC0035FD4FF4C0610220FFF730FD00210320E5
:1010EC00FFF72CFD02210120FFF749FD0021022012
:1010FC00FFF745FD03210846FFF755FD1F4A032363
:10110C0013801F4A138038BD1A4A138843F04003DA
:10111C001380BDE83840FFF727BF1A4B1A4A1C70E2
:10112C005A60AA79E97942EA01221A810322144B06
:10113C001BE00020FFF7E8FCEA8801461248FFF7A5
:10114C0061FD124B002058601881E98809E0BDE868
:10115C003840FFF79BBEDB8819463BB918460B4A53
:10116C001381FFF7C9FC054B03221A8038BD00BF61
:10117C00220100202E01002010010020140100206B
:10118C0012010020E80000201A010020F4000020C9
:10119C002DE9F0413A4F786C10F0100033D000205C
:1011AC00FFF715FD3C6814F400640FD00020FFF726
:1011BC00B3FC04460020FFF7B7FC21460246314839
:1011CC00FFF746FDBDE8F041FFF71ABF2046FFF7D9
:1011DC00ABFC2D4D30B92D4B03221A806860288151
:1011EC00BDE8F0812B78202B09D12046FFF794FC29
:1011FC002A8901462648FFF72BFD2C702C81BDE86F
:10120C00F041FFF743BE234DFFF7EDFC2C89224E36
:10121C00ECB1082C4FF0000094BFE4B20824D5F8D0
:10122C000480FFF771FCA7B201463A464046FFF72F
:10123C00E9FC6B6839461C442B890020DB1B2B8195
:10124C006C60FFF759FC03233380BDE8F081134B2E
:10125C001B884BB1FA6C520606D143F08003FB6439
:10126C003B6C43F400633B6400210846FFF744FCED
:10127C0002233380054B03221A80BDE8F08100BFA6
:10128C00005C004022010020E80000201201002038
:10129C001A010020F400002014010020100100208D
:1012AC0038B5224B224AB3F84440148004F00F04A2
:1012BC00012C31D01BD3032C33D12046FFF787FCF4
:1012CC002046FFF729FC05462046FFF72DFC294652
:1012DC0002461848FFF7BCFC2046FFF725FC164BCE
:1012EC00214618702046BDE83840FFF75CBC1B68EF
:1012FC00124D134CC3F30132C3F301132A80238024
:10130C00FFF746FF29880020FFF74DFC21880020BD
:10131C00BDE83840FFF733BC2046BDE83840FFF746
:10132C0062BC0320BDE83840FFF751BC005C0040B4
:10133C002C010020000100201601002012010020C9
:10134C0014010020340355006E006900760065001E
:10135C007200730061006C00200054006500730083
:10136C00740069006E00670020004D00610063008E
:10137C00680069006E0065001A03530056004100B6
:10138C00540053004D00300030003000300031006C
:10139C0030000403090409024300020100C03209B1
:1013AC0004000001020201000524001001052401C3
:1013BC00000104240202052406000107058203082B
:1013CC0000FF09040100020A020000070581024027
:1013DC0000000705030210000018035300560041DB
:1013EC0000480061007200640077006100720065C3
:1013FC00001201000202000008A00400010002011A
:10140C000203011F10101E11111E001F11101010CD
:10141C00101000060A0A0A0A1F110015150E040EF8
:10142C001515000609010601110E001111131519ED
:10143C001111000F090909090911001F11111111CE
:10144C001111001111110F01110E000E1515150EB1
:10145C000404001212121212121F011111110F01A9
:10146C000101001515151515151F00151515151568
:10147C00151F010E11010701110E001215151D1576
:10148C001512000F11110F09091100000E101E1179
:10149C00110E0000001C121E111E0000001F111066
:1014AC001010000000060A0A1F11000000150E049F
:1014BC000E150000000E0106110E00000011131590
:1014CC001911000A0411131519110000000709095C
:1014DC00091100000011111F11110000001F111142
:1014EC0011110000001F040404040000000E151567
:1014FC000E04000000121212121F01000011110F35
:10150C000101000000151515151F0000001515151B
:10151C00151F0118080A0D09090E000000111119F8
:10152C00151900000012151D1512000000070907FF
:10153C00091100003034303430343C000800011400
:10154C0006140E14A0006419B4000809750A65701D
:10155C0063610B6209610C20005465630E204D61C0
:10156C000D75096100586570636F09203230313791
:08157C0000081A121925201CB9
:101584003400002000000000000000000000000003
:10159400010203040607080900A24A04006000408F
:1015A400006000409E130008E51300085013000873
:0415B4008413000894
:040000050800010DE1
:00000001FF
