:020000040800F2
:1000000000500020CD010008D1010008D3010008F4
:10001000E9010008EB0100080102000800000000EF
:1000200000000000000000000000000017020008AF
:1000300019020008000000001B0200085D0500080E
:1000400031020008310200083102000831020008C4
:100050003102000831020008D1080008A908000890
:1000600031020008310200083102000831020008A4
:100070003102000831020008310200083102000894
:10008000310200083102000831020008190C000892
:10009000A90B0008310200083102000831020008F3
:1000A0003102000831020008310200083102000864
:1000B00031020008310200088D07000831020008F3
:1000C0003102000831020008310200083102000844
:1000D0003102000831020008310200083102000834
:1000E0002909000831020008310200080000000060
:1000F0000000000000000000000000000000000000
:1001000000000000000000005FF808F107B500F0F3
:100110002BF9234A234B24498B4204D252F8040F73
:1001200043F8040BF8E7214B214A0021934202D205
:1001300043F8041BFAE700F023F901A9684600F030
:100140000BF91C4B1C4C1E46E41AA4100025AC42B3
:1001500004DD56F8253098470135F8E7174B184C61
:100160001E46E41AA4100025AC4204DD56F82530E2
:1001700098470135F8E79DE8030000F0BDFB114BFF
:1001800006461D46104CE41AA410002C04DD013C68
:1001900055F824309847F8E7304600F0D9F800BF0A
:1001A000EC11000800000020340000203400002082
:1001B000DC0000205C0200085C0200085C02000811
:1001C0005C0200085C0200085C020008144800475A
:1001D000FEE71EF0040F0CBFEFF30880EFF3098079
:1001E0007146104A1047FEE7FEE71EF0040F0CBFF1
:1001F000EFF30880EFF3098071460B4A1047FEE7E2
:100200001EF0040F0CBFEFF30880EFF30980714676
:10021000064A1047FEE7FEE7FEE7FEE770470000EC
:100220000D010008E7010008FF01000815020008A1
:02023000FEE7E7
:10023400F01100080000002034000020F011000834
:10024400000000000000000034000020DC0000205A
:080254000000000000000000A2
:10025C0040F0BF60024B40F40030D860704700BFE4
:10026C0000ED00E0CA782DE9F041D40648BF8C7847
:10027C000E8802F00F0348BF234316F0FF0F1ED069
:10028C00016800244FF0010E4FF00F0C0EFA04F72A
:10029C0037EA06050FD1A5000CFA05F821EA08018A
:1002AC0003FA05F5282A41EA050101D1476102E06C
:1002BC00482A08BF07610134082CE7D10160FF2EE2
:1002CC0020D9416800244FF0010E4FF00F0C04F1BF
:1002DC0008050EFA05F535EA06070FD1A7000CFA4A
:1002EC0007F821EA080103FA07F7282A41EA07016F
:1002FC0001D1456102E0482A08BF05610134082C90
:10030C00E5D14160BDE8F081014B1860704700BF3A
:10031C00D8004242044B9A6909B1104301E022EA29
:10032C0000009861704700BF00100240044BDA696E
:10033C0009B1104301E022EA0000D861704700BF08
:10034C000010024008B500F017F80000012303600C
:10035C00014B0B60704700BF0000002008B500F097
:10036C001DF8024B024A9A6008BD00BF00ED00E088
:10037C000000000800F08CB8BFF34F8F0549064B06
:10038C00CA6802F4E0621343CB60BFF34F8F00BF27
:10039C00FDE700BF00ED00E00400FA05384B82B029
:1003AC001A6842F001021A605968364A0A405A60CB
:1003BC001A6822F0847222F480321A601A6822F4CD
:1003CC0080221A605A6822F4FE025A604FF41F020F
:1003DC009A600022009201921A6842F480321A60EC
:1003EC001A6802F400320192009A01320092019ACA
:1003FC001AB9009AB2F5A06FF2D11A6812F4003251
:10040C0018BF01220192019A012A05D01E4B4FF010
:10041C0000629A6002B070471C4A116841F01001EA
:10042C001160116821F003011160116841F00201A3
:10043C0011605A685A605A685A605A6842F480626D
:10044C005A605A6822F47C125A605A6842F4E812D4
:10045C005A601A6842F080721A601968084A890159
:10046C00FBD5516821F003015160516841F0020144
:10047C0051605A6802F00C02082AFAD1C6E700BF94
:10048C00001002400000FFF800ED00E000200240E8
:10049C00114A124B516801F00C01042901D00829B2
:1004AC0001D00F490EE051685068C1F38341C0037D
:1004BC0001F1020102D55068800301D5094800E022
:1004CC0007484143196052680749C2F30312895C1B
:1004DC001A68CA401A6070470010024018000020C9
:1004EC0000127A0000093D00080000200D4B00228C
:1004FC001A600D4B4FF47A711A600C4B1A700C4B3E
:10050C001B68B3FBF1F3013BB3F1807F08D20949BF
:10051C00F0204B60084B83F8230007238A600B60A4
:10052C00704700BF380000203C000020C5000020B0
:10053C001800002010E000E000ED00E0024B186015
:10054C001A68002AFCD170473C000020704700005C
:10055C0008B50C4B1A6812B11A68013A1A600A4AAB
:10056C0013781BB11378013BDBB21370074B1A687D
:10057C0032B11A68013A1A601B680BB9FFF7E6FF33
:10058C0008BD00BF3C000020C50000203800002042
:10059C00044A13780133DBB2282B08BF00231370F5
:1005AC00704700BF4000002011F0020F10B5144B33
:1005BC004FEAC10111D09A8B01F0080194B2C9B273
:1005CC0070228A4024EA02029A839A8B043100FA40
:1005DC0001F1114389B2998310BD1A8B01F0080106
:1005EC0094B2C9B270228A4024EA02021A831A8B8E
:1005FC00043100FA01F1114389B2198310BD00BF17
:10060C000008004010B5084C0023A38402210620EA
:10061C00FFF7CAFF238801229BB243F0010323801A
:10062C00024B1A7010BD00BF000800409300002060
:10063C0008B1FFF7ADBF044A13780133DBB2282BA6
:10064C0014BF1370107070479200002010B4124B3E
:10065C0012481C78124B30F81420C2F3032233F8E2
:10066C001210104B002A998503F58233D96810F8C3
:10067C00140001F47D41D960D96818BF002241EA09
:10068C000001D960D96808BF4FF400720A43DA60E0
:10069C00002010BCFFF7CCBF9200002042000020CD
:1006AC00E81100080008004008B5431E022B8CBF5F
:1006BC004FF400734FF48073084A18431278084BB8
:1006CC0023F81200FFF764FF064B1B782BB9FFF7DA
:1006DC00BDFFBDE80840FFF795BF08BD40000020F6
:1006EC0042000020930000201D4B4FF0113270B5DA
:1006FC001A605A681B4D22F0FF025A605A68002497
:10070C0042F019025A60184A0221D369042043F0BE
:10071C000403D3610123AC84AB8111232B85082303
:10072C00AB85A987FFF740FF2B8C4FF080429BB223
:10073C0043F480732B840D4B0D4E1C700D4B1C70B1
:10074C000D4B1C700D4B1A6036F81450013468B206
:10075C00FFF7AAFF280AFFF7F1FE082CF4D170BDB1
:10076C00000C0140000800400010024093000020E3
:10077C00D8110008920000204000002000E100E0A9
:10078C0010B5114C238ADB071CD5238A23F00103F7
:10079C001B041B0C23820D4B1A780D4B1B789A42B1
:1007AC0003D0BDE81040FFF751BF02210420FFF732
:1007BC00FBFE2388002223F001031B041B0C238067
:1007CC00044B1A7010BD00BF000800404000002010
:1007DC009200002093000020294A2DE9F3419369EF
:1007EC00012143F01C0393610846FFF793FD254E4E
:1007FC000020FFF789FD01214FF40000FFF796FD63
:10080C007368214C43F0007373604FF4A060FFF7E2
:10081C001FFDC02384F80633D02384F807338027C8
:10082C004FF04008902384F8147384F8138384F8F1
:10083C001E33182303258DF8073001A94FF4C0533C
:10084C001248ADF804308DF80650FFF70BFD104B35
:10085C001A6822F0FF021A601A6842F088021A60C5
:10086C00DD60222373600B4B00221D60DD600A4BA0
:10087C00C4F8008027601A7002B0BDE8F08100BF98
:10088C00001002400000014000E100E000080140BF
:10089C000010014000040140C6000020064A5369C4
:1008AC0043F002035361054B1A7822B9044A3121F3
:1008BC00117064221A70704700040140C5000020BA
:1008CC00C6000020064A536943F001035361054BEF
:1008DC001A7822B9044A3021117064221A707047B8
:1008EC0000040140C5000020C600002008B5FFF739
:1008FC00FDFDFFF771FF4FF4FA60FFF71FFE00F0EC
:10090C0027F8FFF7F1FE044A136943F480331361AF
:10091C006420FFF713FEFBE7000C0140094B5A69FA
:10092C00120542BF5A6942F400625A61064B9B6839
:10093C0013F4006F054B14BF20224FF400121A6100
:10094C00704700BF00040140001001400008014046
:10095C000B4B00221A800B4B4FF4801119600A4B81
:10096C004FF480611A65DA645A6402F180421964AA
:10097C0002F58832136843F000531360704700BFD0
:10098C00C800002000E100E0005C0040024B1B6846
:10099C0003EB0010818070471C000020024B00010B
:1009AC001B68185A704700BF1C000020024B1B68C4
:1009BC0003EB0010008970471C000020034B1B68E0
:1009CC0003EB00108089C0F3090070471C00002065
:1009DC00800000F1804000F5B840036841F400410C
:1009EC0023F0F003DB05DB0D41F0800119430160BE
:1009FC007047800000F1804000F5B840036823F098
:100A0C00F0035B055B0D43F4004343F0C00303604C
:100A1C007047800000F1804000F5B840036823F077
:100A2C00C0035B055B0D83EA011109B241F400417F
:100A3C0041F0800189B201607047800000F1804074
:100A4C0000F5B840036823F40F639B049B0C83EA06
:100A5C00013109B241F4004141F0800189B20160D9
:100A6C007047800000F1804000F5B840036823F027
:100A7C0070035B055B0D03607047800000F18040E4
:100A8C0000F5B840036823F4F14323F070031B0412
:100A9C001B0C036070470000114B013270B50A4407
:100AAC004C1C1D680130A4B292B2631E94429BB2DE
:100ABC0014D013F0010F4FEA53031DBF9BB210F873
:100ACC00016C35F8231010F8011C18BF41EA0621FF
:100ADC00013425F823100130A4B2E6E770BD00BF45
:100AEC002000002030B50A440A4C013892B29142E1
:100AFC000ED025684B0811F0010F16BF35F82330C6
:100B0C0015F823301B0A013100F8013F89B2EEE7DA
:100B1C0030BD00BF200000200B4B38211B68202269
:100B2C00198240211A809982102278219A80198486
:100B3C00302208211A8199844FF4805280219A81A5
:100B4C0019879A87704700BF1C00002010B5FFF76B
:100B5C00E3FF1049002247F2700351F8040F0340E1
:100B6C00134301329BB2082A0B60F4D10A4A0024C9
:100B7C00136C546443F4064313644FF40071204621
:100B8C00FFF726FF03212046FFF757FF8023D3648E
:100B9C0010BD00BFFC5B0040005C004010B51A4C5F
:100BAC00636C190403D5BDE8104000F061BA5A0417
:100BBC0006D56FF480436364BDE8104000F055B86F
:100BCC00980405D500F050F86FF40053636410BD21
:100BDC00590506D56FF480636364BDE8104000F0DE
:100BEC0027B89A0506D56FF400736364BDE810400E
:100BFC0000F039B8DB0506D56FF480736364BDE88B
:100C0C00104000F02FB810BD005C0040074B5B6C2F
:100C1C001A040AD503F00F039B0003F1804303F57C
:100C2C00B8431A6802F03F021A607047005C00403B
:100C3C0008B5FFF78BFF064A00231380054A138083
:100C4C00054A1370054A1381054A138108BD00BF7C
:100C5C00BE000020BC000020C40000209400002036
:100C6C00A00000207047704770477047002108B5FE
:100C7C000846FFF78BFE064B186810F0400001D1B8
:100C8C00FFF7B7FE034A03231380034A138008BD02
:100C9C00005C0040C2000020C000002070B50E4B6C
:100CAC000646DD880020082D2C4628BF0824FFF7B7
:100CBC0075FE224601463046FFF7EEFE074B2644F2
:100CCC002D1B214600205E601D81FFF75FFE044B4B
:100CDC0003221A8070BD00BFD2000020A0000020AB
:100CEC00C200002008B50021044B08461981FFF70B
:100CFC004DFE034B03221A8008BD00BFA00000204C
:100D0C00C20000200A4B5B88180A022805D0032871
:100D1C0006D0012809D1074800E00748FFF7BEBFFD
:100D2C00064ADBB252F82300F8E7FFF7DBBF00BF3F
:100D3C00D2000020C51100086A1100082400002010
:100D4C0037B5012402AD002005F8014DFFF726FE52
:100D5C00224601462846FFF79FFE21460020FFF75A
:100D6C0015FE044B00221A81034B03221A8003B098
:100D7C0030BD00BFA0000020C200002013B501232D
:100D8C0002AC002024F8023DFFF708FE02220146C7
:100D9C002046FFF781FE02210020FFF7F7FD044BF0
:100DAC0000221A81034B03221A8002B010BD00BF2F
:100DBC00A0000020C200002008B50021044B08460A
:100DCC001981FFF7E3FD034B03221A8008BD00BF16
:100DDC00A0000020C200002038B55B4D6C782B467B
:100DEC00082C7DD010D8012C2BD021D3052C49D028
:100DFC00062C40F09C80554A138843F01003138056
:100E0C00BDE83840FFF77EBF202C72D00BD8092CE0
:100E1C0040F08D804D4A138843F080031380BDE869
:100E2C003840FFF7C9BF212C6FD0222C7BD07EE03D
:100E3C00464A138843F001031380BDE83840FFF79E
:100E4C009DBFA88800287DD0822805D14FF4C061B1
:100E5C000220FFF7BDFD66E0002100F00F00FFF758
:100E6C00B7FDAB881B0608D520460021FFF78EFD89
:100E7C0002212046FFF7CDFD55E003210846FFF780
:100E8C00DCFD50E0314A00211388084643F008038A
:100E9C001380EA78AB7843EA02232D4A1380FFF7DC
:100EAC0075FD00210120FFF793FD4FF4C061022076
:100EBC00FFF78EFD00210320FFF78AFD02210120A0
:100ECC00FFF7A7FD00210220FFF7A3FD0321084631
:100EDC00FFF7B3FD1F4A032313801F4A138038BD4D
:100EEC001A4A138843F040031380BDE83840FFF7DB
:100EFC0027BF1A4B1A4A1C705A60AA79E97942EA40
:100F0C0001221A810322144B1BE00020FFF746FD3F
:100F1C00EA8801461248FFF7BFFD124B00205860CB
:100F2C001881E98809E0BDE83840FFF79FBEDB88EF
:100F3C0019463BB918460B4A1381FFF727FD054BA1
:100F4C0003221A8038BD00BFD2000020BE00002052
:100F5C00BC000020C2000020C00000209400002033
:100F6C00CA000020A00000202DE9F041384E706C22
:100F7C0010F0100033D00020FFF773FD346814F428
:100F8C0000640FD00020FFF711FD04460020FFF78E
:100F9C0015FD214602462F48FFF7A4FDBDE8F041A0
:100FAC00FFF71ABF2046FFF709FD2B4D30B92B4B2D
:100FBC0003221A8068602881BDE8F0812B78202BF1
:100FCC0009D12046FFF7F2FC2A8901462448FFF795
:100FDC0089FD2C702C81BDE8F041FFF747BE214DF7
:100FEC00FFF74BFD2C89204FECB1082C4FF0000083
:100FFC0094BFE4B20824D5F80480FFF7CFFCA6B266
:10100C00014632464046FFF747FD6B6831461C44AB
:10101C002B8900209B1B2B816C60FFF7B7FC0323F3
:10102C003B80BDE8F081114B1B882BB1F26C520652
:10103C0004BF43F08003F36400210846FFF7A6FCCD
:10104C0002233B80054B03221A80BDE8F08100BFD0
:10105C00005C0040D200002094000020C000002062
:10106C00CA000020A0000020C2000020BC0000200C
:10107C0038B5214B5C6C04F00F04012C31D01BD320
:10108C00032C33D12046FFF7ECFC2046FFF78EFCF7
:10109C0005462046FFF792FC294602461748FFF703
:1010AC0021FD2046FFF78AFC154B2146187020467F
:1010BC00BDE83840FFF7C1BC1B68124D124CC3F39E
:1010CC000132C3F301132A802380FFF74DFF2988D7
:1010DC000020FFF7B2FC21880020BDE83840FFF764
:1010EC0098BC2046BDE83840FFF7C7BC0320BDE8DC
:1010FC003840FFF7B6BC00BF005C0040AC000020DD
:10110C00C4000020C0000020C200002034035500A1
:10111C006E006900760065007200730061006C005F
:10112C002000540065007300740069006E006700B5
:10113C0020004D0061006300680069006E006500CE
:10114C001A03530056004100540053004D00300068
:10115C003000300030003100300004030904090273
:10116C004300020100C03209040000010202010028
:10117C0005240010010524010001042402020524A9
:10118C00060001070582030800FF09040100020A9A
:10119C000200000705810240000007050302100051
:1011AC0000180353005600410048006100720064AF
:1011BC00007700610072006500120100020200005D
:1011CC0008A0040001000201020301003034303495
:1011DC0030343C000800011406140E000700701790
:0211EC00A00061
:1011F000340000200000000000000000000000009B
:10120000010203040607080900A24A040060004026
:101210000060004066110008AD11000818110008B8
:041220004C11000865
:040000050800010DE1
:00000001FF
