:020000040800F2
:1000000000500020CD010008D1010008D3010008F4
:10001000E9010008EB0100080102000800000000EF
:1000200000000000000000000000000017020008AF
:1000300019020008000000001B0200081D02000851
:1000400031020008310200083102000831020008C4
:1000500031020008310200083102000831020008B4
:1000600031020008310200083102000831020008A4
:100070003102000831020008310200083102000894
:100080003102000831020008310200083102000884
:100090003102000831020008310200083102000874
:1000A0003102000831020008310200083102000864
:1000B0003102000831020008310200083102000854
:1000C0003102000831020008310200083102000844
:1000D0003102000831020008310200083102000834
:1000E000CD050008310200083102000800000000C0
:1000F0000000000000000000000000000000000000
:1001000000000000000000005FF808F107B500F0F3
:1001100021F9234A234B24498B4204D252F8040F7D
:1001200043F8040BF8E7214B214A0021934202D205
:1001300043F8041BFAE700F019F901A9684600F03A
:1001400001F91C4B1C4C1E46E41AA4100025AC42BD
:1001500004DD56F8253098470135F8E7174B184C61
:100160001E46E41AA4100025AC4204DD56F82530E2
:1001700098470135F8E79DE8030000F023FA114B9A
:1001800006461D46104CE41AA410002C04DD013C68
:1001900055F824309847F8E7304600F0CFF800BF14
:1001A000FC050008000000201C0000201C000020AE
:1001B000200000205C0200085C0200085C020008CD
:1001C0005C0200085C0200085C020008144800475A
:1001D000FEE71EF0040F0CBFEFF30880EFF3098079
:1001E0007146104A1047FEE7FEE71EF0040F0CBFF1
:1001F000EFF30880EFF3098071460B4A1047FEE7E2
:100200001EF0040F0CBFEFF30880EFF30980714676
:10021000064A1047FEE7FEE7FEE7FEE770470000EC
:100220000D010008E7010008FF01000815020008A1
:02023000FEE7E7
:1002340000060008000000201C0000200006000842
:1002440000000000000000001C000020200000202E
:080254000000000000000000A2
:10025C00CA782DE9F041D40648BF8C780E8802F09C
:10026C000F0348BF234316F0FF0F1ED00168002474
:10027C004FF0010E4FF00F0C0EFA04F737EA06059B
:10028C000FD1A5000CFA05F821EA080103FA05F5CF
:10029C00282A41EA050101D1476102E0482A08BF3A
:1002AC0007610134082CE7D10160FF2E20D9416889
:1002BC0000244FF0010E4FF00F0C04F108050EFA5C
:1002CC0005F535EA06070FD1A7000CFA07F821EA65
:1002DC00080103FA07F7282A41EA070101D1456111
:1002EC0002E0482A08BF05610134082CE5D14160C1
:1002FC00BDE8F081014B1860704700BFD800424246
:10030C00044B9A6909B1104301E022EA000098619C
:10031C00704700BF00100240044BDA6909B110436A
:10032C0001E022EA0000D861704700BF00100240D3
:10033C0008B500F017F8000001230360014B0B60B7
:10034C00704700BF0000002008B500F01DF8024BFC
:10035C00024A9A6008BD00BF00ED00E000000008F2
:10036C0000F08CB8BFF34F8F0549064BCA6802F4F6
:10037C00E0621343CB60BFF34F8F00BFFDE700BFBC
:10038C0000ED00E00400FA05384B82B01A6842F028
:10039C0001021A605968364A0A405A601A6822F0FB
:1003AC00847222F480321A601A6822F480221A6055
:1003BC005A6822F4FE025A604FF41F029A6000221F
:1003CC00009201921A6842F480321A601A6802F4A0
:1003DC0000320192009A01320092019A1AB9009AE5
:1003EC00B2F5A06FF2D11A6812F4003218BF0122D4
:1003FC000192019A012A05D01E4B4FF000629A60BF
:10040C0002B070471C4A116841F01001116011686C
:10041C0021F003011160116841F0020111605A686A
:10042C005A605A685A605A6842F480625A605A6834
:10043C0022F47C125A605A6842F4E8125A601A6824
:10044C0042F080721A601968084A8901FBD551681C
:10045C0021F003015160516841F0020151605A686A
:10046C0002F00C02082AFAD1C6E700BF00100240C5
:10047C000000FFF800ED00E000200240114A124B92
:10048C00516801F00C01042901D0082901D00F4951
:10049C000EE051685068C1F38341C00301F10201C1
:1004AC0002D55068800301D5094800E00748414354
:1004BC00196052680749C2F30312895C1A68CA4072
:1004CC001A607047001002401800002000127A00D9
:1004DC0000093D000800002037B50020FFF70AFF97
:1004EC0001214FF40000FFF717FF01210420FFF753
:1004FC0007FF01211020FFF703FF01210846FFF73A
:10050C00FFFE294D18238DF807304FF4C053ADF87A
:10051C00043001A9032328468DF80630FFF798FE16
:10052C00102301248DF8073001A920232846ADF8AB
:10053C0004308DF80640FFF78BFE04238DF807304E
:10054C004FF400631D4401A92846ADF804308DF822
:10055C000640FFF77DFE14238DF8073001A94FF4F8
:10056C0080532846ADF804308DF80640FFF770FE36
:10057C000E4A136943F4005313610D4B1A6842F48D
:10058C0000621A609A6842F400629A60DA6842F477
:10059C000062DA60074B4FF480725A604FF480129D
:1005AC001A6003B030BD00BF0008014000000140DC
:1005BC000004014000E100E008B5FFF78DFFFEE705
:1005CC000A4B5A69120510D55A6942F400625A61F5
:1005DC0003F540639B6813F4006F054B1A6914BF55
:1005EC0042F0200242F400121A61704700040140EC
:0405FC0000080140B2
:100600001C000020000000000000000000000000AE
:0C061000010203040607080900A24A04C6
:040000050800010DE1
:00000001FF
