:020000040800F2
:1000000000500020CD010008D1010008D3010008F4
:10001000E9010008EB0100080102000800000000EF
:1000200000000000000000000000000017020008AF
:1000300019020008000000001B0200085D0500080E
:1000400031020008310200083102000831020008C4
:100050003102000831020008ED080008C508000858
:1000600031020008310200083102000831020008A4
:100070003102000831020008310200083102000894
:10008000310200083102000831020008950C000816
:10009000250C000831020008310200083102000876
:1000A0003102000831020008310200083102000864
:1000B00031020008310200089D07000831020008E3
:1000C0003102000831020008310200083102000844
:1000D0003102000831020008310200083102000834
:1000E000A1090008310200083102000800000000E8
:1000F0000000000000000000000000000000000000
:1001000000000000000000005FF808F107B500F0F3
:100110002BF9234A234B24498B4204D252F8040F73
:1001200043F8040BF8E7214B214A0021934202D205
:1001300043F8041BFAE700F023F901A9684600F030
:100140000BF91C4B1C4C1E46E41AA4100025AC42B3
:1001500004DD56F8253098470135F8E7174B184C61
:100160001E46E41AA4100025AC4204DD56F82530E2
:1001700098470135F8E79DE8030000F0CBFB114BF1
:1001800006461D46104CE41AA410002C04DD013C68
:1001900055F824309847F8E7304600F0D9F800BF0A
:1001A000D812000800000020340000203400002095
:1001B0002C0100205C0200085C0200085C020008C0
:1001C0005C0200085C0200085C020008144800475A
:1001D000FEE71EF0040F0CBFEFF30880EFF3098079
:1001E0007146104A1047FEE7FEE71EF0040F0CBFF1
:1001F000EFF30880EFF3098071460B4A1047FEE7E2
:100200001EF0040F0CBFEFF30880EFF30980714676
:10021000064A1047FEE7FEE7FEE7FEE770470000EC
:100220000D010008E7010008FF01000815020008A1
:02023000FEE7E7
:10023400DC1200080000002034000020DC1200085A
:100244000000000000000000340000202C01002009
:080254000000000000000000A2
:10025C0040F0BF60024B40F40030D860704700BFE4
:10026C0000ED00E0CA782DE9F041D40648BF8C7847
:10027C000E8802F00F0348BF234316F0FF0F1ED069
:10028C00016800244FF0010E4FF00F0C0EFA04F72A
:10029C0037EA06050FD1A5000CFA05F821EA08018A
:1002AC0003FA05F5282A41EA050101D1476102E06C
:1002BC00482A08BF07610134082CE7D10160FF2EE2
:1002CC0020D9416800244FF0010E4FF00F0C04F1BF
:1002DC0008050EFA05F535EA06070FD1A7000CFA4A
:1002EC0007F821EA080103FA07F7282A41EA07016F
:1002FC0001D1456102E0482A08BF05610134082C90
:10030C00E5D14160BDE8F081014B1860704700BF3A
:10031C00D8004242044B9A6909B1104301E022EA29
:10032C0000009861704700BF00100240044BDA696E
:10033C0009B1104301E022EA0000D861704700BF08
:10034C000010024008B500F017F80000012303600C
:10035C00014B0B60704700BF0000002008B500F097
:10036C001DF8024B024A9A6008BD00BF00ED00E088
:10037C000000000800F08CB8BFF34F8F0549064B06
:10038C00CA6802F4E0621343CB60BFF34F8F00BF27
:10039C00FDE700BF00ED00E00400FA05384B82B029
:1003AC001A6842F001021A605968364A0A405A60CB
:1003BC001A6822F0847222F480321A601A6822F4CD
:1003CC0080221A605A6822F4FE025A604FF41F020F
:1003DC009A600022009201921A6842F480321A60EC
:1003EC001A6802F400320192009A01320092019ACA
:1003FC001AB9009AB2F5A06FF2D11A6812F4003251
:10040C0018BF01220192019A012A05D01E4B4FF010
:10041C0000629A6002B070471C4A116841F01001EA
:10042C001160116821F003011160116841F00201A3
:10043C0011605A685A605A685A605A6842F480626D
:10044C005A605A6822F47C125A605A6842F4E812D4
:10045C005A601A6842F080721A601968084A890159
:10046C00FBD5516821F003015160516841F0020144
:10047C0051605A6802F00C02082AFAD1C6E700BF94
:10048C00001002400000FFF800ED00E000200240E8
:10049C00114A124B516801F00C01042901D00829B2
:1004AC0001D00F490EE051685068C1F38341C0037D
:1004BC0001F1020102D55068800301D5094800E022
:1004CC0007484143196052680749C2F30312895C1B
:1004DC001A68CA401A6070470010024018000020C9
:1004EC0000127A0000093D00080000200D4B00228C
:1004FC001A600D4B4FF47A711A600C4B1A700C4B3E
:10050C001B68B3FBF1F3013BB3F1807F08D20949BF
:10051C00F0204B60084B83F8230007238A600B60A4
:10052C00704700BF380000203C000020150100205F
:10053C001800002010E000E000ED00E0024B186015
:10054C001A68002AFCD170473C000020704700005C
:10055C0008B50C4B1A6812B11A68013A1A600A4AAB
:10056C0013781BB11378013BDBB21370074B1A687D
:10057C0032B11A68013A1A601B680BB9FFF7E6FF33
:10058C0008BD00BF3C0000201501002038000020F1
:10059C00044A13780133DBB2502B08BF00231370CD
:1005AC00704700BF4000002008B1FFF7F1BF044ABC
:1005BC0013780133DBB2502B14BF137010707047DB
:1005CC00E200002038B52349234B24481C788B8B40
:1005DC0030F8142023F078031B041B0C8B838B8BBB
:1005EC00C2F303229BB243F040038B831C4B002AC3
:1005FC0033F8123018BF00228B854FF00A038B871B
:10060C008B8B08BF4FF4007223F078031B041B0C78
:10061C008B838B8B9BB243F068038B830B889BB2D1
:10062C0043F009030B800F4B10F81400DD6805F440
:10063C007D45DD60DD682843D860D8680243DA6008
:10064C000020FFF7B1FF00238B87074B01221A70A4
:10065C0038BD00BF00080040E2000020420000202E
:10066C009C120008000C0140E300002008B5074B69
:10067C001A78074B23F81200FFF78AFF054B1B78FB
:10068C001BB9BDE80840FFF79DBF08BD4000002026
:10069C0042000020E300002010B5441E14F9010FA5
:1006AC0010B1FFF7E3FFF9E710BD000008B5431EDA
:1006BC00022B8CBF4FF400734FF48073074A18431E
:1006CC001278074B23F81200FFF762FF054B1B78DB
:1006DC001BB9BDE80840FFF775BF08BD40000020FE
:1006EC0042000020E3000020224B4FF0113270B585
:1006FC001A605A68012122F0FF025A605A681E4E95
:10070C0042F019025A601D4AD36943F00403D361C5
:10071C0000231C46A2F5023293849181112111858C
:10072C00122191859387918B21F078010904090C92
:10073C009183918B89B241F040019183118C89B2E4
:10074C0041F4807111840E4A4FF0804113700D4AB0
:10075C0013700D4A13700D4A116036F814500134A1
:10076C0068B2FFF7A3FF280AFFF7E8FE082CF4D1C4
:10077C0070BD00BF000C01408C120008001002403C
:10078C00E3000020E20000204000002000E100E037
:10079C00104B1A8AD2071BD51A8A22F001021204B6
:1007AC00120C1A820C4A11780C4A1278914201D020
:1007BC00FFF708BF9A8B22F078021204120C9A836E
:1007CC009A8B92B242F040029A83054B00221A7027
:1007DC00704700BF0008004040000020E2000020ED
:1007EC00E3000020294A2DE9F3419369012143F0EC
:1007FC001C0393610846FFF78DFD254E0020FFF783
:10080C0083FD01214FF40000FFF790FD7368214C2C
:10081C0043F0007373604FF4A060FFF719FDC02321
:10082C0084F80633D02384F8073380274FF0400830
:10083C00902384F8147384F8138384F81E331823DC
:10084C0003258DF8073001A94FF4C0531248ADF8B9
:10085C0004308DF80650FFF705FD104B1A6822F096
:10086C00FF021A601A6842F088021A60DD602223C7
:10087C00B3600B4B00221D60DD600A4BC4F8008096
:10088C0027601A7002B0BDE8F08100BF0010024072
:10089C000000014000E100E00008014000100140B0
:1008AC000004014016010020024B002218781A7037
:1008BC00704700BF16010020064A536943F002033B
:1008CC005361054B1A7822B9044A31211170642204
:1008DC001A70704700040140150100201601002019
:1008EC00064A536943F001035361054B1A7822B948
:1008FC00044A3021117064221A70704700040140C0
:10090C0015010020160100201FB5FFF7EFFDFFF7C2
:10091C0069FF4FF4FA60FFF711FE00F055F8FFF78E
:10092C00E3FE1848FFF7B8FE6FF03F00FFF7BEFE7E
:10093C001548FFF7B1FE6FF06B00FFF7B7FE1348D9
:10094C00FFF7AAFE6FF02B00FFF7B0FE1048FFF781
:10095C00A3FE0024FFF7A8FF302802D10120FFF7E7
:10096C00A5FE00F0B9F948B1684600F09FF904AB58
:10097C00184400F8104C6846FFF78EFE6420FFF711
:10098C00DDFDE7E7A2120008B2120008C31200084E
:10099C00D0120008094B5A69120542BF5A6942F439
:1009AC0000625A61064B9B6813F4006F054B14BF31
:1009BC0020224FF400121A61704700BF000401405E
:1009CC0000100140000801400B4B00221A800B4B19
:1009DC004FF4801119600A4B4FF480611A65DA6488
:1009EC005A6402F18042196402F58832136843F0AC
:1009FC0000531360704700BF1801002000E100E0B5
:100A0C00005C0040024B1B6803EB001081807047B8
:100A1C001C000020024B00011B68185A704700BFD5
:100A2C001C000020024B1B6803EB00100089704770
:100A3C001C000020034B1B6803EB00108089C0F3E3
:100A4C00090070471C000020800000F1804000F578
:100A5C00B840036841F4004123F0F003DB05DB0DE3
:100A6C0041F08001194301607047800000F1804023
:100A7C0000F5B840036823F0F0035B055B0D43F40D
:100A8C00004343F0C00303607047800000F18040D6
:100A9C0000F5B840036823F0C0035B055B0D83EAE7
:100AAC00011109B241F4004141F0800189B20160A9
:100ABC007047800000F1804000F5B840036823F4D3
:100ACC000F639B049B0C83EA013109B241F4004192
:100ADC0041F0800189B201607047800000F18040D4
:100AEC0000F5B840036823F070035B055B0D0360F1
:100AFC007047800000F1804000F5B840036823F493
:100B0C00F14323F070031B041B0C036070470000BF
:100B1C00114B013270B50A444C1C1D680130A4B253
:100B2C0092B2631E94429BB214D013F0010F4FEAA1
:100B3C0053031DBF9BB210F8016C35F8231010F84D
:100B4C00011C18BF41EA0621013425F8231001309D
:100B5C00A4B2E6E770BD00BF2000002030B50A4407
:100B6C000A4C013892B291420ED025684B0811F014
:100B7C00010F16BF35F8233015F823301B0A01314D
:100B8C0000F8013F89B2EEE730BD00BF2000002025
:100B9C000C4B20221B681A8010229A8030221A815A
:100BAC004FF480529A8138221A8240229A827822FB
:100BBC001A8408229A8480221A874FF400529A874A
:100BCC00704700BF1C00002010B5FFF7E1FF104973
:100BDC00002247F2700351F8040F03401343013213
:100BEC009BB2082A0B60F4D10A4A0024136C54649B
:100BFC0043F4064313644FF400712046FFF724FFBF
:100C0C0003212046FFF755FF8023D36410BD00BF9E
:100C1C00FC5B0040005C004010B51A4C636C19047E
:100C2C0003D5BDE8104000F07DBA5A0406D56FF428
:100C3C0080436364BDE8104000F071B8980405D59A
:100C4C0000F06CF86FF40053636410BD590506D5C1
:100C5C006FF480636364BDE8104000F043B89A05FC
:100C6C0006D56FF400736364BDE8104000F055B80E
:100C7C00DB0506D56FF480736364BDE8104000F0AB
:100C8C004BB810BD005C0040074B5B6C1A040AD5D6
:100C9C0003F00F039B0003F1804303F5B8431A687C
:100CAC0002F03F021A607047005C004030B5084B00
:100CBC00084D1C78411E621E0244914204D015F866
:100CCC00010F01F8010FF8E700221A70204630BD21
:100CDC0014010020FB000020014B1878704700BF66
:100CEC001401002008B5FFF76FFF064A002313809C
:100CFC00054A1380054A1370054A1381054A13816E
:100D0C0008BD00BF0E0100200C01002014010020C2
:100D1C00E4000020F00000207047704770477047D7
:100D2C00002108B50846FFF76DFE064B186810F059
:100D3C00400001D1FFF799FE034A03231380034AB5
:100D4C00138008BD005C004012010020100100203F
:100D5C0070B50E4B0646DD880020082D2C4628BFAA
:100D6C000824FFF757FE224601463046FFF7D0FE17
:100D7C00074B26442D1B214600205E601D81FFF78A
:100D8C0041FE044B03221A8070BD00BF22010020DB
:100D9C00F00000201201002008B50021044B084689
:100DAC001981FFF72FFE034B03221A8008BD00BFE9
:100DBC00F0000020120100200A4B5B88180A022860
:100DCC0005D0032806D0012809D1074800E00748C0
:100DDC00FFF7BEBF064ADBB252F82300F8E7FFF775
:100DEC00DBBF00BF22010020791200081E12000890
:100DFC002400002037B5012402AD002005F8014D78
:100E0C00FFF708FE224601462846FFF781FE2146E1
:100E1C000020FFF7F7FD044B00221A81034B03223D
:100E2C001A8003B030BD00BFF0000020120100207A
:100E3C0013B5012302AC002024F8023DFFF7EAFDB4
:100E4C00022201462046FFF763FE02210020FFF735
:100E5C00D9FD044B00221A81034B03221A8002B0E5
:100E6C0010BD00BFF00000201201002008B50021C9
:100E7C00044B08461981FFF7C5FD034B03221A806A
:100E8C0008BD00BFF00000201201002038B55B4DFA
:100E9C006C782B46082C7DD010D8012C2BD021D36C
:100EAC00052C49D0062C40F09C80554A138843F001
:100EBC0010031380BDE83840FFF77EBF202C72D0A2
:100ECC000BD8092C40F08D804D4A138843F08003D9
:100EDC001380BDE83840FFF7C9BF212C6FD0222CFE
:100EEC007BD07EE0464A138843F001031380BDE8B3
:100EFC003840FFF79DBFA88800287DD0822805D1F7
:100F0C004FF4C0610220FFF79FFD66E0002100F066
:100F1C000F00FFF799FDAB881B0608D52046002172
:100F2C00FFF770FD02212046FFF7AFFD55E00321CE
:100F3C000846FFF7BEFD50E0314A002113880846F1
:100F4C0043F008031380EA78AB7843EA02232D4A76
:100F5C001380FFF757FD00210120FFF775FD4FF4BB
:100F6C00C0610220FFF770FD00210320FFF76CFD2C
:100F7C0002210120FFF789FD00210220FFF785FDEA
:100F8C0003210846FFF795FD1F4A032313801F4AD0
:100F9C00138038BD1A4A138843F040031380BDE810
:100FAC003840FFF727BF1A4B1A4A1C705A60AA79AF
:100FBC00E97942EA01221A810322144B1BE000203A
:100FCC00FFF728FDEA8801461248FFF7A1FD124BF6
:100FDC00002058601881E98809E0BDE83840FFF727
:100FEC009FBEDB8819463BB918460B4A1381FFF7A5
:100FFC0009FD054B03221A8038BD00BF22010020D9
:10100C000E0100200C010020120100201001002014
:10101C00E40000201A010020F00000202DE9F0412E
:10102C00384E706C10F0100033D00020FFF755FDD7
:10103C00346814F400640FD00020FFF7F3FC04466E
:10104C000020FFF7F7FC214602462F48FFF786FDEC
:10105C00BDE8F041FFF71ABF2046FFF7EBFC2B4D24
:10106C0030B92B4B03221A8068602881BDE8F081CF
:10107C002B78202B09D12046FFF7D4FC2A89014676
:10108C002448FFF76BFD2C702C81BDE8F041FFF775
:10109C0047BE214DFFF72DFD2C89204FECB1082CBC
:1010AC004FF0000094BFE4B20824D5F80480FFF799
:1010BC00B1FCA6B2014632464046FFF729FD6B68EB
:1010CC0031461C442B8900209B1B2B816C60FFF745
:1010DC0099FC03233B80BDE8F081114B1B882BB19D
:1010EC00F26C520604BF43F08003F36400210846FF
:1010FC00FFF788FC02233B80054B03221A80BDE8D6
:10110C00F08100BF005C004022010020E4000020C0
:10111C00100100201A010020F00000201201002014
:10112C000C01002038B5214B5C6C04F00F04012C31
:10113C0031D01BD3032C33D12046FFF7CEFC2046F5
:10114C00FFF770FC05462046FFF774FC2946024663
:10115C001748FFF703FD2046FFF76CFC154B2146A3
:10116C0018702046BDE83840FFF7A3BC1B68124D31
:10117C00124CC3F30132C3F301132A802380FFF70F
:10118C004DFF29880020FFF794FC21880020BDE842
:10119C003840FFF77ABC2046BDE83840FFF7A9BCC1
:1011AC000320BDE83840FFF798BC00BF005C00404E
:1011BC00FC0000201401002010010020120100206E
:1011CC00340355006E0069007600650072007300F0
:1011DC0061006C002000540065007300740069000D
:1011EC006E00670020004D0061006300680069001C
:1011FC006E0065001A035300560041005400530062
:10120C004D0030003000300030003100300004035D
:10121C00090409024300020100C032090400000164
:10122C000202010005240010010524010001042420
:10123C0002020524060001070582030800FF0904C9
:10124C000100020A020000070581024000000705A8
:10125C0003021000001803530056004100480061BF
:10126C0000720064007700610072006500120100DA
:10127C000202000008A004000100020102030100A8
:10128C003034303430343C000800011406140E1491
:10129C00A0006419B40048656C6C6F20576F726CB9
:1012AC0064202121210046726F6D2056616C65729D
:1012BC00697920212121004B686572736F6E203291
:0E12CC0030313700556E6976657273616C00C3
:1012DC0034000020000000000000000000000000AE
:1012EC00010203040607080900A24A04006000403A
:1012FC00006000401A12000861120008CC110008AE
:04130C0000120008C3
:040000050800010DE1
:00000001FF
