:020000040800F2
:1000000000500020CD010008D1010008D3010008F4
:10001000E9010008EB0100080102000800000000EF
:1000200000000000000000000000000017020008AF
:1000300019020008000000001B020008410500082A
:1000400031020008310200083102000831020008C4
:1000500031020008310200083102000831020008B4
:1000600031020008310200083102000831020008A4
:100070003102000831020008310200083102000894
:100080003102000831020008310200080D090008A1
:100090009D08000831020008310200083102000802
:1000A0003102000831020008310200083102000864
:1000B0003102000831020008310200083102000854
:1000C0003102000831020008310200083102000844
:1000D0003102000831020008310200083102000834
:1000E0002506000831020008310200080000000067
:1000F0000000000000000000000000000000000000
:1001000000000000000000005FF808F107B500F0F3
:1001100021F9234A234B24498B4204D252F8040F7D
:1001200043F8040BF8E7214B214A0021934202D205
:1001300043F8041BFAE700F019F901A9684600F03A
:1001400001F91C4B1C4C1E46E41AA4100025AC42BD
:1001500004DD56F8253098470135F8E7174B184C61
:100160001E46E41AA4100025AC4204DD56F82530E2
:1001700098470135F8E79DE8030000F03BFA114B82
:1001800006461D46104CE41AA410002C04DD013C68
:1001900055F824309847F8E7304600F0CFF800BF14
:1001A000A80D0008000000203400002034000020CA
:1001B000600000205C0200085C0200085C0200088D
:1001C0005C0200085C0200085C020008144800475A
:1001D000FEE71EF0040F0CBFEFF30880EFF3098079
:1001E0007146104A1047FEE7FEE71EF0040F0CBFF1
:1001F000EFF30880EFF3098071460B4A1047FEE7E2
:100200001EF0040F0CBFEFF30880EFF30980714676
:10021000064A1047FEE7FEE7FEE7FEE770470000EC
:100220000D010008E7010008FF01000815020008A1
:02023000FEE7E7
:10023400AC0D00080000002034000020AC0D0008C4
:1002440000000000000000003400002060000020D6
:080254000000000000000000A2
:10025C00CA782DE9F041D40648BF8C780E8802F09C
:10026C000F0348BF234316F0FF0F1ED00168002474
:10027C004FF0010E4FF00F0C0EFA04F737EA06059B
:10028C000FD1A5000CFA05F821EA080103FA05F5CF
:10029C00282A41EA050101D1476102E0482A08BF3A
:1002AC0007610134082CE7D10160FF2E20D9416889
:1002BC0000244FF0010E4FF00F0C04F108050EFA5C
:1002CC0005F535EA06070FD1A7000CFA07F821EA65
:1002DC00080103FA07F7282A41EA070101D1456111
:1002EC0002E0482A08BF05610134082CE5D14160C1
:1002FC00BDE8F081014B1860704700BFD800424246
:10030C00044B9A6909B1104301E022EA000098619C
:10031C00704700BF00100240044BDA6909B110436A
:10032C0001E022EA0000D861704700BF00100240D3
:10033C0008B500F017F8000001230360014B0B60B7
:10034C00704700BF0000002008B500F01DF8024BFC
:10035C00024A9A6008BD00BF00ED00E000000008F2
:10036C0000F08CB8BFF34F8F0549064BCA6802F4F6
:10037C00E0621343CB60BFF34F8F00BFFDE700BFBC
:10038C0000ED00E00400FA05384B82B01A6842F028
:10039C0001021A605968364A0A405A601A6822F0FB
:1003AC00847222F480321A601A6822F480221A6055
:1003BC005A6822F4FE025A604FF41F029A6000221F
:1003CC00009201921A6842F480321A601A6802F4A0
:1003DC0000320192009A01320092019A1AB9009AE5
:1003EC00B2F5A06FF2D11A6812F4003218BF0122D4
:1003FC000192019A012A05D01E4B4FF000629A60BF
:10040C0002B070471C4A116841F01001116011686C
:10041C0021F003011160116841F0020111605A686A
:10042C005A605A685A605A6842F480625A605A6834
:10043C0022F47C125A605A6842F4E8125A601A6824
:10044C0042F080721A601968084A8901FBD551681C
:10045C0021F003015160516841F0020151605A686A
:10046C0002F00C02082AFAD1C6E700BF00100240C5
:10047C000000FFF800ED00E000200240114A124B92
:10048C00516801F00C01042901D0082901D00F4951
:10049C000EE051685068C1F38341C00301F10201C1
:1004AC0002D55068800301D5094800E00748414354
:1004BC00196052680749C2F30312895C1A68CA4072
:1004CC001A607047001002401800002000127A00D9
:1004DC0000093D00080000200C4B002119600C4B5A
:1004EC004FF47A7219600B4B1B68B3FBF2F3013BB0
:1004FC00B3F1807F08D2084AF0205360074B83F891
:10050C002300072391601360704700BF3800002060
:10051C003C0000201800002010E000E000ED00E09E
:10052C00024B18601A68002AFCD170473C0000206E
:10053C007047000008B50C4B1A6812B11A68013AE2
:10054C001A600A4A13781BB11378013BDBB21370A3
:10055C00074B1A6832B11A68013A1A601B680BB95A
:10056C00FFF7E6FF08BD00BF3C000020480000205C
:10057C003800002007B501210420FFF7C1FE01213E
:10058C001020FFF7BDFE154A01219369084643F080
:10059C0008039361FFF7B4FE0020FFF7ABFE0121C7
:1005AC004FF40000FFF7B8FE18238DF807304FF416
:1005BC00C053ADF8043001A9032309488DF8063067
:1005CC00FFF746FE074B5A6842F011025A60DA6890
:1005DC0042F44072DA6003B05DF804FB0010024094
:1005EC0000080140000C01400A4C08B5FFF774FFED
:1005FC00FFF7C0FF236940F6B83043F080732361E6
:10060C00FFF78EFF236943F48073236100F01EF81B
:10061C00FEE700BF000C0140094B5A69120542BFAE
:10062C005A6942F400625A61064B9B6813F4006FDE
:10063C00054B14BF20224FF400121A61704700BF03
:10064C000004014000100140000801400B4B002247
:10065C001A800B4B4FF4801119600A4B4FF48061D8
:10066C001A65DA645A6402F18042196402F5883220
:10067C00136843F000531360704700BF4A0000201A
:10068C0000E100E0005C0040024B1B6803EB001033
:10069C00818070471C000020024B00011B68185A17
:1006AC00704700BF1C000020024B1B6803EB0010BE
:1006BC00008970471C000020034B1B6803EB0010E3
:1006CC008089C0F3090070471C000020800000F1F5
:1006DC00804000F5B840036841F4004123F0F0037A
:1006EC00DB05DB0D41F08001194301607047800090
:1006FC0000F1804000F5B840036823F0F0035B057F
:10070C005B0D43F4004343F0C0030360704780006B
:10071C0000F1804000F5B840036823F0C0035B058E
:10072C005B0D83EA011109B241F4004141F08001F3
:10073C0089B201607047800000F1804000F5B8403C
:10074C00036823F40F639B049B0C83EA013109B209
:10075C0041F4004141F0800189B201607047800092
:10076C0000F1804000F5B840036823F070035B058E
:10077C005B0D03607047800000F1804000F5B840CD
:10078C00036823F4F14323F070031B041B0C036078
:10079C0070470000114B013270B50A444C1C1D68A7
:1007AC000130A4B292B2631E94429BB214D013F0E7
:1007BC00010F4FEA53031DBF9BB210F8016C35F8C3
:1007CC00231010F8011C18BF41EA0621013425F84A
:1007DC0023100130A4B2E6E770BD00BF200000205A
:1007EC0030B50A440A4C013892B291420ED02568B9
:1007FC004B0811F0010F16BF35F8233015F82330D4
:10080C001B0A013100F8013F89B2EEE730BD00BF91
:10081C0020000020094B18221B6828211A80102266
:10082C009A8019819A824FF48051402299811A85BD
:10083C0030214FF4005219829A8570471C00002019
:10084C0010B5FFF7E7FF1049002247F2700351F88B
:10085C00040F0340134301329BB2082A0B60F4D1FE
:10086C000A4A0024136C546443F4064313644FF493
:10087C0000712046FFF72AFF03212046FFF75BFF9C
:10088C008023D36410BD00BFFC5B0040005C0040C3
:10089C0010B51A4C636C190403D5BDE8104000F078
:1008AC0009BA5A0406D56FF480436364BDE810405E
:1008BC0000F04DB8980405D500F048F86FF40053DB
:1008CC00636410BD590506D56FF480636364BDE89D
:1008DC00104000F027B89A0506D56FF400736364D6
:1008EC00BDE8104000F031B8DB0506D56FF480731D
:1008FC006364BDE8104000F027B810BD005C0040F8
:10090C00074B5B6C1A040AD503F00F039B0003F131
:10091C00804303F5B8431A6802F03F021A6070472F
:10092C00005C004008B5FFF78BFF044A00231380DE
:10093C00034A1380034A138008BD00BF4200002005
:10094C0054000020400000207047704770477047EB
:10095C0037B5012402AD002005F8014DFFF79CFED0
:10096C00224601462846FFF715FF21460020FFF7D7
:10097C008BFE044B00221A81034B03221A8003B016
:10098C0030BD00BF540000204600002008B50021F7
:10099C00044B08461981FFF777FE034B03221A809C
:1009AC0008BD00BF540000204600002070B5C3886D
:1009BC000446082B4FF00000134D144E12D9FFF7CC
:1009CC006BFE082201461248FFF7E4FE114B08218A
:1009DC006B60E3880020083B2B81FFF755FE032357
:1009EC00338070BDFFF758FEE28801460848FFF7D8
:1009FC00D1FE00202881E188FFF746FE064A03233A
:100A0C003380138070BD00BF5400002046000020CE
:100A1C009A0D0008A20D00084400002070B50E4B82
:100A2C000020DD880D4E082D2C4628BF0824FFF72A
:100A3C0033FE224601463046FFF7ACFE084B2644F7
:100A4C002D1B214600205E601D81FFF71DFE054B0E
:100A5C0003221A8070BD00BF4C000020540D00080A
:100A6C00540000204600002070B5144B144A5B88DB
:100A7C000020DBB252F82350124E2C78082C0DD9E2
:100A8C00FFF70AFE082201462846FFF783FE0E4BAD
:100A9C000835083C5D601C81082108E0FFF7FCFD6F
:100AAC00A4B2014622462846FFF774FE21460020D8
:100ABC00FFF7EAFD0323338070BD00BF4C0000201C
:100ACC0024000020460000205400002007484388E2
:100ADC001B0A022B05D0032B05D0012B05D1FFF7E8
:100AEC0065BFFFF79BBFFFF7BFBF70474C000020EF
:100AFC0008B52A4B5A78092A4FD8DFE802F0050AC4
:100B0C004E0F4E142D363C45254A138843F00103F5
:100B1C002FE0234A138843F002032AE0204A13886B
:100B2C0043F0030325E01E490A8842F008020A80BC
:100B3C009978DB781B4A41EA03231380138900213F
:100B4C0023F47F6323F00F0308461381FFF79CFD0A
:100B5C00154B03221A8008BD114A138843F0100369
:100B6C001380BDE80840FFF7B1BF0D4A138843F06E
:100B7C002003138008BD0A4A138843F040031380F6
:100B8C00BDE80840FFF7E4BE054A138843F0800334
:100B9C001380BDE80840FFF7F9BE08BD4C000020EB
:100BAC004200002054000020460000202DE9F843AC
:100BBC00DFF8FC80D8F8446016F0100621D0002035
:100BCC00FFF7CDFD0020FFF76FFD04460020FFF777
:100BDC0073FD214602463148FFF702FED8F800307B
:100BEC0013F4006303D0BDE8F843FFF781BF2C4A30
:100BFC00032111802B4A516800294CD05360BDE869
:100C0C00F883284D3046FFF7B6FD2C89244FC4F3EA
:100C1C0009042CB3082C3046A8BF0824D5F804903E
:100C2C00FFF73AFD1FFA84F8424601464846FFF7A3
:100C3C00B1FD6B6841461C442B893046C8EB03035D
:100C4C002B816C60FFF720FD174A13889844022310
:100C5C003B80164BA2F8008003221A80BDE8F88373
:100C6C00D8F84C305B0607D12B882BB143F08003AE
:100C7C00C8F84C3003230DE000210846FFF704FDB3
:100C8C000B4B186810F0400001D1FFF730FD074AFC
:100C9C00032313803B80BDE8F88300BF4C00002089
:100CAC00440000205400002040000020460000209A
:100CBC00005C00400D4B70B55C6C14F00F0414D14B
:100CCC001B680B4E0B4DC3F30132C3F3011332807F
:100CDC002B80FFF76BFF31882046FFF72CFD29880E
:100CEC002046BDE87040FFF712BD70BD005C0040AF
:100CFC0044000020460000202E03530054004D00F9
:100D0C003300320020005600690072007400750038
:100D1C0061006C00200043004F004D00200050008B
:100D2C006F0072007400000000001A03530054009E
:100D3C004D00330032005300560041004800410082
:100D4C00520044000403090409022000010100C000
:100D5C003209040000020A0201000705810210009A
:100D6C0000070502021000002603530054004D003A
:100D7C006900630072006F0065006C006500630021
:100D8C00740072006F006E00690063007300120142
:100D9C000002020000088304405700020102030114
:100DAC0034000020000000000000000000000000E3
:100DBC00010203040607080900A24A04006000406F
:100DCC0000600040500D0008740D0008040D000870
:040DDC00360D0008C8
:040000050800010DE1
:00000001FF
