:020000040800F2
:1000000000500020CD010008D1010008D3010008F4
:10001000E9010008EB0100080102000800000000EF
:1000200000000000000000000000000017020008AF
:1000300019020008000000001B020008410500082A
:1000400031020008310200083102000831020008C4
:100050003102000831020008310200083D060008A4
:1000600031020008310200083102000831020008A4
:100070003102000831020008310200083102000894
:100080003102000831020008310200088509000829
:100090001509000831020008310200083102000889
:1000A0003102000831020008310200083102000864
:1000B0003102000831020008310200083102000854
:1000C0003102000831020008310200083102000844
:1000D0003102000831020008310200083102000834
:1000E000A5060008310200083102000800000000E7
:1000F0000000000000000000000000000000000000
:1001000000000000000000005FF808F107B500F0F3
:1001100021F9234A234B24498B4204D252F8040F7D
:1001200043F8040BF8E7214B214A0021934202D205
:1001300043F8041BFAE700F019F901A9684600F03A
:1001400001F91C4B1C4C1E46E41AA4100025AC42BD
:1001500004DD56F8253098470135F8E7174B184C61
:100160001E46E41AA4100025AC4204DD56F82530E2
:1001700098470135F8E79DE8030000F07DFA114B40
:1001800006461D46104CE41AA410002C04DD013C68
:1001900055F824309847F8E7304600F0CFF800BF14
:1001A000400F000800000020340000203400002030
:1001B000880000205C0200085C0200085C02000865
:1001C0005C0200085C0200085C020008144800475A
:1001D000FEE71EF0040F0CBFEFF30880EFF3098079
:1001E0007146104A1047FEE7FEE71EF0040F0CBFF1
:1001F000EFF30880EFF3098071460B4A1047FEE7E2
:100200001EF0040F0CBFEFF30880EFF30980714676
:10021000064A1047FEE7FEE7FEE7FEE770470000EC
:100220000D010008E7010008FF01000815020008A1
:02023000FEE7E7
:10023400440F00080000002034000020440F000890
:1002440000000000000000003400002088000020AE
:080254000000000000000000A2
:10025C00CA782DE9F041D40648BF8C780E8802F09C
:10026C000F0348BF234316F0FF0F1ED00168002474
:10027C004FF0010E4FF00F0C0EFA04F737EA06059B
:10028C000FD1A5000CFA05F821EA080103FA05F5CF
:10029C00282A41EA050101D1476102E0482A08BF3A
:1002AC0007610134082CE7D10160FF2E20D9416889
:1002BC0000244FF0010E4FF00F0C04F108050EFA5C
:1002CC0005F535EA06070FD1A7000CFA07F821EA65
:1002DC00080103FA07F7282A41EA070101D1456111
:1002EC0002E0482A08BF05610134082CE5D14160C1
:1002FC00BDE8F081014B1860704700BFD800424246
:10030C00044B9A6909B1104301E022EA000098619C
:10031C00704700BF00100240044BDA6909B110436A
:10032C0001E022EA0000D861704700BF00100240D3
:10033C0008B500F017F8000001230360014B0B60B7
:10034C00704700BF0000002008B500F01DF8024BFC
:10035C00024A9A6008BD00BF00ED00E000000008F2
:10036C0000F08CB8BFF34F8F0549064BCA6802F4F6
:10037C00E0621343CB60BFF34F8F00BFFDE700BFBC
:10038C0000ED00E00400FA05384B82B01A6842F028
:10039C0001021A605968364A0A405A601A6822F0FB
:1003AC00847222F480321A601A6822F480221A6055
:1003BC005A6822F4FE025A604FF41F029A6000221F
:1003CC00009201921A6842F480321A601A6802F4A0
:1003DC0000320192009A01320092019A1AB9009AE5
:1003EC00B2F5A06FF2D11A6812F4003218BF0122D4
:1003FC000192019A012A05D01E4B4FF000629A60BF
:10040C0002B070471C4A116841F01001116011686C
:10041C0021F003011160116841F0020111605A686A
:10042C005A605A685A605A6842F480625A605A6834
:10043C0022F47C125A605A6842F4E8125A601A6824
:10044C0042F080721A601968084A8901FBD551681C
:10045C0021F003015160516841F0020151605A686A
:10046C0002F00C02082AFAD1C6E700BF00100240C5
:10047C000000FFF800ED00E000200240114A124B92
:10048C00516801F00C01042901D0082901D00F4951
:10049C000EE051685068C1F38341C00301F10201C1
:1004AC0002D55068800301D5094800E00748414354
:1004BC00196052680749C2F30312895C1A68CA4072
:1004CC001A607047001002401800002000127A00D9
:1004DC0000093D00080000200C4B002119600C4B5A
:1004EC004FF47A7219600B4B1B68B3FBF2F3013BB0
:1004FC00B3F1807F08D2084AF0205360074B83F891
:10050C002300072391601360704700BF3800002060
:10051C003C0000201800002010E000E000ED00E09E
:10052C00024B18601A68002AFCD170473C0000206E
:10053C007047000008B50C4B1A6812B11A68013AE2
:10054C001A600A4A13781BB11378013BDBB21370A3
:10055C00074B1A6832B11A68013A1A601B680BB95A
:10056C00FFF7E6FF08BD00BF3C0000207100002033
:10057C003800002007B5274A01219369084643F04B
:10058C001C039361FFF7BCFE0020FFF7B3FE0121B3
:10059C004FF40000FFF7C0FE18238DF807304FF41E
:1005AC00C053ADF8043001A903231B488DF8063065
:1005BC00FFF74EFE194BDA6842F00102DA601A6856
:1005CC0042F001021A60D3F80C2442F40052C3F832
:1005DC000C24D3F8042442F48012C3F80424104AE7
:1005EC00936843F0100393600E4B1A6842F00202BA
:1005FC001A609A6842F002029A60DA6842F00202CB
:10060C00DA60094B80221A60084B00221A7003B082
:10061C005DF804FB0010024000080140000C014092
:10062C00000001400004014000E100E072000020E5
:10063C000A4A0B49536943F002035361094B0A4AB6
:10064C009B6813F002031BBF4FF000530B614FF478
:10065C000050012308BF086113707047000401406B
:10066C0000100140000C01407200002008B5FFF79B
:10067C0033FFFFF77FFF4FF4FA60FFF751FF00F0F5
:10068C0025F8044A136943F4803313616420FFF79F
:10069C0047FFFBE7000C0140094B5A69120542BFAA
:1006AC005A6942F400625A61064B9B6813F4006F5E
:1006BC00054B14BF20224FF400121A61704700BF83
:1006CC00000401400010014000080140074B0022CB
:1006DC001A80074B4FF480111960064B4FF4806160
:1006EC001A65DA6419645A64704700BF74000020FC
:1006FC0000E100E0005C0040024B1B6803EB0010C3
:10070C00818070471C000020024B00011B68185AA6
:10071C00704700BF1C000020024B1B6803EB00104D
:10072C00008970471C000020034B1B6803EB001072
:10073C008089C0F3090070471C000020800000F184
:10074C00804000F5B840036841F4004123F0F00309
:10075C00DB05DB0D41F0800119430160704780001F
:10076C0000F1804000F5B840036823F0F0035B050E
:10077C005B0D43F4004343F0C003036070478000FB
:10078C0000F1804000F5B840036823F0C0035B051E
:10079C005B0D83EA011109B241F4004141F0800183
:1007AC0089B201607047800000F1804000F5B840CC
:1007BC00036823F40F639B049B0C83EA013109B299
:1007CC0041F4004141F0800189B201607047800022
:1007DC0000F1804000F5B840036823F070035B051E
:1007EC005B0D03607047800000F1804000F5B8405D
:1007FC00036823F4F14323F070031B041B0C036008
:10080C0070470000114B013270B50A444C1C1D6836
:10081C000130A4B292B2631E94429BB214D013F076
:10082C00010F4FEA53031DBF9BB210F8016C35F852
:10083C00231010F8011C18BF41EA0621013425F8D9
:10084C0023100130A4B2E6E770BD00BF20000020E9
:10085C0030B50A440A4C013892B291420ED0256848
:10086C004B0811F0010F16BF35F8233015F8233063
:10087C001B0A013100F8013F89B2EEE730BD00BF21
:10088C00200000200B4B38211B68202219824021AC
:10089C001A809982102278219A801984302208219A
:1008AC001A8199844FF4805280219A8119879A87F2
:1008BC00704700BF1C00002010B5FFF7E3FF104984
:1008CC00002247F2700351F8040F03401343013226
:1008DC009BB2082A0B60F4D10A4A0024136C5464AE
:1008EC0043F4064313644FF400712046FFF726FFD0
:1008FC0003212046FFF757FF8023D36410BD00BFB0
:10090C00FC5B0040005C004010B51A4C636C190491
:10091C0003D5BDE8104000F061BA5A0406D56FF457
:10092C0080436364BDE8104000F055B8980405D5C9
:10093C0000F050F86FF40053636410BD590506D5F0
:10094C006FF480636364BDE8104000F027B89A052B
:10095C0006D56FF400736364BDE8104000F039B83D
:10096C00DB0506D56FF480736364BDE8104000F0BE
:10097C002FB810BD005C0040074B5B6C1A040AD505
:10098C0003F00F039B0003F1804303F5B8431A688F
:10099C0002F03F021A607047005C004008B5FFF798
:1009AC008BFF064A00231380054A1380054A1370F7
:1009BC00054A1381054A138108BD00BF6A00002057
:1009CC006800002070000020400000204C00002037
:1009DC007047704770477047002108B50846FFF70D
:1009EC008BFE064B186810F0400001D1FFF7B7FEE4
:1009FC00034A03231380034A138008BD005C0040A4
:100A0C006E0000206C00002070B50E4B0646DD8891
:100A1C000020082D2C4628BF0824FFF775FE22461F
:100A2C0001463046FFF7EEFE074B26442D1B2146B0
:100A3C0000205E601D81FFF75FFE044B03221A80CD
:100A4C0070BD00BF7E0000204C0000206E00002016
:100A5C0008B50021044B08461981FFF74DFE034BE6
:100A6C0003221A8008BD00BF4C0000206E0000203D
:100A7C000A4B5B88180A022805D0032806D00128E7
:100A8C0009D1074800E00748FFF7BEBF064ADBB2B2
:100A9C0052F82300F8E7FFF7DBBF00BF7E00002011
:100AAC00310F0008D60E00082400002037B50124B1
:100ABC0002AD002005F8014DFFF726FE2246014647
:100ACC002846FFF79FFE21460020FFF715FE044B3A
:100ADC0000221A81034B03221A8003B030BD00BFE1
:100AEC004C0000206E00002013B5012302AC002046
:100AFC0024F8023DFFF708FE022201462046FFF7CC
:100B0C0081FE02210020FFF7F7FD044B00221A8121
:100B1C00034B03221A8002B010BD00BF4C00002012
:100B2C006E00002008B50021044B08461981FFF720
:100B3C00E3FD034B03221A8008BD00BF4C000020CC
:100B4C006E00002038B55B4D6C782B46082C7DD0A0
:100B5C0010D8012C2BD021D3052C49D0062C40F0D9
:100B6C009C80554A138843F010031380BDE838402D
:100B7C00FFF77EBF202C72D00BD8092C40F08D8053
:100B8C004D4A138843F080031380BDE83840FFF7CB
:100B9C00C9BF212C6FD0222C7BD07EE0464A138813
:100BAC0043F001031380BDE83840FFF79DBFA888D0
:100BBC0000287DD0822805D14FF4C0610220FFF7B8
:100BCC00BDFD66E0002100F00F00FFF7B7FDAB881C
:100BDC001B0608D520460021FFF78EFD022120467A
:100BEC00FFF7CDFD55E003210846FFF7DCFD50E093
:100BFC00314A00211388084643F008031380EA7831
:100C0C00AB7843EA02232D4A1380FFF775FD0021D0
:100C1C000120FFF793FD4FF4C0610220FFF78EFD1A
:100C2C0000210320FFF78AFD02210120FFF7A7FD19
:100C3C0000210220FFF7A3FD03210846FFF7B3FDB7
:100C4C001F4A032313801F4A138038BD1A4A138886
:100C5C0043F040031380BDE83840FFF727BF1A4B21
:100C6C001A4A1C705A60AA79E97942EA01221A815F
:100C7C000322144B1BE00020FFF746FDEA880146D7
:100C8C001248FFF7BFFD124B002058601881E9880D
:100C9C0009E0BDE83840FFF79FBEDB8819463BB939
:100CAC0018460B4A1381FFF727FD054B03221A80C8
:100CBC0038BD00BF7E0000206A00002068000020C4
:100CCC006E0000206C000020400000207600002008
:100CDC004C0000202DE9F041384E706C10F01000E3
:100CEC0033D00020FFF773FD346814F400640FD088
:100CFC000020FFF711FD04460020FFF715FD2146EB
:100D0C0002462F48FFF7A4FDBDE8F041FFF71ABFDC
:100D1C002046FFF709FD2B4D30B92B4B03221A80CF
:100D2C0068602881BDE8F0812B78202B09D1204602
:100D3C00FFF7F2FC2A8901462448FFF789FD2C7045
:100D4C002C81BDE8F041FFF747BE214DFFF74BFD6D
:100D5C002C89204FECB1082C4FF0000094BFE4B26A
:100D6C000824D5F80480FFF7CFFCA6B20146324622
:100D7C004046FFF747FD6B6831461C442B89002029
:100D8C009B1B2B816C60FFF7B7FC03233B80BDE8FA
:100D9C00F081114B1B882BB1F26C520604BF43F04F
:100DAC008003F36400210846FFF7A6FC02233B8076
:100DBC00054B03221A80BDE8F08100BF005C0040A7
:100DCC007E000020400000206C00002076000020F7
:100DDC004C0000206E0000206800002038B5214B2C
:100DEC005C6C04F00F04012C31D01BD3032C33D1D9
:100DFC002046FFF7ECFC2046FFF78EFC054620460C
:100E0C00FFF792FC294602461748FFF721FD2046C2
:100E1C00FFF78AFC154B214618702046BDE8384078
:100E2C00FFF7C1BC1B68124D124CC3F30132C3F364
:100E3C0001132A802380FFF74DFF29880020FFF73C
:100E4C00B2FC21880020BDE83840FFF798BC204652
:100E5C00BDE83840FFF7C7BC0320BDE83840FFF7BA
:100E6C00B6BC00BF005C00405800002070000020A1
:100E7C006C0000206E000020340355006E006900E9
:100E8C00760065007200730061006C002000540055
:100E9C0065007300740069006E00670020004D004F
:100EAC0061006300680069006E0065001A0353005E
:100EBC0056004100540053004D003000300030000B
:100ECC003000310030000403090409024300020120
:100EDC0000C03209040000010202010005240010C8
:100EEC000105240100010424020205240600010767
:100EFC000582030800FF09040100020A0200000732
:100F0C00058102400000070503021000001803537E
:100F1C0000560041004800610072006400770061D7
:100F2C0000720065001201000202000008A004001B
:070F3C0001000201020301A4
:100F44003400002000000000000000000000000049
:100F5400010203040607080900A24A0400600040D5
:100F640000600040D20E0008190F0008840E00082B
:040F7400B80E0008AB
:040000050800010DE1
:00000001FF
